{
  "_format": "hh-sol-artifact-1",
  "contractName": "FreelanceEscrow",
  "sourceName": "contracts/FreelanceEscrow.sol",
  "abi": [
    {
      "inputs": [],
      "stateMutability": "nonpayable",
      "type": "constructor"
    },
    {
      "inputs": [],
      "name": "ReentrancyGuardReentrantCall",
      "type": "error"
    },
    {
      "anonymous": false,
      "inputs": [
        {
          "indexed": true,
          "internalType": "uint256",
          "name": "id",
          "type": "uint256"
        },
        {
          "indexed": true,
          "internalType": "address",
          "name": "freelancer",
          "type": "address"
        },
        {
          "indexed": false,
          "internalType": "uint256",
          "name": "amount",
          "type": "uint256"
        }
      ],
      "name": "BidPlaced",
      "type": "event"
    },
    {
      "anonymous": false,
      "inputs": [
        {
          "indexed": true,
          "internalType": "uint256",
          "name": "jobId",
          "type": "uint256"
        },
        {
          "indexed": true,
          "internalType": "address",
          "name": "bidder",
          "type": "address"
        },
        {
          "indexed": false,
          "internalType": "uint256",
          "name": "amount",
          "type": "uint256"
        }
      ],
      "name": "BidRefunded",
      "type": "event"
    },
    {
      "anonymous": false,
      "inputs": [
        {
          "indexed": true,
          "internalType": "uint256",
          "name": "id",
          "type": "uint256"
        }
      ],
      "name": "DisputeRaised",
      "type": "event"
    },
    {
      "anonymous": false,
      "inputs": [
        {
          "indexed": true,
          "internalType": "uint256",
          "name": "id",
          "type": "uint256"
        },
        {
          "indexed": false,
          "internalType": "bool",
          "name": "releasedToFreelancer",
          "type": "bool"
        }
      ],
      "name": "DisputeResolved",
      "type": "event"
    },
    {
      "anonymous": false,
      "inputs": [
        {
          "indexed": true,
          "internalType": "uint256",
          "name": "id",
          "type": "uint256"
        },
        {
          "indexed": true,
          "internalType": "address",
          "name": "freelancer",
          "type": "address"
        },
        {
          "indexed": false,
          "internalType": "uint256",
          "name": "escrow",
          "type": "uint256"
        }
      ],
      "name": "FreelancerSelected",
      "type": "event"
    },
    {
      "anonymous": false,
      "inputs": [
        {
          "indexed": true,
          "internalType": "uint256",
          "name": "id",
          "type": "uint256"
        },
        {
          "indexed": false,
          "internalType": "uint256",
          "name": "payout",
          "type": "uint256"
        }
      ],
      "name": "JobApproved",
      "type": "event"
    },
    {
      "anonymous": false,
      "inputs": [
        {
          "indexed": true,
          "internalType": "uint256",
          "name": "id",
          "type": "uint256"
        }
      ],
      "name": "JobCancelled",
      "type": "event"
    },
    {
      "anonymous": false,
      "inputs": [
        {
          "indexed": true,
          "internalType": "uint256",
          "name": "id",
          "type": "uint256"
        },
        {
          "indexed": true,
          "internalType": "address",
          "name": "client",
          "type": "address"
        },
        {
          "indexed": false,
          "internalType": "uint256",
          "name": "budget",
          "type": "uint256"
        }
      ],
      "name": "JobCreated",
      "type": "event"
    },
    {
      "anonymous": false,
      "inputs": [
        {
          "indexed": true,
          "internalType": "address",
          "name": "user",
          "type": "address"
        }
      ],
      "name": "UserRegistered",
      "type": "event"
    },
    {
      "anonymous": false,
      "inputs": [
        {
          "indexed": true,
          "internalType": "uint256",
          "name": "id",
          "type": "uint256"
        },
        {
          "indexed": false,
          "internalType": "string",
          "name": "submissionCID",
          "type": "string"
        }
      ],
      "name": "WorkSubmitted",
      "type": "event"
    },
    {
      "inputs": [
        {
          "internalType": "uint256",
          "name": "id",
          "type": "uint256"
        }
      ],
      "name": "approveWork",
      "outputs": [],
      "stateMutability": "nonpayable",
      "type": "function"
    },
    {
      "inputs": [
        {
          "internalType": "uint256",
          "name": "",
          "type": "uint256"
        },
        {
          "internalType": "address",
          "name": "",
          "type": "address"
        }
      ],
      "name": "bidAmounts",
      "outputs": [
        {
          "internalType": "uint256",
          "name": "",
          "type": "uint256"
        }
      ],
      "stateMutability": "view",
      "type": "function"
    },
    {
      "inputs": [
        {
          "internalType": "uint256",
          "name": "id",
          "type": "uint256"
        }
      ],
      "name": "cancelJob",
      "outputs": [],
      "stateMutability": "nonpayable",
      "type": "function"
    },
    {
      "inputs": [
        {
          "internalType": "string",
          "name": "_title",
          "type": "string"
        },
        {
          "internalType": "uint256",
          "name": "_budget",
          "type": "uint256"
        },
        {
          "internalType": "string",
          "name": "_specCID",
          "type": "string"
        }
      ],
      "name": "createJob",
      "outputs": [],
      "stateMutability": "nonpayable",
      "type": "function"
    },
    {
      "inputs": [
        {
          "internalType": "address",
          "name": "user",
          "type": "address"
        }
      ],
      "name": "getFullUserProfile",
      "outputs": [
        {
          "internalType": "string",
          "name": "profileCID",
          "type": "string"
        },
        {
          "internalType": "uint256",
          "name": "totalSpent",
          "type": "uint256"
        },
        {
          "internalType": "uint256",
          "name": "totalEarned",
          "type": "uint256"
        },
        {
          "internalType": "uint256[]",
          "name": "jobsPosted",
          "type": "uint256[]"
        },
        {
          "internalType": "uint256[]",
          "name": "jobsCompleted",
          "type": "uint256[]"
        },
        {
          "internalType": "uint256[]",
          "name": "jobsBidOn",
          "type": "uint256[]"
        }
      ],
      "stateMutability": "view",
      "type": "function"
    },
    {
      "inputs": [
        {
          "internalType": "uint256[]",
          "name": "ids",
          "type": "uint256[]"
        }
      ],
      "name": "getJobsByIds",
      "outputs": [
        {
          "components": [
            {
              "internalType": "uint256",
              "name": "jobId",
              "type": "uint256"
            },
            {
              "internalType": "address",
              "name": "client",
              "type": "address"
            },
            {
              "internalType": "address",
              "name": "freelancer",
              "type": "address"
            },
            {
              "internalType": "string",
              "name": "title",
              "type": "string"
            },
            {
              "internalType": "string",
              "name": "specCID",
              "type": "string"
            },
            {
              "internalType": "string",
              "name": "submissionCID",
              "type": "string"
            },
            {
              "internalType": "uint256",
              "name": "budget",
              "type": "uint256"
            },
            {
              "internalType": "uint256",
              "name": "escrow",
              "type": "uint256"
            },
            {
              "internalType": "enum FreelanceEscrow.JobStatus",
              "name": "status",
              "type": "uint8"
            }
          ],
          "internalType": "struct FreelanceEscrow.Job[]",
          "name": "",
          "type": "tuple[]"
        }
      ],
      "stateMutability": "view",
      "type": "function"
    },
    {
      "inputs": [
        {
          "internalType": "uint256",
          "name": "",
          "type": "uint256"
        },
        {
          "internalType": "address",
          "name": "",
          "type": "address"
        }
      ],
      "name": "hasBid",
      "outputs": [
        {
          "internalType": "bool",
          "name": "",
          "type": "bool"
        }
      ],
      "stateMutability": "view",
      "type": "function"
    },
    {
      "inputs": [
        {
          "internalType": "address",
          "name": "user",
          "type": "address"
        }
      ],
      "name": "isUserRegistered",
      "outputs": [
        {
          "internalType": "bool",
          "name": "",
          "type": "bool"
        }
      ],
      "stateMutability": "view",
      "type": "function"
    },
    {
      "inputs": [],
      "name": "jobCount",
      "outputs": [
        {
          "internalType": "uint256",
          "name": "",
          "type": "uint256"
        }
      ],
      "stateMutability": "view",
      "type": "function"
    },
    {
      "inputs": [
        {
          "internalType": "uint256",
          "name": "",
          "type": "uint256"
        }
      ],
      "name": "jobs",
      "outputs": [
        {
          "internalType": "uint256",
          "name": "jobId",
          "type": "uint256"
        },
        {
          "internalType": "address",
          "name": "client",
          "type": "address"
        },
        {
          "internalType": "address",
          "name": "freelancer",
          "type": "address"
        },
        {
          "internalType": "string",
          "name": "title",
          "type": "string"
        },
        {
          "internalType": "string",
          "name": "specCID",
          "type": "string"
        },
        {
          "internalType": "string",
          "name": "submissionCID",
          "type": "string"
        },
        {
          "internalType": "uint256",
          "name": "budget",
          "type": "uint256"
        },
        {
          "internalType": "uint256",
          "name": "escrow",
          "type": "uint256"
        },
        {
          "internalType": "enum FreelanceEscrow.JobStatus",
          "name": "status",
          "type": "uint8"
        }
      ],
      "stateMutability": "view",
      "type": "function"
    },
    {
      "inputs": [
        {
          "internalType": "address",
          "name": "user",
          "type": "address"
        }
      ],
      "name": "jobsOf",
      "outputs": [
        {
          "internalType": "uint256[]",
          "name": "",
          "type": "uint256[]"
        }
      ],
      "stateMutability": "view",
      "type": "function"
    },
    {
      "inputs": [
        {
          "internalType": "uint256",
          "name": "id",
          "type": "uint256"
        }
      ],
      "name": "listBids",
      "outputs": [
        {
          "components": [
            {
              "internalType": "address",
              "name": "bidder",
              "type": "address"
            },
            {
              "internalType": "uint256",
              "name": "amount",
              "type": "uint256"
            }
          ],
          "internalType": "struct FreelanceEscrow.Bid[]",
          "name": "",
          "type": "tuple[]"
        }
      ],
      "stateMutability": "view",
      "type": "function"
    },
    {
      "inputs": [],
      "name": "listDisputedJobs",
      "outputs": [
        {
          "components": [
            {
              "internalType": "uint256",
              "name": "jobId",
              "type": "uint256"
            },
            {
              "internalType": "address",
              "name": "client",
              "type": "address"
            },
            {
              "internalType": "address",
              "name": "freelancer",
              "type": "address"
            },
            {
              "internalType": "string",
              "name": "title",
              "type": "string"
            },
            {
              "internalType": "string",
              "name": "specCID",
              "type": "string"
            },
            {
              "internalType": "string",
              "name": "submissionCID",
              "type": "string"
            },
            {
              "internalType": "uint256",
              "name": "budget",
              "type": "uint256"
            },
            {
              "internalType": "uint256",
              "name": "escrow",
              "type": "uint256"
            },
            {
              "internalType": "enum FreelanceEscrow.JobStatus",
              "name": "status",
              "type": "uint8"
            }
          ],
          "internalType": "struct FreelanceEscrow.Job[]",
          "name": "",
          "type": "tuple[]"
        }
      ],
      "stateMutability": "view",
      "type": "function"
    },
    {
      "inputs": [],
      "name": "listOpenJobs",
      "outputs": [
        {
          "components": [
            {
              "internalType": "uint256",
              "name": "jobId",
              "type": "uint256"
            },
            {
              "internalType": "address",
              "name": "client",
              "type": "address"
            },
            {
              "internalType": "address",
              "name": "freelancer",
              "type": "address"
            },
            {
              "internalType": "string",
              "name": "title",
              "type": "string"
            },
            {
              "internalType": "string",
              "name": "specCID",
              "type": "string"
            },
            {
              "internalType": "string",
              "name": "submissionCID",
              "type": "string"
            },
            {
              "internalType": "uint256",
              "name": "budget",
              "type": "uint256"
            },
            {
              "internalType": "uint256",
              "name": "escrow",
              "type": "uint256"
            },
            {
              "internalType": "enum FreelanceEscrow.JobStatus",
              "name": "status",
              "type": "uint8"
            }
          ],
          "internalType": "struct FreelanceEscrow.Job[]",
          "name": "",
          "type": "tuple[]"
        }
      ],
      "stateMutability": "view",
      "type": "function"
    },
    {
      "inputs": [],
      "name": "owner",
      "outputs": [
        {
          "internalType": "address",
          "name": "",
          "type": "address"
        }
      ],
      "stateMutability": "view",
      "type": "function"
    },
    {
      "inputs": [
        {
          "internalType": "uint256",
          "name": "id",
          "type": "uint256"
        },
        {
          "internalType": "bool",
          "name": "releaseToFreelancer",
          "type": "bool"
        }
      ],
      "name": "ownerResolveDispute",
      "outputs": [],
      "stateMutability": "nonpayable",
      "type": "function"
    },
    {
      "inputs": [
        {
          "internalType": "uint256",
          "name": "jobId",
          "type": "uint256"
        }
      ],
      "name": "placeBid",
      "outputs": [],
      "stateMutability": "payable",
      "type": "function"
    },
    {
      "inputs": [
        {
          "internalType": "uint256",
          "name": "id",
          "type": "uint256"
        }
      ],
      "name": "raiseDispute",
      "outputs": [],
      "stateMutability": "nonpayable",
      "type": "function"
    },
    {
      "inputs": [
        {
          "internalType": "uint256",
          "name": "jobId",
          "type": "uint256"
        }
      ],
      "name": "refundBid",
      "outputs": [],
      "stateMutability": "nonpayable",
      "type": "function"
    },
    {
      "inputs": [],
      "name": "registerUser",
      "outputs": [],
      "stateMutability": "nonpayable",
      "type": "function"
    },
    {
      "inputs": [
        {
          "internalType": "uint256",
          "name": "id",
          "type": "uint256"
        },
        {
          "internalType": "address",
          "name": "_freelancer",
          "type": "address"
        }
      ],
      "name": "selectFreelancer",
      "outputs": [],
      "stateMutability": "payable",
      "type": "function"
    },
    {
      "inputs": [
        {
          "internalType": "uint256",
          "name": "id",
          "type": "uint256"
        },
        {
          "internalType": "string",
          "name": "_submissionCID",
          "type": "string"
        }
      ],
      "name": "submitWork",
      "outputs": [],
      "stateMutability": "nonpayable",
      "type": "function"
    },
    {
      "inputs": [
        {
          "internalType": "address",
          "name": "",
          "type": "address"
        }
      ],
      "name": "userProfiles",
      "outputs": [
        {
          "internalType": "bool",
          "name": "isRegistered",
          "type": "bool"
        },
        {
          "internalType": "string",
          "name": "profileCID",
          "type": "string"
        },
        {
          "internalType": "uint256",
          "name": "totalSpent",
          "type": "uint256"
        },
        {
          "internalType": "uint256",
          "name": "totalEarned",
          "type": "uint256"
        }
      ],
      "stateMutability": "view",
      "type": "function"
    }
  ],
  "bytecode": "0x60a0604052348015600f57600080fd5b5060016000819055503373ffffffffffffffffffffffffffffffffffffffff1660808173ffffffffffffffffffffffffffffffffffffffff168152505060006001819055506080516153d361007660003960008181611e8f015261238501526153d36000f3fe6080604052600436106101405760003560e01c80634c5d8a0f116100b6578063a51f743d1161006f578063a51f743d14610472578063a5c1674e1461049d578063af405bfe146104c6578063b193aee014610503578063b29fed2714610540578063da8accf91461056b57610140565b80634c5d8a0f146103835780634d3820eb146103ae57806360ec218d146103c55780636373d2ea146103ee5780638da5cb5b1461042b5780639979ef451461045657610140565b806326d29ce01161010857806326d29ce014610256578063332d56d71461027f578063380deabc146102bf5780633d01e0fa146102db578063449e88121461030457806346cf7c561461034157610140565b806304abfae614610145578063163f752214610182578063180aedf3146101bf57806319eb5ae4146102045780631dffa3dc1461022d575b600080fd5b34801561015157600080fd5b5061016c60048036038101906101679190613a3a565b610594565b6040516101799190613a89565b60405180910390f35b34801561018e57600080fd5b506101a960048036038101906101a49190613aa4565b6105b9565b6040516101b69190613aec565b60405180910390f35b3480156101cb57600080fd5b506101e660048036038101906101e19190613b07565b610612565b6040516101fb99989796959493929190613c4a565b60405180910390f35b34801561021057600080fd5b5061022b60048036038101906102269190613d51565b610845565b005b34801561023957600080fd5b50610254600480360381019061024f9190613b07565b610a8f565b005b34801561026257600080fd5b5061027d60048036038101906102789190613b07565b610e19565b005b34801561028b57600080fd5b506102a660048036038101906102a19190613aa4565b61119c565b6040516102b69493929190613de6565b60405180910390f35b6102d960048036038101906102d49190613a3a565b611261565b005b3480156102e757600080fd5b5061030260048036038101906102fd9190613b07565b611528565b005b34801561031057600080fd5b5061032b60048036038101906103269190613a3a565b611977565b6040516103389190613aec565b60405180910390f35b34801561034d57600080fd5b5061036860048036038101906103639190613aa4565b6119a6565b60405161037a96959493929190613ef0565b60405180910390f35b34801561038f57600080fd5b50610398611ba5565b6040516103a59190613a89565b60405180910390f35b3480156103ba57600080fd5b506103c3611bab565b005b3480156103d157600080fd5b506103ec60048036038101906103e79190613f99565b611e85565b005b3480156103fa57600080fd5b5061041560048036038101906104109190613aa4565b6122ec565b6040516104229190613fd9565b60405180910390f35b34801561043757600080fd5b50610440612383565b60405161044d9190613ffb565b60405180910390f35b610470600480360381019061046b9190613b07565b6123a7565b005b34801561047e57600080fd5b5061048761275b565b6040516104949190614213565b60405180910390f35b3480156104a957600080fd5b506104c460048036038101906104bf9190613b07565b612bbc565b005b3480156104d257600080fd5b506104ed60048036038101906104e89190614373565b612dd5565b6040516104fa9190614213565b60405180910390f35b34801561050f57600080fd5b5061052a60048036038101906105259190613b07565b613165565b604051610537919061449a565b60405180910390f35b34801561054c57600080fd5b50610555613237565b6040516105629190614213565b60405180910390f35b34801561057757600080fd5b50610592600480360381019061058d91906144bc565b613698565b005b6006602052816000526040600020602052806000526040600020600091509150505481565b6000600560008373ffffffffffffffffffffffffffffffffffffffff1673ffffffffffffffffffffffffffffffffffffffff16815260200190815260200160002060000160009054906101000a900460ff169050919050565b60026020528060005260406000206000915090508060000154908060010160009054906101000a900473ffffffffffffffffffffffffffffffffffffffff16908060020160009054906101000a900473ffffffffffffffffffffffffffffffffffffffff16908060030180546106879061454b565b80601f01602080910402602001604051908101604052809291908181526020018280546106b39061454b565b80156107005780601f106106d557610100808354040283529160200191610700565b820191906000526020600020905b8154815290600101906020018083116106e357829003601f168201915b5050505050908060040180546107159061454b565b80601f01602080910402602001604051908101604052809291908181526020018280546107419061454b565b801561078e5780601f106107635761010080835404028352916020019161078e565b820191906000526020600020905b81548152906001019060200180831161077157829003601f168201915b5050505050908060050180546107a39061454b565b80601f01602080910402602001604051908101604052809291908181526020018280546107cf9061454b565b801561081c5780601f106107f15761010080835404028352916020019161081c565b820191906000526020600020905b8154815290600101906020018083116107ff57829003601f168201915b5050505050908060060154908060070154908060080160009054906101000a900460ff16905089565b60008311610888576040517f08c379a000000000000000000000000000000000000000000000000000000000815260040161087f906145c8565b60405180910390fd5b60016000815461089790614617565b91905081905550600060026000600154815260200190815260200160002090506001548160000181905550338160010160006101000a81548173ffffffffffffffffffffffffffffffffffffffff021916908373ffffffffffffffffffffffffffffffffffffffff1602179055508585826003019182610918929190614816565b50828282600401918261092c929190614816565b5083816006018190555060008160080160006101000a81548160ff0219169083600681111561095e5761095d613bd3565b5b0217905550600560003373ffffffffffffffffffffffffffffffffffffffff1673ffffffffffffffffffffffffffffffffffffffff1681526020019081526020016000206002016001549080600181540180825580915050600190039060005260206000200160009091909190915055600460003373ffffffffffffffffffffffffffffffffffffffff1673ffffffffffffffffffffffffffffffffffffffff16815260200190815260200160002060015490806001815401808255809150506001900390600052602060002001600090919091909150553373ffffffffffffffffffffffffffffffffffffffff166001547f8678ba2d99dba901dafc51009f8d402d37a5a0275752cf0e263b827aeca906f286604051610a7f9190613a89565b60405180910390a3505050505050565b806002600082815260200190815260200160002060010160009054906101000a900473ffffffffffffffffffffffffffffffffffffffff1673ffffffffffffffffffffffffffffffffffffffff163373ffffffffffffffffffffffffffffffffffffffff1614610b34576040517f08c379a0000000000000000000000000000000000000000000000000000000008152600401610b2b90614932565b60405180910390fd5b610b3c61384e565b600060026000848152602001908152602001600020905060006006811115610b6757610b66613bd3565b5b8160080160009054906101000a900460ff166006811115610b8b57610b8a613bd3565b5b14610bcb576040517f08c379a0000000000000000000000000000000000000000000000000000000008152600401610bc29061499e565b60405180910390fd5b600060036000858152602001908152602001600020905060005b8180549050811015610d41576000828281548110610c0657610c056149be565b5b9060005260206000209060020201600101541115610d34576000828281548110610c3357610c326149be565b5b906000526020600020906002020160000160009054906101000a900473ffffffffffffffffffffffffffffffffffffffff1673ffffffffffffffffffffffffffffffffffffffff16838381548110610c8e57610c8d6149be565b5b906000526020600020906002020160010154604051610cac90614a1e565b60006040518083038185875af1925050503d8060008114610ce9576040519150601f19603f3d011682016040523d82523d6000602084013e610cee565b606091505b5050905080610d32576040517f08c379a0000000000000000000000000000000000000000000000000000000008152600401610d2990614a7f565b60405180910390fd5b505b8080600101915050610be5565b5060068260080160006101000a81548160ff02191690836006811115610d6a57610d69613bd3565b5b021790555060008260020160006101000a81548173ffffffffffffffffffffffffffffffffffffffff021916908373ffffffffffffffffffffffffffffffffffffffff1602179055506000826007018190555060405180602001604052806000815250826005019081610ddd9190614a9f565b50837f58243f872c550ad02802199ade99eb4250f6bb19e9abbf2d3de7b969c0eb5e4f60405160405180910390a25050610e15613894565b5050565b610e2161384e565b6007600082815260200190815260200160002060003373ffffffffffffffffffffffffffffffffffffffff1673ffffffffffffffffffffffffffffffffffffffff16815260200190815260200160002060009054906101000a900460ff16610ebe576040517f08c379a0000000000000000000000000000000000000000000000000000000008152600401610eb590614bbd565b60405180910390fd5b3373ffffffffffffffffffffffffffffffffffffffff166002600083815260200190815260200160002060020160009054906101000a900473ffffffffffffffffffffffffffffffffffffffff1673ffffffffffffffffffffffffffffffffffffffff1603610f62576040517f08c379a0000000000000000000000000000000000000000000000000000000008152600401610f5990614c29565b60405180910390fd5b60006006600083815260200190815260200160002060003373ffffffffffffffffffffffffffffffffffffffff1673ffffffffffffffffffffffffffffffffffffffff16815260200190815260200160002054905060008111610ffa576040517f08c379a0000000000000000000000000000000000000000000000000000000008152600401610ff190614c95565b60405180910390fd5b60005b60036000848152602001908152602001600020805490508110156110f2573373ffffffffffffffffffffffffffffffffffffffff16600360008581526020019081526020016000208281548110611057576110566149be565b5b906000526020600020906002020160000160009054906101000a900473ffffffffffffffffffffffffffffffffffffffff1673ffffffffffffffffffffffffffffffffffffffff16036110e55760006003600085815260200190815260200160002082815481106110cb576110ca6149be565b5b9060005260206000209060020201600101819055506110f2565b8080600101915050610ffd565b5060006006600084815260200190815260200160002060003373ffffffffffffffffffffffffffffffffffffffff1673ffffffffffffffffffffffffffffffffffffffff168152602001908152602001600020819055503373ffffffffffffffffffffffffffffffffffffffff166108fc829081150290604051600060405180830381858888f1935050505015801561118f573d6000803e3d6000fd5b5050611199613894565b50565b60056020528060005260406000206000915090508060000160009054906101000a900460ff16908060010180546111d29061454b565b80601f01602080910402602001604051908101604052809291908181526020018280546111fe9061454b565b801561124b5780601f106112205761010080835404028352916020019161124b565b820191906000526020600020905b81548152906001019060200180831161122e57829003601f168201915b5050505050908060040154908060050154905084565b816002600082815260200190815260200160002060010160009054906101000a900473ffffffffffffffffffffffffffffffffffffffff1673ffffffffffffffffffffffffffffffffffffffff163373ffffffffffffffffffffffffffffffffffffffff1614611306576040517f08c379a00000000000000000000000000000000000000000000000000000000081526004016112fd90614932565b60405180910390fd5b61130e61384e565b60006002600085815260200190815260200160002090506000600681111561133957611338613bd3565b5b8160080160009054906101000a900460ff16600681111561135d5761135c613bd3565b5b1461139d576040517f08c379a000000000000000000000000000000000000000000000000000000000815260040161139490614d01565b60405180910390fd5b806006015434146113e3576040517f08c379a00000000000000000000000000000000000000000000000000000000081526004016113da90614d6d565b60405180910390fd5b600073ffffffffffffffffffffffffffffffffffffffff168373ffffffffffffffffffffffffffffffffffffffff1603611452576040517f08c379a000000000000000000000000000000000000000000000000000000000815260040161144990614dd9565b60405180910390fd5b828160020160006101000a81548173ffffffffffffffffffffffffffffffffffffffff021916908373ffffffffffffffffffffffffffffffffffffffff16021790555034816007018190555060018160080160006101000a81548160ff021916908360068111156114c6576114c5613bd3565b5b02179055508273ffffffffffffffffffffffffffffffffffffffff16847fba05c38d28e2e6022a8f924642d334448e5d8af223b5ae9585baad3d0ce776ec346040516115129190613a89565b60405180910390a350611523613894565b505050565b806002600082815260200190815260200160002060010160009054906101000a900473ffffffffffffffffffffffffffffffffffffffff1673ffffffffffffffffffffffffffffffffffffffff163373ffffffffffffffffffffffffffffffffffffffff16146115cd576040517f08c379a00000000000000000000000000000000000000000000000000000000081526004016115c490614932565b60405180910390fd5b6115d561384e565b600060026000848152602001908152602001600020905060026006811115611600576115ff613bd3565b5b8160080160009054906101000a900460ff16600681111561162457611623613bd3565b5b14611664576040517f08c379a000000000000000000000000000000000000000000000000000000000815260040161165b90614e45565b60405180910390fd5b6000816007015490506000826007018190555060038260080160006101000a81548160ff0219169083600681111561169f5761169e613bd3565b5b021790555060008260020160009054906101000a900473ffffffffffffffffffffffffffffffffffffffff1673ffffffffffffffffffffffffffffffffffffffff16826040516116ee90614a1e565b60006040518083038185875af1925050503d806000811461172b576040519150601f19603f3d011682016040523d82523d6000602084013e611730565b606091505b5050905080611774576040517f08c379a000000000000000000000000000000000000000000000000000000000815260040161176b90614eb1565b60405180910390fd5b8260060154600560008560010160009054906101000a900473ffffffffffffffffffffffffffffffffffffffff1673ffffffffffffffffffffffffffffffffffffffff1673ffffffffffffffffffffffffffffffffffffffff16815260200190815260200160002060040160008282546117ee9190614ed1565b925050819055508260060154600560008560020160009054906101000a900473ffffffffffffffffffffffffffffffffffffffff1673ffffffffffffffffffffffffffffffffffffffff1673ffffffffffffffffffffffffffffffffffffffff168152602001908152602001600020600501600082825461186f9190614ed1565b92505081905550600560008460020160009054906101000a900473ffffffffffffffffffffffffffffffffffffffff1673ffffffffffffffffffffffffffffffffffffffff1673ffffffffffffffffffffffffffffffffffffffff16815260200190815260200160002060030185908060018154018082558091505060019003906000526020600020016000909190919091505560058360080160006101000a81548160ff0219169083600681111561192b5761192a613bd3565b5b0217905550847f72a8659d664e8c3afdc18cf46adfba3acd130a459e0658ed768a45b08c083620836040516119609190613a89565b60405180910390a2505050611973613894565b5050565b60076020528160005260406000206020528060005260406000206000915091509054906101000a900460ff1681565b606060008060608060606000600560008973ffffffffffffffffffffffffffffffffffffffff1673ffffffffffffffffffffffffffffffffffffffff16815260200190815260200160002090508060010181600401548260050154836002018460030185600601858054611a199061454b565b80601f0160208091040260200160405190810160405280929190818152602001828054611a459061454b565b8015611a925780601f10611a6757610100808354040283529160200191611a92565b820191906000526020600020905b815481529060010190602001808311611a7557829003601f168201915b5050505050955082805480602002602001604051908101604052809291908181526020018280548015611ae457602002820191906000526020600020905b815481526020019060010190808311611ad0575b5050505050925081805480602002602001604051908101604052809291908181526020018280548015611b3657602002820191906000526020600020905b815481526020019060010190808311611b22575b5050505050915080805480602002602001604051908101604052809291908181526020018280548015611b8857602002820191906000526020600020905b815481526020019060010190808311611b74575b505050505090509650965096509650965096505091939550919395565b60015481565b600560003373ffffffffffffffffffffffffffffffffffffffff1673ffffffffffffffffffffffffffffffffffffffff16815260200190815260200160002060000160009054906101000a900460ff1615611c3b576040517f08c379a0000000000000000000000000000000000000000000000000000000008152600401611c3290614f51565b60405180910390fd5b6040518060e00160405280600115158152602001604051806020016040528060008152508152602001600067ffffffffffffffff811115611c7f57611c7e614235565b5b604051908082528060200260200182016040528015611cad5781602001602082028036833780820191505090505b508152602001600067ffffffffffffffff811115611cce57611ccd614235565b5b604051908082528060200260200182016040528015611cfc5781602001602082028036833780820191505090505b5081526020016000815260200160008152602001600067ffffffffffffffff811115611d2b57611d2a614235565b5b604051908082528060200260200182016040528015611d595781602001602082028036833780820191505090505b50815250600560003373ffffffffffffffffffffffffffffffffffffffff1673ffffffffffffffffffffffffffffffffffffffff16815260200190815260200160002060008201518160000160006101000a81548160ff0219169083151502179055506020820151816001019081611dd19190614a9f565b506040820151816002019080519060200190611dee92919061389e565b506060820151816003019080519060200190611e0b92919061389e565b506080820151816004015560a0820151816005015560c0820151816006019080519060200190611e3c92919061389e565b509050503373ffffffffffffffffffffffffffffffffffffffff167f54db7a5cb4735e1aac1f53db512d3390390bb6637bd30ad4bf9fc98667d9b9b960405160405180910390a2565b611e8d61384e565b7f000000000000000000000000000000000000000000000000000000000000000073ffffffffffffffffffffffffffffffffffffffff163373ffffffffffffffffffffffffffffffffffffffff1614611f1b576040517f08c379a0000000000000000000000000000000000000000000000000000000008152600401611f1290614fbd565b60405180910390fd5b600060026000848152602001908152602001600020905060046006811115611f4657611f45613bd3565b5b8160080160009054906101000a900460ff166006811115611f6a57611f69613bd3565b5b14611faa576040517f08c379a0000000000000000000000000000000000000000000000000000000008152600401611fa190615029565b60405180910390fd5b6000816007015490506000826007018190555082156121a75760008260020160009054906101000a900473ffffffffffffffffffffffffffffffffffffffff1673ffffffffffffffffffffffffffffffffffffffff168260405161200d90614a1e565b60006040518083038185875af1925050503d806000811461204a576040519150601f19603f3d011682016040523d82523d6000602084013e61204f565b606091505b5050905080612093576040517f08c379a000000000000000000000000000000000000000000000000000000000815260040161208a90614eb1565b60405180910390fd5b8260060154600560008560020160009054906101000a900473ffffffffffffffffffffffffffffffffffffffff1673ffffffffffffffffffffffffffffffffffffffff1673ffffffffffffffffffffffffffffffffffffffff168152602001908152602001600020600501600082825461210d9190614ed1565b92505081905550600560008460020160009054906101000a900473ffffffffffffffffffffffffffffffffffffffff1673ffffffffffffffffffffffffffffffffffffffff1673ffffffffffffffffffffffffffffffffffffffff16815260200190815260200160002060030185908060018154018082558091505060019003906000526020600020016000909190919091505550612279565b60008260010160009054906101000a900473ffffffffffffffffffffffffffffffffffffffff1673ffffffffffffffffffffffffffffffffffffffff16826040516121f190614a1e565b60006040518083038185875af1925050503d806000811461222e576040519150601f19603f3d011682016040523d82523d6000602084013e612233565b606091505b5050905080612277576040517f08c379a000000000000000000000000000000000000000000000000000000000815260040161226e90615095565b60405180910390fd5b505b60058260080160006101000a81548160ff021916908360068111156122a1576122a0613bd3565b5b0217905550837f5a87909bff68caaaaf0b3fd9c74eeccc928832f879315e5c6fb7a73612f26c0c846040516122d69190613aec565b60405180910390a250506122e8613894565b5050565b6060600460008373ffffffffffffffffffffffffffffffffffffffff1673ffffffffffffffffffffffffffffffffffffffff16815260200190815260200160002080548060200260200160405190810160405280929190818152602001828054801561237757602002820191906000526020600020905b815481526020019060010190808311612363575b50505050509050919050565b7f000000000000000000000000000000000000000000000000000000000000000081565b6123af61384e565b6000600260008381526020019081526020016000209050600060068111156123da576123d9613bd3565b5b8160080160009054906101000a900460ff1660068111156123fe576123fd613bd3565b5b1461243e576040517f08c379a000000000000000000000000000000000000000000000000000000000815260040161243590614d01565b60405180910390fd5b6007600083815260200190815260200160002060003373ffffffffffffffffffffffffffffffffffffffff1673ffffffffffffffffffffffffffffffffffffffff16815260200190815260200160002060009054906101000a900460ff16156124dc576040517f08c379a00000000000000000000000000000000000000000000000000000000081526004016124d390615101565b60405180910390fd5b6000341161251f576040517f08c379a00000000000000000000000000000000000000000000000000000000081526004016125169061516d565b60405180910390fd5b6003600083815260200190815260200160002060405180604001604052803373ffffffffffffffffffffffffffffffffffffffff16815260200134815250908060018154018082558091505060019003906000526020600020906002020160009091909190915060008201518160000160006101000a81548173ffffffffffffffffffffffffffffffffffffffff021916908373ffffffffffffffffffffffffffffffffffffffff16021790555060208201518160010155505060016007600084815260200190815260200160002060003373ffffffffffffffffffffffffffffffffffffffff1673ffffffffffffffffffffffffffffffffffffffff16815260200190815260200160002060006101000a81548160ff021916908315150217905550346006600084815260200190815260200160002060003373ffffffffffffffffffffffffffffffffffffffff1673ffffffffffffffffffffffffffffffffffffffff16815260200190815260200160002081905550600560003373ffffffffffffffffffffffffffffffffffffffff1673ffffffffffffffffffffffffffffffffffffffff1681526020019081526020016000206006018290806001815401808255809150506001900390600052602060002001600090919091909150553373ffffffffffffffffffffffffffffffffffffffff16827f0e54eff26401bf69b81b26f60bd85ef47f5d85275c1d268d84f68d6897431c47346040516127479190613a89565b60405180910390a350612758613894565b50565b6060600080600190505b60015481116127df576004600681111561278257612781613bd3565b5b6002600083815260200190815260200160002060080160009054906101000a900460ff1660068111156127b8576127b7613bd3565b5b036127cc5781806127c890614617565b9250505b80806127d790614617565b915050612765565b5060008167ffffffffffffffff8111156127fc576127fb614235565b5b60405190808252806020026020018201604052801561283557816020015b6128226138eb565b81526020019060019003908161281a5790505b509050600080600190505b6001548111612bb2576004600681111561285d5761285c613bd3565b5b6002600083815260200190815260200160002060080160009054906101000a900460ff16600681111561289357612892613bd3565b5b03612b9f576002600082815260200190815260200160002060405180610120016040529081600082015481526020016001820160009054906101000a900473ffffffffffffffffffffffffffffffffffffffff1673ffffffffffffffffffffffffffffffffffffffff1673ffffffffffffffffffffffffffffffffffffffff1681526020016002820160009054906101000a900473ffffffffffffffffffffffffffffffffffffffff1673ffffffffffffffffffffffffffffffffffffffff1673ffffffffffffffffffffffffffffffffffffffff16815260200160038201805461297d9061454b565b80601f01602080910402602001604051908101604052809291908181526020018280546129a99061454b565b80156129f65780601f106129cb576101008083540402835291602001916129f6565b820191906000526020600020905b8154815290600101906020018083116129d957829003601f168201915b50505050508152602001600482018054612a0f9061454b565b80601f0160208091040260200160405190810160405280929190818152602001828054612a3b9061454b565b8015612a885780601f10612a5d57610100808354040283529160200191612a88565b820191906000526020600020905b815481529060010190602001808311612a6b57829003601f168201915b50505050508152602001600582018054612aa19061454b565b80601f0160208091040260200160405190810160405280929190818152602001828054612acd9061454b565b8015612b1a5780601f10612aef57610100808354040283529160200191612b1a565b820191906000526020600020905b815481529060010190602001808311612afd57829003601f168201915b5050505050815260200160068201548152602001600782015481526020016008820160009054906101000a900460ff166006811115612b5c57612b5b613bd3565b5b6006811115612b6e57612b6d613bd3565b5b81525050838381518110612b8557612b846149be565b5b60200260200101819052508180612b9b90614617565b9250505b8080612baa90614617565b915050612840565b5081935050505090565b60006002600083815260200190815260200160002090508060010160009054906101000a900473ffffffffffffffffffffffffffffffffffffffff1673ffffffffffffffffffffffffffffffffffffffff163373ffffffffffffffffffffffffffffffffffffffff161480612c8057508060020160009054906101000a900473ffffffffffffffffffffffffffffffffffffffff1673ffffffffffffffffffffffffffffffffffffffff163373ffffffffffffffffffffffffffffffffffffffff16145b612cbf576040517f08c379a0000000000000000000000000000000000000000000000000000000008152600401612cb6906151d9565b60405180910390fd5b60026006811115612cd357612cd2613bd3565b5b8160080160009054906101000a900460ff166006811115612cf757612cf6613bd3565b5b1480612d38575060016006811115612d1257612d11613bd3565b5b8160080160009054906101000a900460ff166006811115612d3657612d35613bd3565b5b145b612d77576040517f08c379a0000000000000000000000000000000000000000000000000000000008152600401612d6e90615245565b60405180910390fd5b60048160080160006101000a81548160ff02191690836006811115612d9f57612d9e613bd3565b5b0217905550817f04901f83201c8724eadf084436db8aa391820bae6d11f9f78a17edb6f2eef3cf60405160405180910390a25050565b60606000825167ffffffffffffffff811115612df457612df3614235565b5b604051908082528060200260200182016040528015612e2d57816020015b612e1a6138eb565b815260200190600190039081612e125790505b50905060005b835181101561315b5760026000858381518110612e5357612e526149be565b5b6020026020010151815260200190815260200160002060405180610120016040529081600082015481526020016001820160009054906101000a900473ffffffffffffffffffffffffffffffffffffffff1673ffffffffffffffffffffffffffffffffffffffff1673ffffffffffffffffffffffffffffffffffffffff1681526020016002820160009054906101000a900473ffffffffffffffffffffffffffffffffffffffff1673ffffffffffffffffffffffffffffffffffffffff1673ffffffffffffffffffffffffffffffffffffffff168152602001600382018054612f3b9061454b565b80601f0160208091040260200160405190810160405280929190818152602001828054612f679061454b565b8015612fb45780601f10612f8957610100808354040283529160200191612fb4565b820191906000526020600020905b815481529060010190602001808311612f9757829003601f168201915b50505050508152602001600482018054612fcd9061454b565b80601f0160208091040260200160405190810160405280929190818152602001828054612ff99061454b565b80156130465780601f1061301b57610100808354040283529160200191613046565b820191906000526020600020905b81548152906001019060200180831161302957829003601f168201915b5050505050815260200160058201805461305f9061454b565b80601f016020809104026020016040519081016040528092919081815260200182805461308b9061454b565b80156130d85780601f106130ad576101008083540402835291602001916130d8565b820191906000526020600020905b8154815290600101906020018083116130bb57829003601f168201915b5050505050815260200160068201548152602001600782015481526020016008820160009054906101000a900460ff16600681111561311a57613119613bd3565b5b600681111561312c5761312b613bd3565b5b81525050828281518110613143576131426149be565b5b60200260200101819052508080600101915050612e33565b5080915050919050565b606060036000838152602001908152602001600020805480602002602001604051908101604052809291908181526020016000905b8282101561322c57838290600052602060002090600202016040518060400160405290816000820160009054906101000a900473ffffffffffffffffffffffffffffffffffffffff1673ffffffffffffffffffffffffffffffffffffffff1673ffffffffffffffffffffffffffffffffffffffff1681526020016001820154815250508152602001906001019061319a565b505050509050919050565b6060600080600190505b60015481116132bb576000600681111561325e5761325d613bd3565b5b6002600083815260200190815260200160002060080160009054906101000a900460ff16600681111561329457613293613bd3565b5b036132a85781806132a490614617565b9250505b80806132b390614617565b915050613241565b5060008167ffffffffffffffff8111156132d8576132d7614235565b5b60405190808252806020026020018201604052801561331157816020015b6132fe6138eb565b8152602001906001900390816132f65790505b509050600080600190505b600154811161368e576000600681111561333957613338613bd3565b5b6002600083815260200190815260200160002060080160009054906101000a900460ff16600681111561336f5761336e613bd3565b5b0361367b576002600082815260200190815260200160002060405180610120016040529081600082015481526020016001820160009054906101000a900473ffffffffffffffffffffffffffffffffffffffff1673ffffffffffffffffffffffffffffffffffffffff1673ffffffffffffffffffffffffffffffffffffffff1681526020016002820160009054906101000a900473ffffffffffffffffffffffffffffffffffffffff1673ffffffffffffffffffffffffffffffffffffffff1673ffffffffffffffffffffffffffffffffffffffff1681526020016003820180546134599061454b565b80601f01602080910402602001604051908101604052809291908181526020018280546134859061454b565b80156134d25780601f106134a7576101008083540402835291602001916134d2565b820191906000526020600020905b8154815290600101906020018083116134b557829003601f168201915b505050505081526020016004820180546134eb9061454b565b80601f01602080910402602001604051908101604052809291908181526020018280546135179061454b565b80156135645780601f1061353957610100808354040283529160200191613564565b820191906000526020600020905b81548152906001019060200180831161354757829003601f168201915b5050505050815260200160058201805461357d9061454b565b80601f01602080910402602001604051908101604052809291908181526020018280546135a99061454b565b80156135f65780601f106135cb576101008083540402835291602001916135f6565b820191906000526020600020905b8154815290600101906020018083116135d957829003601f168201915b5050505050815260200160068201548152602001600782015481526020016008820160009054906101000a900460ff16600681111561363857613637613bd3565b5b600681111561364a57613649613bd3565b5b81525050838381518110613661576136606149be565b5b6020026020010181905250818061367790614617565b9250505b808061368690614617565b91505061331c565b5081935050505090565b826002600082815260200190815260200160002060020160009054906101000a900473ffffffffffffffffffffffffffffffffffffffff1673ffffffffffffffffffffffffffffffffffffffff163373ffffffffffffffffffffffffffffffffffffffff161461373d576040517f08c379a0000000000000000000000000000000000000000000000000000000008152600401613734906152b1565b60405180910390fd5b60006002600086815260200190815260200160002090506001600681111561376857613767613bd3565b5b8160080160009054906101000a900460ff16600681111561378c5761378b613bd3565b5b146137cc576040517f08c379a00000000000000000000000000000000000000000000000000000000081526004016137c39061531d565b60405180910390fd5b83838260050191826137df929190614816565b5060028160080160006101000a81548160ff0219169083600681111561380857613807613bd3565b5b0217905550847f3822c71b106c7c1dabf7f076e68c9bd98c45d0cd0d073f4dcdaf422a0fe55847858560405161383f929190615379565b60405180910390a25050505050565b60026000540361388a576040517f3ee5aeb500000000000000000000000000000000000000000000000000000000815260040160405180910390fd5b6002600081905550565b6001600081905550565b8280548282559060005260206000209081019282156138da579160200282015b828111156138d95782518255916020019190600101906138be565b5b5090506138e79190613975565b5090565b60405180610120016040528060008152602001600073ffffffffffffffffffffffffffffffffffffffff168152602001600073ffffffffffffffffffffffffffffffffffffffff16815260200160608152602001606081526020016060815260200160008152602001600081526020016000600681111561396f5761396e613bd3565b5b81525090565b5b8082111561398e576000816000905550600101613976565b5090565b6000604051905090565b600080fd5b600080fd5b6000819050919050565b6139b9816139a6565b81146139c457600080fd5b50565b6000813590506139d6816139b0565b92915050565b600073ffffffffffffffffffffffffffffffffffffffff82169050919050565b6000613a07826139dc565b9050919050565b613a17816139fc565b8114613a2257600080fd5b50565b600081359050613a3481613a0e565b92915050565b60008060408385031215613a5157613a5061399c565b5b6000613a5f858286016139c7565b9250506020613a7085828601613a25565b9150509250929050565b613a83816139a6565b82525050565b6000602082019050613a9e6000830184613a7a565b92915050565b600060208284031215613aba57613ab961399c565b5b6000613ac884828501613a25565b91505092915050565b60008115159050919050565b613ae681613ad1565b82525050565b6000602082019050613b016000830184613add565b92915050565b600060208284031215613b1d57613b1c61399c565b5b6000613b2b848285016139c7565b91505092915050565b613b3d816139fc565b82525050565b600081519050919050565b600082825260208201905092915050565b60005b83811015613b7d578082015181840152602081019050613b62565b60008484015250505050565b6000601f19601f8301169050919050565b6000613ba582613b43565b613baf8185613b4e565b9350613bbf818560208601613b5f565b613bc881613b89565b840191505092915050565b7f4e487b7100000000000000000000000000000000000000000000000000000000600052602160045260246000fd5b60078110613c1357613c12613bd3565b5b50565b6000819050613c2482613c02565b919050565b6000613c3482613c16565b9050919050565b613c4481613c29565b82525050565b600061012082019050613c60600083018c613a7a565b613c6d602083018b613b34565b613c7a604083018a613b34565b8181036060830152613c8c8189613b9a565b90508181036080830152613ca08188613b9a565b905081810360a0830152613cb48187613b9a565b9050613cc360c0830186613a7a565b613cd060e0830185613a7a565b613cde610100830184613c3b565b9a9950505050505050505050565b600080fd5b600080fd5b600080fd5b60008083601f840112613d1157613d10613cec565b5b8235905067ffffffffffffffff811115613d2e57613d2d613cf1565b5b602083019150836001820283011115613d4a57613d49613cf6565b5b9250929050565b600080600080600060608688031215613d6d57613d6c61399c565b5b600086013567ffffffffffffffff811115613d8b57613d8a6139a1565b5b613d9788828901613cfb565b95509550506020613daa888289016139c7565b935050604086013567ffffffffffffffff811115613dcb57613dca6139a1565b5b613dd788828901613cfb565b92509250509295509295909350565b6000608082019050613dfb6000830187613add565b8181036020830152613e0d8186613b9a565b9050613e1c6040830185613a7a565b613e296060830184613a7a565b95945050505050565b600081519050919050565b600082825260208201905092915050565b6000819050602082019050919050565b613e67816139a6565b82525050565b6000613e798383613e5e565b60208301905092915050565b6000602082019050919050565b6000613e9d82613e32565b613ea78185613e3d565b9350613eb283613e4e565b8060005b83811015613ee3578151613eca8882613e6d565b9750613ed583613e85565b925050600181019050613eb6565b5085935050505092915050565b600060c0820190508181036000830152613f0a8189613b9a565b9050613f196020830188613a7a565b613f266040830187613a7a565b8181036060830152613f388186613e92565b90508181036080830152613f4c8185613e92565b905081810360a0830152613f608184613e92565b9050979650505050505050565b613f7681613ad1565b8114613f8157600080fd5b50565b600081359050613f9381613f6d565b92915050565b60008060408385031215613fb057613faf61399c565b5b6000613fbe858286016139c7565b9250506020613fcf85828601613f84565b9150509250929050565b60006020820190508181036000830152613ff38184613e92565b905092915050565b60006020820190506140106000830184613b34565b92915050565b600081519050919050565b600082825260208201905092915050565b6000819050602082019050919050565b61404b816139fc565b82525050565b600082825260208201905092915050565b600061406d82613b43565b6140778185614051565b9350614087818560208601613b5f565b61409081613b89565b840191505092915050565b6140a481613c29565b82525050565b6000610120830160008301516140c36000860182613e5e565b5060208301516140d66020860182614042565b5060408301516140e96040860182614042565b50606083015184820360608601526141018282614062565b9150506080830151848203608086015261411b8282614062565b91505060a083015184820360a08601526141358282614062565b91505060c083015161414a60c0860182613e5e565b5060e083015161415d60e0860182613e5e565b5061010083015161417261010086018261409b565b508091505092915050565b600061418983836140aa565b905092915050565b6000602082019050919050565b60006141a982614016565b6141b38185614021565b9350836020820285016141c585614032565b8060005b8581101561420157848403895281516141e2858261417d565b94506141ed83614191565b925060208a019950506001810190506141c9565b50829750879550505050505092915050565b6000602082019050818103600083015261422d818461419e565b905092915050565b7f4e487b7100000000000000000000000000000000000000000000000000000000600052604160045260246000fd5b61426d82613b89565b810181811067ffffffffffffffff8211171561428c5761428b614235565b5b80604052505050565b600061429f613992565b90506142ab8282614264565b919050565b600067ffffffffffffffff8211156142cb576142ca614235565b5b602082029050602081019050919050565b60006142ef6142ea846142b0565b614295565b9050808382526020820190506020840283018581111561431257614311613cf6565b5b835b8181101561433b578061432788826139c7565b845260208401935050602081019050614314565b5050509392505050565b600082601f83011261435a57614359613cec565b5b813561436a8482602086016142dc565b91505092915050565b6000602082840312156143895761438861399c565b5b600082013567ffffffffffffffff8111156143a7576143a66139a1565b5b6143b384828501614345565b91505092915050565b600081519050919050565b600082825260208201905092915050565b6000819050602082019050919050565b6040820160008201516143fe6000850182614042565b5060208201516144116020850182613e5e565b50505050565b600061442383836143e8565b60408301905092915050565b6000602082019050919050565b6000614447826143bc565b61445181856143c7565b935061445c836143d8565b8060005b8381101561448d5781516144748882614417565b975061447f8361442f565b925050600181019050614460565b5085935050505092915050565b600060208201905081810360008301526144b4818461443c565b905092915050565b6000806000604084860312156144d5576144d461399c565b5b60006144e3868287016139c7565b935050602084013567ffffffffffffffff811115614504576145036139a1565b5b61451086828701613cfb565b92509250509250925092565b7f4e487b7100000000000000000000000000000000000000000000000000000000600052602260045260246000fd5b6000600282049050600182168061456357607f821691505b6020821081036145765761457561451c565b5b50919050565b7f427564676574206d757374206265203e20300000000000000000000000000000600082015250565b60006145b2601283613b4e565b91506145bd8261457c565b602082019050919050565b600060208201905081810360008301526145e1816145a5565b9050919050565b7f4e487b7100000000000000000000000000000000000000000000000000000000600052601160045260246000fd5b6000614622826139a6565b91507fffffffffffffffffffffffffffffffffffffffffffffffffffffffffffffffff8203614654576146536145e8565b5b600182019050919050565b600082905092915050565b60008190508160005260206000209050919050565b60006020601f8301049050919050565b600082821b905092915050565b6000600883026146cc7fffffffffffffffffffffffffffffffffffffffffffffffffffffffffffffffff8261468f565b6146d6868361468f565b95508019841693508086168417925050509392505050565b6000819050919050565b600061471361470e614709846139a6565b6146ee565b6139a6565b9050919050565b6000819050919050565b61472d836146f8565b6147416147398261471a565b84845461469c565b825550505050565b600090565b614756614749565b614761818484614724565b505050565b5b818110156147855761477a60008261474e565b600181019050614767565b5050565b601f8211156147ca5761479b8161466a565b6147a48461467f565b810160208510156147b3578190505b6147c76147bf8561467f565b830182614766565b50505b505050565b600082821c905092915050565b60006147ed600019846008026147cf565b1980831691505092915050565b600061480683836147dc565b9150826002028217905092915050565b614820838361465f565b67ffffffffffffffff81111561483957614838614235565b5b614843825461454b565b61484e828285614789565b6000601f83116001811461487d576000841561486b578287013590505b61487585826147fa565b8655506148dd565b601f19841661488b8661466a565b60005b828110156148b35784890135825560018201915060208501945060208101905061488e565b868310156148d057848901356148cc601f8916826147dc565b8355505b6001600288020188555050505b50505050505050565b7f4e6f74206a6f62206f776e657200000000000000000000000000000000000000600082015250565b600061491c600d83613b4e565b9150614927826148e6565b602082019050919050565b6000602082019050818103600083015261494b8161490f565b9050919050565b7f4a6f6220616c726561647920696e2070726f6772657373000000000000000000600082015250565b6000614988601783613b4e565b915061499382614952565b602082019050919050565b600060208201905081810360008301526149b78161497b565b9050919050565b7f4e487b7100000000000000000000000000000000000000000000000000000000600052603260045260246000fd5b600081905092915050565b50565b6000614a086000836149ed565b9150614a13826149f8565b600082019050919050565b6000614a29826149fb565b9150819050919050565b7f42696420726566756e64206661696c6564000000000000000000000000000000600082015250565b6000614a69601183613b4e565b9150614a7482614a33565b602082019050919050565b60006020820190508181036000830152614a9881614a5c565b9050919050565b614aa882613b43565b67ffffffffffffffff811115614ac157614ac0614235565b5b614acb825461454b565b614ad6828285614789565b600060209050601f831160018114614b095760008415614af7578287015190505b614b0185826147fa565b865550614b69565b601f198416614b178661466a565b60005b82811015614b3f57848901518255600182019150602085019450602081019050614b1a565b86831015614b5c5784890151614b58601f8916826147dc565b8355505b6001600288020188555050505b505050505050565b7f596f7520646964206e6f7420626964206f6e2074686973206a6f620000000000600082015250565b6000614ba7601b83613b4e565b9150614bb282614b71565b602082019050919050565b60006020820190508181036000830152614bd681614b9a565b9050919050565b7f57696e6e65722063616e6e6f7420776974686472617700000000000000000000600082015250565b6000614c13601683613b4e565b9150614c1e82614bdd565b602082019050919050565b60006020820190508181036000830152614c4281614c06565b9050919050565b7f4e6f2066756e647320746f207769746864726177000000000000000000000000600082015250565b6000614c7f601483613b4e565b9150614c8a82614c49565b602082019050919050565b60006020820190508181036000830152614cae81614c72565b9050919050565b7f4a6f62206e6f74206f70656e0000000000000000000000000000000000000000600082015250565b6000614ceb600c83613b4e565b9150614cf682614cb5565b602082019050919050565b60006020820190508181036000830152614d1a81614cde565b9050919050565b7f53656e642066756c6c2062756467657400000000000000000000000000000000600082015250565b6000614d57601083613b4e565b9150614d6282614d21565b602082019050919050565b60006020820190508181036000830152614d8681614d4a565b9050919050565b7f42616420667265656c616e636572000000000000000000000000000000000000600082015250565b6000614dc3600e83613b4e565b9150614dce82614d8d565b602082019050919050565b60006020820190508181036000830152614df281614db6565b9050919050565b7f576f726b206e6f74207375626d69747465640000000000000000000000000000600082015250565b6000614e2f601283613b4e565b9150614e3a82614df9565b602082019050919050565b60006020820190508181036000830152614e5e81614e22565b9050919050565b7f5472616e73666572206661696c65640000000000000000000000000000000000600082015250565b6000614e9b600f83613b4e565b9150614ea682614e65565b602082019050919050565b60006020820190508181036000830152614eca81614e8e565b9050919050565b6000614edc826139a6565b9150614ee7836139a6565b9250828201905080821115614eff57614efe6145e8565b5b92915050565b7f416c726561647920726567697374657265640000000000000000000000000000600082015250565b6000614f3b601283613b4e565b9150614f4682614f05565b602082019050919050565b60006020820190508181036000830152614f6a81614f2e565b9050919050565b7f4f6e6c7920636f6e7472616374206f776e6572202864656d6f29000000000000600082015250565b6000614fa7601a83613b4e565b9150614fb282614f71565b602082019050919050565b60006020820190508181036000830152614fd681614f9a565b9050919050565b7f4e6f206469737075746500000000000000000000000000000000000000000000600082015250565b6000615013600a83613b4e565b915061501e82614fdd565b602082019050919050565b6000602082019050818103600083015261504281615006565b9050919050565b7f526566756e64206661696c656400000000000000000000000000000000000000600082015250565b600061507f600d83613b4e565b915061508a82615049565b602082019050919050565b600060208201905081810360008301526150ae81615072565b9050919050565b7f416c726561647920706c61636564206120626964000000000000000000000000600082015250565b60006150eb601483613b4e565b91506150f6826150b5565b602082019050919050565b6000602082019050818103600083015261511a816150de565b9050919050565b7f426964206d7573742062652067726561746572207468616e2030000000000000600082015250565b6000615157601a83613b4e565b915061516282615121565b602082019050919050565b600060208201905081810360008301526151868161514a565b9050919050565b7f4f6e6c7920696e766f6c76656420706172746965730000000000000000000000600082015250565b60006151c3601583613b4e565b91506151ce8261518d565b602082019050919050565b600060208201905081810360008301526151f2816151b6565b9050919050565b7f43616e6e6f742064697370757465000000000000000000000000000000000000600082015250565b600061522f600e83613b4e565b915061523a826151f9565b602082019050919050565b6000602082019050818103600083015261525e81615222565b9050919050565b7f4e6f7420686972656420667265656c616e636572000000000000000000000000600082015250565b600061529b601483613b4e565b91506152a682615265565b602082019050919050565b600060208201905081810360008301526152ca8161528e565b9050919050565b7f57726f6e67207374617475730000000000000000000000000000000000000000600082015250565b6000615307600c83613b4e565b9150615312826152d1565b602082019050919050565b60006020820190508181036000830152615336816152fa565b9050919050565b82818337600083830152505050565b60006153588385613b4e565b935061536583858461533d565b61536e83613b89565b840190509392505050565b6000602082019050818103600083015261539481848661534c565b9050939250505056fea2646970667358221220bfd0afdee94119803425dd7bfec6f28d23b9a523dd2db69f3db01976c20116cd64736f6c634300081c0033",
  "linkReferences": {},
  "deployedLinkReferences": {}
}