{
  "_format": "hh-sol-artifact-1",
  "contractName": "FreelanceEscrow",
  "sourceName": "contracts/FreelanceEscrow.sol",
  "abi": [
    {
      "inputs": [],
      "stateMutability": "nonpayable",
      "type": "constructor"
    },
    {
      "inputs": [],
      "name": "ReentrancyGuardReentrantCall",
      "type": "error"
    },
    {
      "anonymous": false,
      "inputs": [
        {
          "indexed": true,
          "internalType": "uint256",
          "name": "id",
          "type": "uint256"
        },
        {
          "indexed": true,
          "internalType": "address",
          "name": "freelancer",
          "type": "address"
        },
        {
          "indexed": false,
          "internalType": "uint256",
          "name": "amount",
          "type": "uint256"
        }
      ],
      "name": "BidPlaced",
      "type": "event"
    },
    {
      "anonymous": false,
      "inputs": [
        {
          "indexed": true,
          "internalType": "uint256",
          "name": "jobId",
          "type": "uint256"
        },
        {
          "indexed": true,
          "internalType": "address",
          "name": "bidder",
          "type": "address"
        },
        {
          "indexed": false,
          "internalType": "uint256",
          "name": "amount",
          "type": "uint256"
        }
      ],
      "name": "BidRefunded",
      "type": "event"
    },
    {
      "anonymous": false,
      "inputs": [
        {
          "indexed": true,
          "internalType": "uint256",
          "name": "id",
          "type": "uint256"
        }
      ],
      "name": "DisputeRaised",
      "type": "event"
    },
    {
      "anonymous": false,
      "inputs": [
        {
          "indexed": true,
          "internalType": "uint256",
          "name": "id",
          "type": "uint256"
        },
        {
          "indexed": false,
          "internalType": "bool",
          "name": "releasedToFreelancer",
          "type": "bool"
        }
      ],
      "name": "DisputeResolved",
      "type": "event"
    },
    {
      "anonymous": false,
      "inputs": [
        {
          "indexed": true,
          "internalType": "uint256",
          "name": "id",
          "type": "uint256"
        },
        {
          "indexed": true,
          "internalType": "address",
          "name": "freelancer",
          "type": "address"
        },
        {
          "indexed": false,
          "internalType": "uint256",
          "name": "escrow",
          "type": "uint256"
        }
      ],
      "name": "FreelancerSelected",
      "type": "event"
    },
    {
      "anonymous": false,
      "inputs": [
        {
          "indexed": true,
          "internalType": "uint256",
          "name": "id",
          "type": "uint256"
        },
        {
          "indexed": false,
          "internalType": "uint256",
          "name": "payout",
          "type": "uint256"
        }
      ],
      "name": "JobApproved",
      "type": "event"
    },
    {
      "anonymous": false,
      "inputs": [
        {
          "indexed": true,
          "internalType": "uint256",
          "name": "id",
          "type": "uint256"
        }
      ],
      "name": "JobCancelled",
      "type": "event"
    },
    {
      "anonymous": false,
      "inputs": [
        {
          "indexed": true,
          "internalType": "uint256",
          "name": "id",
          "type": "uint256"
        },
        {
          "indexed": true,
          "internalType": "address",
          "name": "client",
          "type": "address"
        },
        {
          "indexed": false,
          "internalType": "uint256",
          "name": "budget",
          "type": "uint256"
        }
      ],
      "name": "JobCreated",
      "type": "event"
    },
    {
      "anonymous": false,
      "inputs": [
        {
          "indexed": true,
          "internalType": "address",
          "name": "user",
          "type": "address"
        }
      ],
      "name": "UserRegistered",
      "type": "event"
    },
    {
      "anonymous": false,
      "inputs": [
        {
          "indexed": true,
          "internalType": "uint256",
          "name": "id",
          "type": "uint256"
        },
        {
          "indexed": false,
          "internalType": "string",
          "name": "submissionCID",
          "type": "string"
        }
      ],
      "name": "WorkSubmitted",
      "type": "event"
    },
    {
      "inputs": [
        {
          "internalType": "uint256",
          "name": "id",
          "type": "uint256"
        }
      ],
      "name": "approveWork",
      "outputs": [],
      "stateMutability": "nonpayable",
      "type": "function"
    },
    {
      "inputs": [
        {
          "internalType": "uint256",
          "name": "",
          "type": "uint256"
        },
        {
          "internalType": "address",
          "name": "",
          "type": "address"
        }
      ],
      "name": "bidAmounts",
      "outputs": [
        {
          "internalType": "uint256",
          "name": "",
          "type": "uint256"
        }
      ],
      "stateMutability": "view",
      "type": "function"
    },
    {
      "inputs": [
        {
          "internalType": "uint256",
          "name": "id",
          "type": "uint256"
        }
      ],
      "name": "cancelJob",
      "outputs": [],
      "stateMutability": "nonpayable",
      "type": "function"
    },
    {
      "inputs": [
        {
          "internalType": "string",
          "name": "_title",
          "type": "string"
        },
        {
          "internalType": "uint256",
          "name": "_budget",
          "type": "uint256"
        },
        {
          "internalType": "string",
          "name": "_specCID",
          "type": "string"
        }
      ],
      "name": "createJob",
      "outputs": [],
      "stateMutability": "nonpayable",
      "type": "function"
    },
    {
      "inputs": [
        {
          "internalType": "address",
          "name": "user",
          "type": "address"
        }
      ],
      "name": "getFullUserProfile",
      "outputs": [
        {
          "internalType": "string",
          "name": "profileCID",
          "type": "string"
        },
        {
          "internalType": "uint256",
          "name": "totalSpent",
          "type": "uint256"
        },
        {
          "internalType": "uint256",
          "name": "totalEarned",
          "type": "uint256"
        },
        {
          "internalType": "uint256[]",
          "name": "jobsPosted",
          "type": "uint256[]"
        },
        {
          "internalType": "uint256[]",
          "name": "jobsCompleted",
          "type": "uint256[]"
        },
        {
          "internalType": "uint256[]",
          "name": "jobsBidOn",
          "type": "uint256[]"
        }
      ],
      "stateMutability": "view",
      "type": "function"
    },
    {
      "inputs": [
        {
          "internalType": "uint256[]",
          "name": "ids",
          "type": "uint256[]"
        }
      ],
      "name": "getJobsByIds",
      "outputs": [
        {
          "components": [
            {
              "internalType": "uint256",
              "name": "jobId",
              "type": "uint256"
            },
            {
              "internalType": "address",
              "name": "client",
              "type": "address"
            },
            {
              "internalType": "address",
              "name": "freelancer",
              "type": "address"
            },
            {
              "internalType": "string",
              "name": "title",
              "type": "string"
            },
            {
              "internalType": "string",
              "name": "specCID",
              "type": "string"
            },
            {
              "internalType": "string",
              "name": "submissionCID",
              "type": "string"
            },
            {
              "internalType": "uint256",
              "name": "budget",
              "type": "uint256"
            },
            {
              "internalType": "uint256",
              "name": "escrow",
              "type": "uint256"
            },
            {
              "internalType": "enum FreelanceEscrow.JobStatus",
              "name": "status",
              "type": "uint8"
            }
          ],
          "internalType": "struct FreelanceEscrow.Job[]",
          "name": "",
          "type": "tuple[]"
        }
      ],
      "stateMutability": "view",
      "type": "function"
    },
    {
      "inputs": [
        {
          "internalType": "uint256",
          "name": "",
          "type": "uint256"
        },
        {
          "internalType": "address",
          "name": "",
          "type": "address"
        }
      ],
      "name": "hasBid",
      "outputs": [
        {
          "internalType": "bool",
          "name": "",
          "type": "bool"
        }
      ],
      "stateMutability": "view",
      "type": "function"
    },
    {
      "inputs": [
        {
          "internalType": "address",
          "name": "user",
          "type": "address"
        }
      ],
      "name": "isUserRegistered",
      "outputs": [
        {
          "internalType": "bool",
          "name": "",
          "type": "bool"
        }
      ],
      "stateMutability": "view",
      "type": "function"
    },
    {
      "inputs": [],
      "name": "jobCount",
      "outputs": [
        {
          "internalType": "uint256",
          "name": "",
          "type": "uint256"
        }
      ],
      "stateMutability": "view",
      "type": "function"
    },
    {
      "inputs": [
        {
          "internalType": "uint256",
          "name": "",
          "type": "uint256"
        }
      ],
      "name": "jobs",
      "outputs": [
        {
          "internalType": "uint256",
          "name": "jobId",
          "type": "uint256"
        },
        {
          "internalType": "address",
          "name": "client",
          "type": "address"
        },
        {
          "internalType": "address",
          "name": "freelancer",
          "type": "address"
        },
        {
          "internalType": "string",
          "name": "title",
          "type": "string"
        },
        {
          "internalType": "string",
          "name": "specCID",
          "type": "string"
        },
        {
          "internalType": "string",
          "name": "submissionCID",
          "type": "string"
        },
        {
          "internalType": "uint256",
          "name": "budget",
          "type": "uint256"
        },
        {
          "internalType": "uint256",
          "name": "escrow",
          "type": "uint256"
        },
        {
          "internalType": "enum FreelanceEscrow.JobStatus",
          "name": "status",
          "type": "uint8"
        }
      ],
      "stateMutability": "view",
      "type": "function"
    },
    {
      "inputs": [
        {
          "internalType": "address",
          "name": "user",
          "type": "address"
        }
      ],
      "name": "jobsOf",
      "outputs": [
        {
          "internalType": "uint256[]",
          "name": "",
          "type": "uint256[]"
        }
      ],
      "stateMutability": "view",
      "type": "function"
    },
    {
      "inputs": [
        {
          "internalType": "uint256",
          "name": "id",
          "type": "uint256"
        }
      ],
      "name": "listBids",
      "outputs": [
        {
          "components": [
            {
              "internalType": "address",
              "name": "bidder",
              "type": "address"
            },
            {
              "internalType": "uint256",
              "name": "amount",
              "type": "uint256"
            }
          ],
          "internalType": "struct FreelanceEscrow.Bid[]",
          "name": "",
          "type": "tuple[]"
        }
      ],
      "stateMutability": "view",
      "type": "function"
    },
    {
      "inputs": [],
      "name": "listOpenJobs",
      "outputs": [
        {
          "components": [
            {
              "internalType": "uint256",
              "name": "jobId",
              "type": "uint256"
            },
            {
              "internalType": "address",
              "name": "client",
              "type": "address"
            },
            {
              "internalType": "address",
              "name": "freelancer",
              "type": "address"
            },
            {
              "internalType": "string",
              "name": "title",
              "type": "string"
            },
            {
              "internalType": "string",
              "name": "specCID",
              "type": "string"
            },
            {
              "internalType": "string",
              "name": "submissionCID",
              "type": "string"
            },
            {
              "internalType": "uint256",
              "name": "budget",
              "type": "uint256"
            },
            {
              "internalType": "uint256",
              "name": "escrow",
              "type": "uint256"
            },
            {
              "internalType": "enum FreelanceEscrow.JobStatus",
              "name": "status",
              "type": "uint8"
            }
          ],
          "internalType": "struct FreelanceEscrow.Job[]",
          "name": "",
          "type": "tuple[]"
        }
      ],
      "stateMutability": "view",
      "type": "function"
    },
    {
      "inputs": [],
      "name": "owner",
      "outputs": [
        {
          "internalType": "address",
          "name": "",
          "type": "address"
        }
      ],
      "stateMutability": "view",
      "type": "function"
    },
    {
      "inputs": [
        {
          "internalType": "uint256",
          "name": "id",
          "type": "uint256"
        },
        {
          "internalType": "bool",
          "name": "releaseToFreelancer",
          "type": "bool"
        }
      ],
      "name": "ownerResolveDispute",
      "outputs": [],
      "stateMutability": "nonpayable",
      "type": "function"
    },
    {
      "inputs": [
        {
          "internalType": "uint256",
          "name": "jobId",
          "type": "uint256"
        }
      ],
      "name": "placeBid",
      "outputs": [],
      "stateMutability": "payable",
      "type": "function"
    },
    {
      "inputs": [
        {
          "internalType": "uint256",
          "name": "id",
          "type": "uint256"
        }
      ],
      "name": "raiseDispute",
      "outputs": [],
      "stateMutability": "nonpayable",
      "type": "function"
    },
    {
      "inputs": [
        {
          "internalType": "uint256",
          "name": "jobId",
          "type": "uint256"
        }
      ],
      "name": "refundBid",
      "outputs": [],
      "stateMutability": "nonpayable",
      "type": "function"
    },
    {
      "inputs": [],
      "name": "registerUser",
      "outputs": [],
      "stateMutability": "nonpayable",
      "type": "function"
    },
    {
      "inputs": [
        {
          "internalType": "uint256",
          "name": "id",
          "type": "uint256"
        },
        {
          "internalType": "address",
          "name": "_freelancer",
          "type": "address"
        }
      ],
      "name": "selectFreelancer",
      "outputs": [],
      "stateMutability": "payable",
      "type": "function"
    },
    {
      "inputs": [
        {
          "internalType": "uint256",
          "name": "id",
          "type": "uint256"
        },
        {
          "internalType": "string",
          "name": "_submissionCID",
          "type": "string"
        }
      ],
      "name": "submitWork",
      "outputs": [],
      "stateMutability": "nonpayable",
      "type": "function"
    },
    {
      "inputs": [
        {
          "internalType": "address",
          "name": "",
          "type": "address"
        }
      ],
      "name": "userProfiles",
      "outputs": [
        {
          "internalType": "bool",
          "name": "isRegistered",
          "type": "bool"
        },
        {
          "internalType": "string",
          "name": "profileCID",
          "type": "string"
        },
        {
          "internalType": "uint256",
          "name": "totalSpent",
          "type": "uint256"
        },
        {
          "internalType": "uint256",
          "name": "totalEarned",
          "type": "uint256"
        }
      ],
      "stateMutability": "view",
      "type": "function"
    }
  ],
  "bytecode": "0x60a0604052348015600f57600080fd5b5060016000819055503373ffffffffffffffffffffffffffffffffffffffff1660808173ffffffffffffffffffffffffffffffffffffffff16815250506000600181905550608051614f3c61007660003960008181611e59015261234f0152614f3c6000f3fe6080604052600436106101355760003560e01c80634c5d8a0f116100ab5780639979ef451161006f5780639979ef451461044b578063a5c1674e14610467578063af405bfe14610490578063b193aee0146104cd578063b29fed271461050a578063da8accf91461053557610135565b80634c5d8a0f146103785780634d3820eb146103a357806360ec218d146103ba5780636373d2ea146103e35780638da5cb5b1461042057610135565b806326d29ce0116100fd57806326d29ce01461024b578063332d56d714610274578063380deabc146102b45780633d01e0fa146102d0578063449e8812146102f957806346cf7c561461033657610135565b806304abfae61461013a578063163f752214610177578063180aedf3146101b457806319eb5ae4146101f95780631dffa3dc14610222575b600080fd5b34801561014657600080fd5b50610161600480360381019061015c91906135a3565b61055e565b60405161016e91906135f2565b60405180910390f35b34801561018357600080fd5b5061019e6004803603810190610199919061360d565b610583565b6040516101ab9190613655565b60405180910390f35b3480156101c057600080fd5b506101db60048036038101906101d69190613670565b6105dc565b6040516101f0999897969594939291906137b3565b60405180910390f35b34801561020557600080fd5b50610220600480360381019061021b91906138ba565b61080f565b005b34801561022e57600080fd5b5061024960048036038101906102449190613670565b610a59565b005b34801561025757600080fd5b50610272600480360381019061026d9190613670565b610de3565b005b34801561028057600080fd5b5061029b6004803603810190610296919061360d565b611166565b6040516102ab949392919061394f565b60405180910390f35b6102ce60048036038101906102c991906135a3565b61122b565b005b3480156102dc57600080fd5b506102f760048036038101906102f29190613670565b6114f2565b005b34801561030557600080fd5b50610320600480360381019061031b91906135a3565b611941565b60405161032d9190613655565b60405180910390f35b34801561034257600080fd5b5061035d6004803603810190610358919061360d565b611970565b60405161036f96959493929190613a59565b60405180910390f35b34801561038457600080fd5b5061038d611b6f565b60405161039a91906135f2565b60405180910390f35b3480156103af57600080fd5b506103b8611b75565b005b3480156103c657600080fd5b506103e160048036038101906103dc9190613b02565b611e4f565b005b3480156103ef57600080fd5b5061040a6004803603810190610405919061360d565b6122b6565b6040516104179190613b42565b60405180910390f35b34801561042c57600080fd5b5061043561234d565b6040516104429190613b64565b60405180910390f35b61046560048036038101906104609190613670565b612371565b005b34801561047357600080fd5b5061048e60048036038101906104899190613670565b612725565b005b34801561049c57600080fd5b506104b760048036038101906104b29190613cbd565b61293e565b6040516104c49190613f03565b60405180910390f35b3480156104d957600080fd5b506104f460048036038101906104ef9190613670565b612cce565b6040516105019190614003565b60405180910390f35b34801561051657600080fd5b5061051f612da0565b60405161052c9190613f03565b60405180910390f35b34801561054157600080fd5b5061055c60048036038101906105579190614025565b613201565b005b6006602052816000526040600020602052806000526040600020600091509150505481565b6000600560008373ffffffffffffffffffffffffffffffffffffffff1673ffffffffffffffffffffffffffffffffffffffff16815260200190815260200160002060000160009054906101000a900460ff169050919050565b60026020528060005260406000206000915090508060000154908060010160009054906101000a900473ffffffffffffffffffffffffffffffffffffffff16908060020160009054906101000a900473ffffffffffffffffffffffffffffffffffffffff1690806003018054610651906140b4565b80601f016020809104026020016040519081016040528092919081815260200182805461067d906140b4565b80156106ca5780601f1061069f576101008083540402835291602001916106ca565b820191906000526020600020905b8154815290600101906020018083116106ad57829003601f168201915b5050505050908060040180546106df906140b4565b80601f016020809104026020016040519081016040528092919081815260200182805461070b906140b4565b80156107585780601f1061072d57610100808354040283529160200191610758565b820191906000526020600020905b81548152906001019060200180831161073b57829003601f168201915b50505050509080600501805461076d906140b4565b80601f0160208091040260200160405190810160405280929190818152602001828054610799906140b4565b80156107e65780601f106107bb576101008083540402835291602001916107e6565b820191906000526020600020905b8154815290600101906020018083116107c957829003601f168201915b5050505050908060060154908060070154908060080160009054906101000a900460ff16905089565b60008311610852576040517f08c379a000000000000000000000000000000000000000000000000000000000815260040161084990614131565b60405180910390fd5b60016000815461086190614180565b91905081905550600060026000600154815260200190815260200160002090506001548160000181905550338160010160006101000a81548173ffffffffffffffffffffffffffffffffffffffff021916908373ffffffffffffffffffffffffffffffffffffffff16021790555085858260030191826108e292919061437f565b5082828260040191826108f692919061437f565b5083816006018190555060008160080160006101000a81548160ff021916908360068111156109285761092761373c565b5b0217905550600560003373ffffffffffffffffffffffffffffffffffffffff1673ffffffffffffffffffffffffffffffffffffffff1681526020019081526020016000206002016001549080600181540180825580915050600190039060005260206000200160009091909190915055600460003373ffffffffffffffffffffffffffffffffffffffff1673ffffffffffffffffffffffffffffffffffffffff16815260200190815260200160002060015490806001815401808255809150506001900390600052602060002001600090919091909150553373ffffffffffffffffffffffffffffffffffffffff166001547f8678ba2d99dba901dafc51009f8d402d37a5a0275752cf0e263b827aeca906f286604051610a4991906135f2565b60405180910390a3505050505050565b806002600082815260200190815260200160002060010160009054906101000a900473ffffffffffffffffffffffffffffffffffffffff1673ffffffffffffffffffffffffffffffffffffffff163373ffffffffffffffffffffffffffffffffffffffff1614610afe576040517f08c379a0000000000000000000000000000000000000000000000000000000008152600401610af59061449b565b60405180910390fd5b610b066133b7565b600060026000848152602001908152602001600020905060006006811115610b3157610b3061373c565b5b8160080160009054906101000a900460ff166006811115610b5557610b5461373c565b5b14610b95576040517f08c379a0000000000000000000000000000000000000000000000000000000008152600401610b8c90614507565b60405180910390fd5b600060036000858152602001908152602001600020905060005b8180549050811015610d0b576000828281548110610bd057610bcf614527565b5b9060005260206000209060020201600101541115610cfe576000828281548110610bfd57610bfc614527565b5b906000526020600020906002020160000160009054906101000a900473ffffffffffffffffffffffffffffffffffffffff1673ffffffffffffffffffffffffffffffffffffffff16838381548110610c5857610c57614527565b5b906000526020600020906002020160010154604051610c7690614587565b60006040518083038185875af1925050503d8060008114610cb3576040519150601f19603f3d011682016040523d82523d6000602084013e610cb8565b606091505b5050905080610cfc576040517f08c379a0000000000000000000000000000000000000000000000000000000008152600401610cf3906145e8565b60405180910390fd5b505b8080600101915050610baf565b5060068260080160006101000a81548160ff02191690836006811115610d3457610d3361373c565b5b021790555060008260020160006101000a81548173ffffffffffffffffffffffffffffffffffffffff021916908373ffffffffffffffffffffffffffffffffffffffff1602179055506000826007018190555060405180602001604052806000815250826005019081610da79190614608565b50837f58243f872c550ad02802199ade99eb4250f6bb19e9abbf2d3de7b969c0eb5e4f60405160405180910390a25050610ddf6133fd565b5050565b610deb6133b7565b6007600082815260200190815260200160002060003373ffffffffffffffffffffffffffffffffffffffff1673ffffffffffffffffffffffffffffffffffffffff16815260200190815260200160002060009054906101000a900460ff16610e88576040517f08c379a0000000000000000000000000000000000000000000000000000000008152600401610e7f90614726565b60405180910390fd5b3373ffffffffffffffffffffffffffffffffffffffff166002600083815260200190815260200160002060020160009054906101000a900473ffffffffffffffffffffffffffffffffffffffff1673ffffffffffffffffffffffffffffffffffffffff1603610f2c576040517f08c379a0000000000000000000000000000000000000000000000000000000008152600401610f2390614792565b60405180910390fd5b60006006600083815260200190815260200160002060003373ffffffffffffffffffffffffffffffffffffffff1673ffffffffffffffffffffffffffffffffffffffff16815260200190815260200160002054905060008111610fc4576040517f08c379a0000000000000000000000000000000000000000000000000000000008152600401610fbb906147fe565b60405180910390fd5b60005b60036000848152602001908152602001600020805490508110156110bc573373ffffffffffffffffffffffffffffffffffffffff1660036000858152602001908152602001600020828154811061102157611020614527565b5b906000526020600020906002020160000160009054906101000a900473ffffffffffffffffffffffffffffffffffffffff1673ffffffffffffffffffffffffffffffffffffffff16036110af57600060036000858152602001908152602001600020828154811061109557611094614527565b5b9060005260206000209060020201600101819055506110bc565b8080600101915050610fc7565b5060006006600084815260200190815260200160002060003373ffffffffffffffffffffffffffffffffffffffff1673ffffffffffffffffffffffffffffffffffffffff168152602001908152602001600020819055503373ffffffffffffffffffffffffffffffffffffffff166108fc829081150290604051600060405180830381858888f19350505050158015611159573d6000803e3d6000fd5b50506111636133fd565b50565b60056020528060005260406000206000915090508060000160009054906101000a900460ff169080600101805461119c906140b4565b80601f01602080910402602001604051908101604052809291908181526020018280546111c8906140b4565b80156112155780601f106111ea57610100808354040283529160200191611215565b820191906000526020600020905b8154815290600101906020018083116111f857829003601f168201915b5050505050908060040154908060050154905084565b816002600082815260200190815260200160002060010160009054906101000a900473ffffffffffffffffffffffffffffffffffffffff1673ffffffffffffffffffffffffffffffffffffffff163373ffffffffffffffffffffffffffffffffffffffff16146112d0576040517f08c379a00000000000000000000000000000000000000000000000000000000081526004016112c79061449b565b60405180910390fd5b6112d86133b7565b6000600260008581526020019081526020016000209050600060068111156113035761130261373c565b5b8160080160009054906101000a900460ff1660068111156113275761132661373c565b5b14611367576040517f08c379a000000000000000000000000000000000000000000000000000000000815260040161135e9061486a565b60405180910390fd5b806006015434146113ad576040517f08c379a00000000000000000000000000000000000000000000000000000000081526004016113a4906148d6565b60405180910390fd5b600073ffffffffffffffffffffffffffffffffffffffff168373ffffffffffffffffffffffffffffffffffffffff160361141c576040517f08c379a000000000000000000000000000000000000000000000000000000000815260040161141390614942565b60405180910390fd5b828160020160006101000a81548173ffffffffffffffffffffffffffffffffffffffff021916908373ffffffffffffffffffffffffffffffffffffffff16021790555034816007018190555060018160080160006101000a81548160ff021916908360068111156114905761148f61373c565b5b02179055508273ffffffffffffffffffffffffffffffffffffffff16847fba05c38d28e2e6022a8f924642d334448e5d8af223b5ae9585baad3d0ce776ec346040516114dc91906135f2565b60405180910390a3506114ed6133fd565b505050565b806002600082815260200190815260200160002060010160009054906101000a900473ffffffffffffffffffffffffffffffffffffffff1673ffffffffffffffffffffffffffffffffffffffff163373ffffffffffffffffffffffffffffffffffffffff1614611597576040517f08c379a000000000000000000000000000000000000000000000000000000000815260040161158e9061449b565b60405180910390fd5b61159f6133b7565b6000600260008481526020019081526020016000209050600260068111156115ca576115c961373c565b5b8160080160009054906101000a900460ff1660068111156115ee576115ed61373c565b5b1461162e576040517f08c379a0000000000000000000000000000000000000000000000000000000008152600401611625906149ae565b60405180910390fd5b6000816007015490506000826007018190555060038260080160006101000a81548160ff021916908360068111156116695761166861373c565b5b021790555060008260020160009054906101000a900473ffffffffffffffffffffffffffffffffffffffff1673ffffffffffffffffffffffffffffffffffffffff16826040516116b890614587565b60006040518083038185875af1925050503d80600081146116f5576040519150601f19603f3d011682016040523d82523d6000602084013e6116fa565b606091505b505090508061173e576040517f08c379a000000000000000000000000000000000000000000000000000000000815260040161173590614a1a565b60405180910390fd5b8260060154600560008560010160009054906101000a900473ffffffffffffffffffffffffffffffffffffffff1673ffffffffffffffffffffffffffffffffffffffff1673ffffffffffffffffffffffffffffffffffffffff16815260200190815260200160002060040160008282546117b89190614a3a565b925050819055508260060154600560008560020160009054906101000a900473ffffffffffffffffffffffffffffffffffffffff1673ffffffffffffffffffffffffffffffffffffffff1673ffffffffffffffffffffffffffffffffffffffff16815260200190815260200160002060050160008282546118399190614a3a565b92505081905550600560008460020160009054906101000a900473ffffffffffffffffffffffffffffffffffffffff1673ffffffffffffffffffffffffffffffffffffffff1673ffffffffffffffffffffffffffffffffffffffff16815260200190815260200160002060030185908060018154018082558091505060019003906000526020600020016000909190919091505560058360080160006101000a81548160ff021916908360068111156118f5576118f461373c565b5b0217905550847f72a8659d664e8c3afdc18cf46adfba3acd130a459e0658ed768a45b08c0836208360405161192a91906135f2565b60405180910390a250505061193d6133fd565b5050565b60076020528160005260406000206020528060005260406000206000915091509054906101000a900460ff1681565b606060008060608060606000600560008973ffffffffffffffffffffffffffffffffffffffff1673ffffffffffffffffffffffffffffffffffffffff168152602001908152602001600020905080600101816004015482600501548360020184600301856006018580546119e3906140b4565b80601f0160208091040260200160405190810160405280929190818152602001828054611a0f906140b4565b8015611a5c5780601f10611a3157610100808354040283529160200191611a5c565b820191906000526020600020905b815481529060010190602001808311611a3f57829003601f168201915b5050505050955082805480602002602001604051908101604052809291908181526020018280548015611aae57602002820191906000526020600020905b815481526020019060010190808311611a9a575b5050505050925081805480602002602001604051908101604052809291908181526020018280548015611b0057602002820191906000526020600020905b815481526020019060010190808311611aec575b5050505050915080805480602002602001604051908101604052809291908181526020018280548015611b5257602002820191906000526020600020905b815481526020019060010190808311611b3e575b505050505090509650965096509650965096505091939550919395565b60015481565b600560003373ffffffffffffffffffffffffffffffffffffffff1673ffffffffffffffffffffffffffffffffffffffff16815260200190815260200160002060000160009054906101000a900460ff1615611c05576040517f08c379a0000000000000000000000000000000000000000000000000000000008152600401611bfc90614aba565b60405180910390fd5b6040518060e00160405280600115158152602001604051806020016040528060008152508152602001600067ffffffffffffffff811115611c4957611c48613b7f565b5b604051908082528060200260200182016040528015611c775781602001602082028036833780820191505090505b508152602001600067ffffffffffffffff811115611c9857611c97613b7f565b5b604051908082528060200260200182016040528015611cc65781602001602082028036833780820191505090505b5081526020016000815260200160008152602001600067ffffffffffffffff811115611cf557611cf4613b7f565b5b604051908082528060200260200182016040528015611d235781602001602082028036833780820191505090505b50815250600560003373ffffffffffffffffffffffffffffffffffffffff1673ffffffffffffffffffffffffffffffffffffffff16815260200190815260200160002060008201518160000160006101000a81548160ff0219169083151502179055506020820151816001019081611d9b9190614608565b506040820151816002019080519060200190611db8929190613407565b506060820151816003019080519060200190611dd5929190613407565b506080820151816004015560a0820151816005015560c0820151816006019080519060200190611e06929190613407565b509050503373ffffffffffffffffffffffffffffffffffffffff167f54db7a5cb4735e1aac1f53db512d3390390bb6637bd30ad4bf9fc98667d9b9b960405160405180910390a2565b611e576133b7565b7f000000000000000000000000000000000000000000000000000000000000000073ffffffffffffffffffffffffffffffffffffffff163373ffffffffffffffffffffffffffffffffffffffff1614611ee5576040517f08c379a0000000000000000000000000000000000000000000000000000000008152600401611edc90614b26565b60405180910390fd5b600060026000848152602001908152602001600020905060046006811115611f1057611f0f61373c565b5b8160080160009054906101000a900460ff166006811115611f3457611f3361373c565b5b14611f74576040517f08c379a0000000000000000000000000000000000000000000000000000000008152600401611f6b90614b92565b60405180910390fd5b6000816007015490506000826007018190555082156121715760008260020160009054906101000a900473ffffffffffffffffffffffffffffffffffffffff1673ffffffffffffffffffffffffffffffffffffffff1682604051611fd790614587565b60006040518083038185875af1925050503d8060008114612014576040519150601f19603f3d011682016040523d82523d6000602084013e612019565b606091505b505090508061205d576040517f08c379a000000000000000000000000000000000000000000000000000000000815260040161205490614a1a565b60405180910390fd5b8260060154600560008560020160009054906101000a900473ffffffffffffffffffffffffffffffffffffffff1673ffffffffffffffffffffffffffffffffffffffff1673ffffffffffffffffffffffffffffffffffffffff16815260200190815260200160002060050160008282546120d79190614a3a565b92505081905550600560008460020160009054906101000a900473ffffffffffffffffffffffffffffffffffffffff1673ffffffffffffffffffffffffffffffffffffffff1673ffffffffffffffffffffffffffffffffffffffff16815260200190815260200160002060030185908060018154018082558091505060019003906000526020600020016000909190919091505550612243565b60008260010160009054906101000a900473ffffffffffffffffffffffffffffffffffffffff1673ffffffffffffffffffffffffffffffffffffffff16826040516121bb90614587565b60006040518083038185875af1925050503d80600081146121f8576040519150601f19603f3d011682016040523d82523d6000602084013e6121fd565b606091505b5050905080612241576040517f08c379a000000000000000000000000000000000000000000000000000000000815260040161223890614bfe565b60405180910390fd5b505b60058260080160006101000a81548160ff0219169083600681111561226b5761226a61373c565b5b0217905550837f5a87909bff68caaaaf0b3fd9c74eeccc928832f879315e5c6fb7a73612f26c0c846040516122a09190613655565b60405180910390a250506122b26133fd565b5050565b6060600460008373ffffffffffffffffffffffffffffffffffffffff1673ffffffffffffffffffffffffffffffffffffffff16815260200190815260200160002080548060200260200160405190810160405280929190818152602001828054801561234157602002820191906000526020600020905b81548152602001906001019080831161232d575b50505050509050919050565b7f000000000000000000000000000000000000000000000000000000000000000081565b6123796133b7565b6000600260008381526020019081526020016000209050600060068111156123a4576123a361373c565b5b8160080160009054906101000a900460ff1660068111156123c8576123c761373c565b5b14612408576040517f08c379a00000000000000000000000000000000000000000000000000000000081526004016123ff9061486a565b60405180910390fd5b6007600083815260200190815260200160002060003373ffffffffffffffffffffffffffffffffffffffff1673ffffffffffffffffffffffffffffffffffffffff16815260200190815260200160002060009054906101000a900460ff16156124a6576040517f08c379a000000000000000000000000000000000000000000000000000000000815260040161249d90614c6a565b60405180910390fd5b600034116124e9576040517f08c379a00000000000000000000000000000000000000000000000000000000081526004016124e090614cd6565b60405180910390fd5b6003600083815260200190815260200160002060405180604001604052803373ffffffffffffffffffffffffffffffffffffffff16815260200134815250908060018154018082558091505060019003906000526020600020906002020160009091909190915060008201518160000160006101000a81548173ffffffffffffffffffffffffffffffffffffffff021916908373ffffffffffffffffffffffffffffffffffffffff16021790555060208201518160010155505060016007600084815260200190815260200160002060003373ffffffffffffffffffffffffffffffffffffffff1673ffffffffffffffffffffffffffffffffffffffff16815260200190815260200160002060006101000a81548160ff021916908315150217905550346006600084815260200190815260200160002060003373ffffffffffffffffffffffffffffffffffffffff1673ffffffffffffffffffffffffffffffffffffffff16815260200190815260200160002081905550600560003373ffffffffffffffffffffffffffffffffffffffff1673ffffffffffffffffffffffffffffffffffffffff1681526020019081526020016000206006018290806001815401808255809150506001900390600052602060002001600090919091909150553373ffffffffffffffffffffffffffffffffffffffff16827f0e54eff26401bf69b81b26f60bd85ef47f5d85275c1d268d84f68d6897431c473460405161271191906135f2565b60405180910390a3506127226133fd565b50565b60006002600083815260200190815260200160002090508060010160009054906101000a900473ffffffffffffffffffffffffffffffffffffffff1673ffffffffffffffffffffffffffffffffffffffff163373ffffffffffffffffffffffffffffffffffffffff1614806127e957508060020160009054906101000a900473ffffffffffffffffffffffffffffffffffffffff1673ffffffffffffffffffffffffffffffffffffffff163373ffffffffffffffffffffffffffffffffffffffff16145b612828576040517f08c379a000000000000000000000000000000000000000000000000000000000815260040161281f90614d42565b60405180910390fd5b6002600681111561283c5761283b61373c565b5b8160080160009054906101000a900460ff1660068111156128605761285f61373c565b5b14806128a157506001600681111561287b5761287a61373c565b5b8160080160009054906101000a900460ff16600681111561289f5761289e61373c565b5b145b6128e0576040517f08c379a00000000000000000000000000000000000000000000000000000000081526004016128d790614dae565b60405180910390fd5b60048160080160006101000a81548160ff021916908360068111156129085761290761373c565b5b0217905550817f04901f83201c8724eadf084436db8aa391820bae6d11f9f78a17edb6f2eef3cf60405160405180910390a25050565b60606000825167ffffffffffffffff81111561295d5761295c613b7f565b5b60405190808252806020026020018201604052801561299657816020015b612983613454565b81526020019060019003908161297b5790505b50905060005b8351811015612cc457600260008583815181106129bc576129bb614527565b5b6020026020010151815260200190815260200160002060405180610120016040529081600082015481526020016001820160009054906101000a900473ffffffffffffffffffffffffffffffffffffffff1673ffffffffffffffffffffffffffffffffffffffff1673ffffffffffffffffffffffffffffffffffffffff1681526020016002820160009054906101000a900473ffffffffffffffffffffffffffffffffffffffff1673ffffffffffffffffffffffffffffffffffffffff1673ffffffffffffffffffffffffffffffffffffffff168152602001600382018054612aa4906140b4565b80601f0160208091040260200160405190810160405280929190818152602001828054612ad0906140b4565b8015612b1d5780601f10612af257610100808354040283529160200191612b1d565b820191906000526020600020905b815481529060010190602001808311612b0057829003601f168201915b50505050508152602001600482018054612b36906140b4565b80601f0160208091040260200160405190810160405280929190818152602001828054612b62906140b4565b8015612baf5780601f10612b8457610100808354040283529160200191612baf565b820191906000526020600020905b815481529060010190602001808311612b9257829003601f168201915b50505050508152602001600582018054612bc8906140b4565b80601f0160208091040260200160405190810160405280929190818152602001828054612bf4906140b4565b8015612c415780601f10612c1657610100808354040283529160200191612c41565b820191906000526020600020905b815481529060010190602001808311612c2457829003601f168201915b5050505050815260200160068201548152602001600782015481526020016008820160009054906101000a900460ff166006811115612c8357612c8261373c565b5b6006811115612c9557612c9461373c565b5b81525050828281518110612cac57612cab614527565b5b6020026020010181905250808060010191505061299c565b5080915050919050565b606060036000838152602001908152602001600020805480602002602001604051908101604052809291908181526020016000905b82821015612d9557838290600052602060002090600202016040518060400160405290816000820160009054906101000a900473ffffffffffffffffffffffffffffffffffffffff1673ffffffffffffffffffffffffffffffffffffffff1673ffffffffffffffffffffffffffffffffffffffff16815260200160018201548152505081526020019060010190612d03565b505050509050919050565b6060600080600190505b6001548111612e245760006006811115612dc757612dc661373c565b5b6002600083815260200190815260200160002060080160009054906101000a900460ff166006811115612dfd57612dfc61373c565b5b03612e11578180612e0d90614180565b9250505b8080612e1c90614180565b915050612daa565b5060008167ffffffffffffffff811115612e4157612e40613b7f565b5b604051908082528060200260200182016040528015612e7a57816020015b612e67613454565b815260200190600190039081612e5f5790505b509050600080600190505b60015481116131f75760006006811115612ea257612ea161373c565b5b6002600083815260200190815260200160002060080160009054906101000a900460ff166006811115612ed857612ed761373c565b5b036131e4576002600082815260200190815260200160002060405180610120016040529081600082015481526020016001820160009054906101000a900473ffffffffffffffffffffffffffffffffffffffff1673ffffffffffffffffffffffffffffffffffffffff1673ffffffffffffffffffffffffffffffffffffffff1681526020016002820160009054906101000a900473ffffffffffffffffffffffffffffffffffffffff1673ffffffffffffffffffffffffffffffffffffffff1673ffffffffffffffffffffffffffffffffffffffff168152602001600382018054612fc2906140b4565b80601f0160208091040260200160405190810160405280929190818152602001828054612fee906140b4565b801561303b5780601f106130105761010080835404028352916020019161303b565b820191906000526020600020905b81548152906001019060200180831161301e57829003601f168201915b50505050508152602001600482018054613054906140b4565b80601f0160208091040260200160405190810160405280929190818152602001828054613080906140b4565b80156130cd5780601f106130a2576101008083540402835291602001916130cd565b820191906000526020600020905b8154815290600101906020018083116130b057829003601f168201915b505050505081526020016005820180546130e6906140b4565b80601f0160208091040260200160405190810160405280929190818152602001828054613112906140b4565b801561315f5780601f106131345761010080835404028352916020019161315f565b820191906000526020600020905b81548152906001019060200180831161314257829003601f168201915b5050505050815260200160068201548152602001600782015481526020016008820160009054906101000a900460ff1660068111156131a1576131a061373c565b5b60068111156131b3576131b261373c565b5b815250508383815181106131ca576131c9614527565b5b602002602001018190525081806131e090614180565b9250505b80806131ef90614180565b915050612e85565b5081935050505090565b826002600082815260200190815260200160002060020160009054906101000a900473ffffffffffffffffffffffffffffffffffffffff1673ffffffffffffffffffffffffffffffffffffffff163373ffffffffffffffffffffffffffffffffffffffff16146132a6576040517f08c379a000000000000000000000000000000000000000000000000000000000815260040161329d90614e1a565b60405180910390fd5b6000600260008681526020019081526020016000209050600160068111156132d1576132d061373c565b5b8160080160009054906101000a900460ff1660068111156132f5576132f461373c565b5b14613335576040517f08c379a000000000000000000000000000000000000000000000000000000000815260040161332c90614e86565b60405180910390fd5b838382600501918261334892919061437f565b5060028160080160006101000a81548160ff021916908360068111156133715761337061373c565b5b0217905550847f3822c71b106c7c1dabf7f076e68c9bd98c45d0cd0d073f4dcdaf422a0fe5584785856040516133a8929190614ee2565b60405180910390a25050505050565b6002600054036133f3576040517f3ee5aeb500000000000000000000000000000000000000000000000000000000815260040160405180910390fd5b6002600081905550565b6001600081905550565b828054828255906000526020600020908101928215613443579160200282015b82811115613442578251825591602001919060010190613427565b5b50905061345091906134de565b5090565b60405180610120016040528060008152602001600073ffffffffffffffffffffffffffffffffffffffff168152602001600073ffffffffffffffffffffffffffffffffffffffff1681526020016060815260200160608152602001606081526020016000815260200160008152602001600060068111156134d8576134d761373c565b5b81525090565b5b808211156134f75760008160009055506001016134df565b5090565b6000604051905090565b600080fd5b600080fd5b6000819050919050565b6135228161350f565b811461352d57600080fd5b50565b60008135905061353f81613519565b92915050565b600073ffffffffffffffffffffffffffffffffffffffff82169050919050565b600061357082613545565b9050919050565b61358081613565565b811461358b57600080fd5b50565b60008135905061359d81613577565b92915050565b600080604083850312156135ba576135b9613505565b5b60006135c885828601613530565b92505060206135d98582860161358e565b9150509250929050565b6135ec8161350f565b82525050565b600060208201905061360760008301846135e3565b92915050565b60006020828403121561362357613622613505565b5b60006136318482850161358e565b91505092915050565b60008115159050919050565b61364f8161363a565b82525050565b600060208201905061366a6000830184613646565b92915050565b60006020828403121561368657613685613505565b5b600061369484828501613530565b91505092915050565b6136a681613565565b82525050565b600081519050919050565b600082825260208201905092915050565b60005b838110156136e65780820151818401526020810190506136cb565b60008484015250505050565b6000601f19601f8301169050919050565b600061370e826136ac565b61371881856136b7565b93506137288185602086016136c8565b613731816136f2565b840191505092915050565b7f4e487b7100000000000000000000000000000000000000000000000000000000600052602160045260246000fd5b6007811061377c5761377b61373c565b5b50565b600081905061378d8261376b565b919050565b600061379d8261377f565b9050919050565b6137ad81613792565b82525050565b6000610120820190506137c9600083018c6135e3565b6137d6602083018b61369d565b6137e3604083018a61369d565b81810360608301526137f58189613703565b905081810360808301526138098188613703565b905081810360a083015261381d8187613703565b905061382c60c08301866135e3565b61383960e08301856135e3565b6138476101008301846137a4565b9a9950505050505050505050565b600080fd5b600080fd5b600080fd5b60008083601f84011261387a57613879613855565b5b8235905067ffffffffffffffff8111156138975761389661385a565b5b6020830191508360018202830111156138b3576138b261385f565b5b9250929050565b6000806000806000606086880312156138d6576138d5613505565b5b600086013567ffffffffffffffff8111156138f4576138f361350a565b5b61390088828901613864565b9550955050602061391388828901613530565b935050604086013567ffffffffffffffff8111156139345761393361350a565b5b61394088828901613864565b92509250509295509295909350565b60006080820190506139646000830187613646565b81810360208301526139768186613703565b905061398560408301856135e3565b61399260608301846135e3565b95945050505050565b600081519050919050565b600082825260208201905092915050565b6000819050602082019050919050565b6139d08161350f565b82525050565b60006139e283836139c7565b60208301905092915050565b6000602082019050919050565b6000613a068261399b565b613a1081856139a6565b9350613a1b836139b7565b8060005b83811015613a4c578151613a3388826139d6565b9750613a3e836139ee565b925050600181019050613a1f565b5085935050505092915050565b600060c0820190508181036000830152613a738189613703565b9050613a8260208301886135e3565b613a8f60408301876135e3565b8181036060830152613aa181866139fb565b90508181036080830152613ab581856139fb565b905081810360a0830152613ac981846139fb565b9050979650505050505050565b613adf8161363a565b8114613aea57600080fd5b50565b600081359050613afc81613ad6565b92915050565b60008060408385031215613b1957613b18613505565b5b6000613b2785828601613530565b9250506020613b3885828601613aed565b9150509250929050565b60006020820190508181036000830152613b5c81846139fb565b905092915050565b6000602082019050613b79600083018461369d565b92915050565b7f4e487b7100000000000000000000000000000000000000000000000000000000600052604160045260246000fd5b613bb7826136f2565b810181811067ffffffffffffffff82111715613bd657613bd5613b7f565b5b80604052505050565b6000613be96134fb565b9050613bf58282613bae565b919050565b600067ffffffffffffffff821115613c1557613c14613b7f565b5b602082029050602081019050919050565b6000613c39613c3484613bfa565b613bdf565b90508083825260208201905060208402830185811115613c5c57613c5b61385f565b5b835b81811015613c855780613c718882613530565b845260208401935050602081019050613c5e565b5050509392505050565b600082601f830112613ca457613ca3613855565b5b8135613cb4848260208601613c26565b91505092915050565b600060208284031215613cd357613cd2613505565b5b600082013567ffffffffffffffff811115613cf157613cf061350a565b5b613cfd84828501613c8f565b91505092915050565b600081519050919050565b600082825260208201905092915050565b6000819050602082019050919050565b613d3b81613565565b82525050565b600082825260208201905092915050565b6000613d5d826136ac565b613d678185613d41565b9350613d778185602086016136c8565b613d80816136f2565b840191505092915050565b613d9481613792565b82525050565b600061012083016000830151613db360008601826139c7565b506020830151613dc66020860182613d32565b506040830151613dd96040860182613d32565b5060608301518482036060860152613df18282613d52565b91505060808301518482036080860152613e0b8282613d52565b91505060a083015184820360a0860152613e258282613d52565b91505060c0830151613e3a60c08601826139c7565b5060e0830151613e4d60e08601826139c7565b50610100830151613e62610100860182613d8b565b508091505092915050565b6000613e798383613d9a565b905092915050565b6000602082019050919050565b6000613e9982613d06565b613ea38185613d11565b935083602082028501613eb585613d22565b8060005b85811015613ef15784840389528151613ed28582613e6d565b9450613edd83613e81565b925060208a01995050600181019050613eb9565b50829750879550505050505092915050565b60006020820190508181036000830152613f1d8184613e8e565b905092915050565b600081519050919050565b600082825260208201905092915050565b6000819050602082019050919050565b604082016000820151613f676000850182613d32565b506020820151613f7a60208501826139c7565b50505050565b6000613f8c8383613f51565b60408301905092915050565b6000602082019050919050565b6000613fb082613f25565b613fba8185613f30565b9350613fc583613f41565b8060005b83811015613ff6578151613fdd8882613f80565b9750613fe883613f98565b925050600181019050613fc9565b5085935050505092915050565b6000602082019050818103600083015261401d8184613fa5565b905092915050565b60008060006040848603121561403e5761403d613505565b5b600061404c86828701613530565b935050602084013567ffffffffffffffff81111561406d5761406c61350a565b5b61407986828701613864565b92509250509250925092565b7f4e487b7100000000000000000000000000000000000000000000000000000000600052602260045260246000fd5b600060028204905060018216806140cc57607f821691505b6020821081036140df576140de614085565b5b50919050565b7f427564676574206d757374206265203e20300000000000000000000000000000600082015250565b600061411b6012836136b7565b9150614126826140e5565b602082019050919050565b6000602082019050818103600083015261414a8161410e565b9050919050565b7f4e487b7100000000000000000000000000000000000000000000000000000000600052601160045260246000fd5b600061418b8261350f565b91507fffffffffffffffffffffffffffffffffffffffffffffffffffffffffffffffff82036141bd576141bc614151565b5b600182019050919050565b600082905092915050565b60008190508160005260206000209050919050565b60006020601f8301049050919050565b600082821b905092915050565b6000600883026142357fffffffffffffffffffffffffffffffffffffffffffffffffffffffffffffffff826141f8565b61423f86836141f8565b95508019841693508086168417925050509392505050565b6000819050919050565b600061427c6142776142728461350f565b614257565b61350f565b9050919050565b6000819050919050565b61429683614261565b6142aa6142a282614283565b848454614205565b825550505050565b600090565b6142bf6142b2565b6142ca81848461428d565b505050565b5b818110156142ee576142e36000826142b7565b6001810190506142d0565b5050565b601f82111561433357614304816141d3565b61430d846141e8565b8101602085101561431c578190505b614330614328856141e8565b8301826142cf565b50505b505050565b600082821c905092915050565b600061435660001984600802614338565b1980831691505092915050565b600061436f8383614345565b9150826002028217905092915050565b61438983836141c8565b67ffffffffffffffff8111156143a2576143a1613b7f565b5b6143ac82546140b4565b6143b78282856142f2565b6000601f8311600181146143e657600084156143d4578287013590505b6143de8582614363565b865550614446565b601f1984166143f4866141d3565b60005b8281101561441c578489013582556001820191506020850194506020810190506143f7565b868310156144395784890135614435601f891682614345565b8355505b6001600288020188555050505b50505050505050565b7f4e6f74206a6f62206f776e657200000000000000000000000000000000000000600082015250565b6000614485600d836136b7565b91506144908261444f565b602082019050919050565b600060208201905081810360008301526144b481614478565b9050919050565b7f4a6f6220616c726561647920696e2070726f6772657373000000000000000000600082015250565b60006144f16017836136b7565b91506144fc826144bb565b602082019050919050565b60006020820190508181036000830152614520816144e4565b9050919050565b7f4e487b7100000000000000000000000000000000000000000000000000000000600052603260045260246000fd5b600081905092915050565b50565b6000614571600083614556565b915061457c82614561565b600082019050919050565b600061459282614564565b9150819050919050565b7f42696420726566756e64206661696c6564000000000000000000000000000000600082015250565b60006145d26011836136b7565b91506145dd8261459c565b602082019050919050565b60006020820190508181036000830152614601816145c5565b9050919050565b614611826136ac565b67ffffffffffffffff81111561462a57614629613b7f565b5b61463482546140b4565b61463f8282856142f2565b600060209050601f8311600181146146725760008415614660578287015190505b61466a8582614363565b8655506146d2565b601f198416614680866141d3565b60005b828110156146a857848901518255600182019150602085019450602081019050614683565b868310156146c557848901516146c1601f891682614345565b8355505b6001600288020188555050505b505050505050565b7f596f7520646964206e6f7420626964206f6e2074686973206a6f620000000000600082015250565b6000614710601b836136b7565b915061471b826146da565b602082019050919050565b6000602082019050818103600083015261473f81614703565b9050919050565b7f57696e6e65722063616e6e6f7420776974686472617700000000000000000000600082015250565b600061477c6016836136b7565b915061478782614746565b602082019050919050565b600060208201905081810360008301526147ab8161476f565b9050919050565b7f4e6f2066756e647320746f207769746864726177000000000000000000000000600082015250565b60006147e86014836136b7565b91506147f3826147b2565b602082019050919050565b60006020820190508181036000830152614817816147db565b9050919050565b7f4a6f62206e6f74206f70656e0000000000000000000000000000000000000000600082015250565b6000614854600c836136b7565b915061485f8261481e565b602082019050919050565b6000602082019050818103600083015261488381614847565b9050919050565b7f53656e642066756c6c2062756467657400000000000000000000000000000000600082015250565b60006148c06010836136b7565b91506148cb8261488a565b602082019050919050565b600060208201905081810360008301526148ef816148b3565b9050919050565b7f42616420667265656c616e636572000000000000000000000000000000000000600082015250565b600061492c600e836136b7565b9150614937826148f6565b602082019050919050565b6000602082019050818103600083015261495b8161491f565b9050919050565b7f576f726b206e6f74207375626d69747465640000000000000000000000000000600082015250565b60006149986012836136b7565b91506149a382614962565b602082019050919050565b600060208201905081810360008301526149c78161498b565b9050919050565b7f5472616e73666572206661696c65640000000000000000000000000000000000600082015250565b6000614a04600f836136b7565b9150614a0f826149ce565b602082019050919050565b60006020820190508181036000830152614a33816149f7565b9050919050565b6000614a458261350f565b9150614a508361350f565b9250828201905080821115614a6857614a67614151565b5b92915050565b7f416c726561647920726567697374657265640000000000000000000000000000600082015250565b6000614aa46012836136b7565b9150614aaf82614a6e565b602082019050919050565b60006020820190508181036000830152614ad381614a97565b9050919050565b7f4f6e6c7920636f6e7472616374206f776e6572202864656d6f29000000000000600082015250565b6000614b10601a836136b7565b9150614b1b82614ada565b602082019050919050565b60006020820190508181036000830152614b3f81614b03565b9050919050565b7f4e6f206469737075746500000000000000000000000000000000000000000000600082015250565b6000614b7c600a836136b7565b9150614b8782614b46565b602082019050919050565b60006020820190508181036000830152614bab81614b6f565b9050919050565b7f526566756e64206661696c656400000000000000000000000000000000000000600082015250565b6000614be8600d836136b7565b9150614bf382614bb2565b602082019050919050565b60006020820190508181036000830152614c1781614bdb565b9050919050565b7f416c726561647920706c61636564206120626964000000000000000000000000600082015250565b6000614c546014836136b7565b9150614c5f82614c1e565b602082019050919050565b60006020820190508181036000830152614c8381614c47565b9050919050565b7f426964206d7573742062652067726561746572207468616e2030000000000000600082015250565b6000614cc0601a836136b7565b9150614ccb82614c8a565b602082019050919050565b60006020820190508181036000830152614cef81614cb3565b9050919050565b7f4f6e6c7920696e766f6c76656420706172746965730000000000000000000000600082015250565b6000614d2c6015836136b7565b9150614d3782614cf6565b602082019050919050565b60006020820190508181036000830152614d5b81614d1f565b9050919050565b7f43616e6e6f742064697370757465000000000000000000000000000000000000600082015250565b6000614d98600e836136b7565b9150614da382614d62565b602082019050919050565b60006020820190508181036000830152614dc781614d8b565b9050919050565b7f4e6f7420686972656420667265656c616e636572000000000000000000000000600082015250565b6000614e046014836136b7565b9150614e0f82614dce565b602082019050919050565b60006020820190508181036000830152614e3381614df7565b9050919050565b7f57726f6e67207374617475730000000000000000000000000000000000000000600082015250565b6000614e70600c836136b7565b9150614e7b82614e3a565b602082019050919050565b60006020820190508181036000830152614e9f81614e63565b9050919050565b82818337600083830152505050565b6000614ec183856136b7565b9350614ece838584614ea6565b614ed7836136f2565b840190509392505050565b60006020820190508181036000830152614efd818486614eb5565b9050939250505056fea2646970667358221220c1890353b099608e3ec62ada0df2b912663ac79c59f325aec6d4e6b7f80511fe64736f6c634300081c0033",
  "linkReferences": {},
  "deployedLinkReferences": {}
}