{
  "_format": "hh-sol-artifact-1",
  "contractName": "FreelanceEscrow",
  "sourceName": "contracts/FreelanceEscrow.sol",
  "abi": [
    {
      "inputs": [],
      "stateMutability": "nonpayable",
      "type": "constructor"
    },
    {
      "inputs": [],
      "name": "ReentrancyGuardReentrantCall",
      "type": "error"
    },
    {
      "anonymous": false,
      "inputs": [
        {
          "indexed": true,
          "internalType": "uint256",
          "name": "id",
          "type": "uint256"
        },
        {
          "indexed": true,
          "internalType": "address",
          "name": "freelancer",
          "type": "address"
        },
        {
          "indexed": false,
          "internalType": "uint256",
          "name": "amount",
          "type": "uint256"
        }
      ],
      "name": "BidPlaced",
      "type": "event"
    },
    {
      "anonymous": false,
      "inputs": [
        {
          "indexed": true,
          "internalType": "uint256",
          "name": "id",
          "type": "uint256"
        }
      ],
      "name": "DisputeRaised",
      "type": "event"
    },
    {
      "anonymous": false,
      "inputs": [
        {
          "indexed": true,
          "internalType": "uint256",
          "name": "id",
          "type": "uint256"
        },
        {
          "indexed": false,
          "internalType": "bool",
          "name": "releasedToFreelancer",
          "type": "bool"
        }
      ],
      "name": "DisputeResolved",
      "type": "event"
    },
    {
      "anonymous": false,
      "inputs": [
        {
          "indexed": true,
          "internalType": "uint256",
          "name": "id",
          "type": "uint256"
        },
        {
          "indexed": true,
          "internalType": "address",
          "name": "freelancer",
          "type": "address"
        },
        {
          "indexed": false,
          "internalType": "uint256",
          "name": "escrow",
          "type": "uint256"
        }
      ],
      "name": "FreelancerSelected",
      "type": "event"
    },
    {
      "anonymous": false,
      "inputs": [
        {
          "indexed": true,
          "internalType": "uint256",
          "name": "id",
          "type": "uint256"
        },
        {
          "indexed": false,
          "internalType": "uint256",
          "name": "payout",
          "type": "uint256"
        }
      ],
      "name": "JobApproved",
      "type": "event"
    },
    {
      "anonymous": false,
      "inputs": [
        {
          "indexed": true,
          "internalType": "uint256",
          "name": "id",
          "type": "uint256"
        }
      ],
      "name": "JobCancelled",
      "type": "event"
    },
    {
      "anonymous": false,
      "inputs": [
        {
          "indexed": true,
          "internalType": "uint256",
          "name": "id",
          "type": "uint256"
        },
        {
          "indexed": true,
          "internalType": "address",
          "name": "client",
          "type": "address"
        },
        {
          "indexed": false,
          "internalType": "uint256",
          "name": "budget",
          "type": "uint256"
        }
      ],
      "name": "JobCreated",
      "type": "event"
    },
    {
      "anonymous": false,
      "inputs": [
        {
          "indexed": true,
          "internalType": "uint256",
          "name": "id",
          "type": "uint256"
        },
        {
          "indexed": false,
          "internalType": "string",
          "name": "submissionCID",
          "type": "string"
        }
      ],
      "name": "WorkSubmitted",
      "type": "event"
    },
    {
      "inputs": [
        {
          "internalType": "uint256",
          "name": "id",
          "type": "uint256"
        }
      ],
      "name": "approveWork",
      "outputs": [],
      "stateMutability": "nonpayable",
      "type": "function"
    },
    {
      "inputs": [
        {
          "internalType": "uint256",
          "name": "id",
          "type": "uint256"
        }
      ],
      "name": "cancelJob",
      "outputs": [],
      "stateMutability": "nonpayable",
      "type": "function"
    },
    {
      "inputs": [
        {
          "internalType": "string",
          "name": "_title",
          "type": "string"
        },
        {
          "internalType": "uint256",
          "name": "_budget",
          "type": "uint256"
        },
        {
          "internalType": "string",
          "name": "_specCID",
          "type": "string"
        }
      ],
      "name": "createJob",
      "outputs": [],
      "stateMutability": "nonpayable",
      "type": "function"
    },
    {
      "inputs": [],
      "name": "jobCount",
      "outputs": [
        {
          "internalType": "uint256",
          "name": "",
          "type": "uint256"
        }
      ],
      "stateMutability": "view",
      "type": "function"
    },
    {
      "inputs": [
        {
          "internalType": "uint256",
          "name": "",
          "type": "uint256"
        }
      ],
      "name": "jobs",
      "outputs": [
        {
          "internalType": "uint256",
          "name": "jobId",
          "type": "uint256"
        },
        {
          "internalType": "address",
          "name": "client",
          "type": "address"
        },
        {
          "internalType": "address",
          "name": "freelancer",
          "type": "address"
        },
        {
          "internalType": "string",
          "name": "title",
          "type": "string"
        },
        {
          "internalType": "string",
          "name": "specCID",
          "type": "string"
        },
        {
          "internalType": "string",
          "name": "submissionCID",
          "type": "string"
        },
        {
          "internalType": "uint256",
          "name": "budget",
          "type": "uint256"
        },
        {
          "internalType": "uint256",
          "name": "escrow",
          "type": "uint256"
        },
        {
          "internalType": "enum FreelanceEscrow.JobStatus",
          "name": "status",
          "type": "uint8"
        }
      ],
      "stateMutability": "view",
      "type": "function"
    },
    {
      "inputs": [
        {
          "internalType": "address",
          "name": "user",
          "type": "address"
        }
      ],
      "name": "jobsOf",
      "outputs": [
        {
          "internalType": "uint256[]",
          "name": "",
          "type": "uint256[]"
        }
      ],
      "stateMutability": "view",
      "type": "function"
    },
    {
      "inputs": [
        {
          "internalType": "uint256",
          "name": "id",
          "type": "uint256"
        }
      ],
      "name": "listBids",
      "outputs": [
        {
          "components": [
            {
              "internalType": "address",
              "name": "bidder",
              "type": "address"
            },
            {
              "internalType": "uint256",
              "name": "amount",
              "type": "uint256"
            }
          ],
          "internalType": "struct FreelanceEscrow.Bid[]",
          "name": "",
          "type": "tuple[]"
        }
      ],
      "stateMutability": "view",
      "type": "function"
    },
    {
      "inputs": [],
      "name": "owner",
      "outputs": [
        {
          "internalType": "address",
          "name": "",
          "type": "address"
        }
      ],
      "stateMutability": "view",
      "type": "function"
    },
    {
      "inputs": [
        {
          "internalType": "uint256",
          "name": "id",
          "type": "uint256"
        },
        {
          "internalType": "bool",
          "name": "releaseToFreelancer",
          "type": "bool"
        }
      ],
      "name": "ownerResolveDispute",
      "outputs": [],
      "stateMutability": "nonpayable",
      "type": "function"
    },
    {
      "inputs": [
        {
          "internalType": "uint256",
          "name": "id",
          "type": "uint256"
        }
      ],
      "name": "placeBid",
      "outputs": [],
      "stateMutability": "payable",
      "type": "function"
    },
    {
      "inputs": [
        {
          "internalType": "uint256",
          "name": "id",
          "type": "uint256"
        }
      ],
      "name": "raiseDispute",
      "outputs": [],
      "stateMutability": "nonpayable",
      "type": "function"
    },
    {
      "inputs": [
        {
          "internalType": "uint256",
          "name": "id",
          "type": "uint256"
        },
        {
          "internalType": "address",
          "name": "_freelancer",
          "type": "address"
        }
      ],
      "name": "selectFreelancer",
      "outputs": [],
      "stateMutability": "payable",
      "type": "function"
    },
    {
      "inputs": [
        {
          "internalType": "uint256",
          "name": "id",
          "type": "uint256"
        },
        {
          "internalType": "string",
          "name": "_submissionCID",
          "type": "string"
        }
      ],
      "name": "submitWork",
      "outputs": [],
      "stateMutability": "nonpayable",
      "type": "function"
    }
  ],
  "bytecode": "0x60a0604052348015600f57600080fd5b5060016000819055503373ffffffffffffffffffffffffffffffffffffffff1660808173ffffffffffffffffffffffffffffffffffffffff16815250506000600181905550608051612e2e6100766000396000818161103d01526114250152612e2e6000f3fe6080604052600436106100c25760003560e01c806360ec218d1161007f5780639979ef45116100595780639979ef451461025f578063a5c1674e1461027b578063b193aee0146102a4578063da8accf9146102e1576100c2565b806360ec218d146101ce5780636373d2ea146101f75780638da5cb5b14610234576100c2565b8063180aedf3146100c757806319eb5ae41461010c5780631dffa3dc14610135578063380deabc1461015e5780633d01e0fa1461017a5780634c5d8a0f146101a3575b600080fd5b3480156100d357600080fd5b506100ee60048036038101906100e99190611b24565b61030a565b60405161010399989796959493929190611ca8565b60405180910390f35b34801561011857600080fd5b50610133600480360381019061012e9190611daf565b61053d565b005b34801561014157600080fd5b5061015c60048036038101906101579190611b24565b61071c565b005b61017860048036038101906101739190611e70565b610aa6565b005b34801561018657600080fd5b506101a1600480360381019061019c9190611b24565b610d6d565b005b3480156101af57600080fd5b506101b861102d565b6040516101c59190611eb0565b60405180910390f35b3480156101da57600080fd5b506101f560048036038101906101f09190611f03565b611033565b005b34801561020357600080fd5b5061021e60048036038101906102199190611f43565b61138c565b60405161022b919061202e565b60405180910390f35b34801561024057600080fd5b50610249611423565b6040516102569190612050565b60405180910390f35b61027960048036038101906102749190611b24565b611447565b005b34801561028757600080fd5b506102a2600480360381019061029d9190611b24565b6115f3565b005b3480156102b057600080fd5b506102cb60048036038101906102c69190611b24565b61180c565b6040516102d89190612158565b60405180910390f35b3480156102ed57600080fd5b506103086004803603810190610303919061217a565b6118de565b005b60026020528060005260406000206000915090508060000154908060010160009054906101000a900473ffffffffffffffffffffffffffffffffffffffff16908060020160009054906101000a900473ffffffffffffffffffffffffffffffffffffffff169080600301805461037f90612209565b80601f01602080910402602001604051908101604052809291908181526020018280546103ab90612209565b80156103f85780601f106103cd576101008083540402835291602001916103f8565b820191906000526020600020905b8154815290600101906020018083116103db57829003601f168201915b50505050509080600401805461040d90612209565b80601f016020809104026020016040519081016040528092919081815260200182805461043990612209565b80156104865780601f1061045b57610100808354040283529160200191610486565b820191906000526020600020905b81548152906001019060200180831161046957829003601f168201915b50505050509080600501805461049b90612209565b80601f01602080910402602001604051908101604052809291908181526020018280546104c790612209565b80156105145780601f106104e957610100808354040283529160200191610514565b820191906000526020600020905b8154815290600101906020018083116104f757829003601f168201915b5050505050908060060154908060070154908060080160009054906101000a900460ff16905089565b60008311610580576040517f08c379a000000000000000000000000000000000000000000000000000000000815260040161057790612286565b60405180910390fd5b60016000815461058f906122d5565b91905081905550600060026000600154815260200190815260200160002090506001548160000181905550338160010160006101000a81548173ffffffffffffffffffffffffffffffffffffffff021916908373ffffffffffffffffffffffffffffffffffffffff1602179055508585826003019182610610929190612503565b508282826004019182610624929190612503565b5083816006018190555060008160080160006101000a81548160ff0219169083600681111561065657610655611c31565b5b0217905550600460003373ffffffffffffffffffffffffffffffffffffffff1673ffffffffffffffffffffffffffffffffffffffff16815260200190815260200160002060015490806001815401808255809150506001900390600052602060002001600090919091909150553373ffffffffffffffffffffffffffffffffffffffff166001547f8678ba2d99dba901dafc51009f8d402d37a5a0275752cf0e263b827aeca906f28660405161070c9190611eb0565b60405180910390a3505050505050565b806002600082815260200190815260200160002060010160009054906101000a900473ffffffffffffffffffffffffffffffffffffffff1673ffffffffffffffffffffffffffffffffffffffff163373ffffffffffffffffffffffffffffffffffffffff16146107c1576040517f08c379a00000000000000000000000000000000000000000000000000000000081526004016107b89061261f565b60405180910390fd5b6107c9611a94565b6000600260008481526020019081526020016000209050600060068111156107f4576107f3611c31565b5b8160080160009054906101000a900460ff16600681111561081857610817611c31565b5b14610858576040517f08c379a000000000000000000000000000000000000000000000000000000000815260040161084f9061268b565b60405180910390fd5b600060036000858152602001908152602001600020905060005b81805490508110156109ce576000828281548110610893576108926126ab565b5b90600052602060002090600202016001015411156109c15760008282815481106108c0576108bf6126ab565b5b906000526020600020906002020160000160009054906101000a900473ffffffffffffffffffffffffffffffffffffffff1673ffffffffffffffffffffffffffffffffffffffff1683838154811061091b5761091a6126ab565b5b9060005260206000209060020201600101546040516109399061270b565b60006040518083038185875af1925050503d8060008114610976576040519150601f19603f3d011682016040523d82523d6000602084013e61097b565b606091505b50509050806109bf576040517f08c379a00000000000000000000000000000000000000000000000000000000081526004016109b69061276c565b60405180910390fd5b505b8080600101915050610872565b5060068260080160006101000a81548160ff021916908360068111156109f7576109f6611c31565b5b021790555060008260020160006101000a81548173ffffffffffffffffffffffffffffffffffffffff021916908373ffffffffffffffffffffffffffffffffffffffff1602179055506000826007018190555060405180602001604052806000815250826005019081610a6a919061278c565b50837f58243f872c550ad02802199ade99eb4250f6bb19e9abbf2d3de7b969c0eb5e4f60405160405180910390a25050610aa2611ada565b5050565b816002600082815260200190815260200160002060010160009054906101000a900473ffffffffffffffffffffffffffffffffffffffff1673ffffffffffffffffffffffffffffffffffffffff163373ffffffffffffffffffffffffffffffffffffffff1614610b4b576040517f08c379a0000000000000000000000000000000000000000000000000000000008152600401610b429061261f565b60405180910390fd5b610b53611a94565b600060026000858152602001908152602001600020905060006006811115610b7e57610b7d611c31565b5b8160080160009054906101000a900460ff166006811115610ba257610ba1611c31565b5b14610be2576040517f08c379a0000000000000000000000000000000000000000000000000000000008152600401610bd9906128aa565b60405180910390fd5b80600601543414610c28576040517f08c379a0000000000000000000000000000000000000000000000000000000008152600401610c1f90612916565b60405180910390fd5b600073ffffffffffffffffffffffffffffffffffffffff168373ffffffffffffffffffffffffffffffffffffffff1603610c97576040517f08c379a0000000000000000000000000000000000000000000000000000000008152600401610c8e90612982565b60405180910390fd5b828160020160006101000a81548173ffffffffffffffffffffffffffffffffffffffff021916908373ffffffffffffffffffffffffffffffffffffffff16021790555034816007018190555060018160080160006101000a81548160ff02191690836006811115610d0b57610d0a611c31565b5b02179055508273ffffffffffffffffffffffffffffffffffffffff16847fba05c38d28e2e6022a8f924642d334448e5d8af223b5ae9585baad3d0ce776ec34604051610d579190611eb0565b60405180910390a350610d68611ada565b505050565b806002600082815260200190815260200160002060010160009054906101000a900473ffffffffffffffffffffffffffffffffffffffff1673ffffffffffffffffffffffffffffffffffffffff163373ffffffffffffffffffffffffffffffffffffffff1614610e12576040517f08c379a0000000000000000000000000000000000000000000000000000000008152600401610e099061261f565b60405180910390fd5b610e1a611a94565b600060026000848152602001908152602001600020905060026006811115610e4557610e44611c31565b5b8160080160009054906101000a900460ff166006811115610e6957610e68611c31565b5b14610ea9576040517f08c379a0000000000000000000000000000000000000000000000000000000008152600401610ea0906129ee565b60405180910390fd5b6000816007015490506000826007018190555060038260080160006101000a81548160ff02191690836006811115610ee457610ee3611c31565b5b021790555060008260020160009054906101000a900473ffffffffffffffffffffffffffffffffffffffff1673ffffffffffffffffffffffffffffffffffffffff1682604051610f339061270b565b60006040518083038185875af1925050503d8060008114610f70576040519150601f19603f3d011682016040523d82523d6000602084013e610f75565b606091505b5050905080610fb9576040517f08c379a0000000000000000000000000000000000000000000000000000000008152600401610fb090612a5a565b60405180910390fd5b60058360080160006101000a81548160ff02191690836006811115610fe157610fe0611c31565b5b0217905550847f72a8659d664e8c3afdc18cf46adfba3acd130a459e0658ed768a45b08c083620836040516110169190611eb0565b60405180910390a2505050611029611ada565b5050565b60015481565b61103b611a94565b7f000000000000000000000000000000000000000000000000000000000000000073ffffffffffffffffffffffffffffffffffffffff163373ffffffffffffffffffffffffffffffffffffffff16146110c9576040517f08c379a00000000000000000000000000000000000000000000000000000000081526004016110c090612ac6565b60405180910390fd5b6000600260008481526020019081526020016000209050600460068111156110f4576110f3611c31565b5b8160080160009054906101000a900460ff16600681111561111857611117611c31565b5b14611158576040517f08c379a000000000000000000000000000000000000000000000000000000000815260040161114f90612b32565b60405180910390fd5b6000816007015490506000826007018190555082156112475760008260020160009054906101000a900473ffffffffffffffffffffffffffffffffffffffff1673ffffffffffffffffffffffffffffffffffffffff16826040516111bb9061270b565b60006040518083038185875af1925050503d80600081146111f8576040519150601f19603f3d011682016040523d82523d6000602084013e6111fd565b606091505b5050905080611241576040517f08c379a000000000000000000000000000000000000000000000000000000000815260040161123890612a5a565b60405180910390fd5b50611319565b60008260010160009054906101000a900473ffffffffffffffffffffffffffffffffffffffff1673ffffffffffffffffffffffffffffffffffffffff16826040516112919061270b565b60006040518083038185875af1925050503d80600081146112ce576040519150601f19603f3d011682016040523d82523d6000602084013e6112d3565b606091505b5050905080611317576040517f08c379a000000000000000000000000000000000000000000000000000000000815260040161130e90612b9e565b60405180910390fd5b505b60058260080160006101000a81548160ff0219169083600681111561134157611340611c31565b5b0217905550837f5a87909bff68caaaaf0b3fd9c74eeccc928832f879315e5c6fb7a73612f26c0c846040516113769190612bcd565b60405180910390a25050611388611ada565b5050565b6060600460008373ffffffffffffffffffffffffffffffffffffffff1673ffffffffffffffffffffffffffffffffffffffff16815260200190815260200160002080548060200260200160405190810160405280929190818152602001828054801561141757602002820191906000526020600020905b815481526020019060010190808311611403575b50505050509050919050565b7f000000000000000000000000000000000000000000000000000000000000000081565b61144f611a94565b60006002600083815260200190815260200160002090506000600681111561147a57611479611c31565b5b8160080160009054906101000a900460ff16600681111561149e5761149d611c31565b5b146114de576040517f08c379a00000000000000000000000000000000000000000000000000000000081526004016114d5906128aa565b60405180910390fd5b6003600083815260200190815260200160002060405180604001604052803373ffffffffffffffffffffffffffffffffffffffff16815260200134815250908060018154018082558091505060019003906000526020600020906002020160009091909190915060008201518160000160006101000a81548173ffffffffffffffffffffffffffffffffffffffff021916908373ffffffffffffffffffffffffffffffffffffffff1602179055506020820151816001015550503373ffffffffffffffffffffffffffffffffffffffff16827f0e54eff26401bf69b81b26f60bd85ef47f5d85275c1d268d84f68d6897431c47346040516115df9190611eb0565b60405180910390a3506115f0611ada565b50565b60006002600083815260200190815260200160002090508060010160009054906101000a900473ffffffffffffffffffffffffffffffffffffffff1673ffffffffffffffffffffffffffffffffffffffff163373ffffffffffffffffffffffffffffffffffffffff1614806116b757508060020160009054906101000a900473ffffffffffffffffffffffffffffffffffffffff1673ffffffffffffffffffffffffffffffffffffffff163373ffffffffffffffffffffffffffffffffffffffff16145b6116f6576040517f08c379a00000000000000000000000000000000000000000000000000000000081526004016116ed90612c34565b60405180910390fd5b6002600681111561170a57611709611c31565b5b8160080160009054906101000a900460ff16600681111561172e5761172d611c31565b5b148061176f57506001600681111561174957611748611c31565b5b8160080160009054906101000a900460ff16600681111561176d5761176c611c31565b5b145b6117ae576040517f08c379a00000000000000000000000000000000000000000000000000000000081526004016117a590612ca0565b60405180910390fd5b60048160080160006101000a81548160ff021916908360068111156117d6576117d5611c31565b5b0217905550817f04901f83201c8724eadf084436db8aa391820bae6d11f9f78a17edb6f2eef3cf60405160405180910390a25050565b606060036000838152602001908152602001600020805480602002602001604051908101604052809291908181526020016000905b828210156118d357838290600052602060002090600202016040518060400160405290816000820160009054906101000a900473ffffffffffffffffffffffffffffffffffffffff1673ffffffffffffffffffffffffffffffffffffffff1673ffffffffffffffffffffffffffffffffffffffff16815260200160018201548152505081526020019060010190611841565b505050509050919050565b826002600082815260200190815260200160002060020160009054906101000a900473ffffffffffffffffffffffffffffffffffffffff1673ffffffffffffffffffffffffffffffffffffffff163373ffffffffffffffffffffffffffffffffffffffff1614611983576040517f08c379a000000000000000000000000000000000000000000000000000000000815260040161197a90612d0c565b60405180910390fd5b6000600260008681526020019081526020016000209050600160068111156119ae576119ad611c31565b5b8160080160009054906101000a900460ff1660068111156119d2576119d1611c31565b5b14611a12576040517f08c379a0000000000000000000000000000000000000000000000000000000008152600401611a0990612d78565b60405180910390fd5b8383826005019182611a25929190612503565b5060028160080160006101000a81548160ff02191690836006811115611a4e57611a4d611c31565b5b0217905550847f3822c71b106c7c1dabf7f076e68c9bd98c45d0cd0d073f4dcdaf422a0fe558478585604051611a85929190612dd4565b60405180910390a25050505050565b600260005403611ad0576040517f3ee5aeb500000000000000000000000000000000000000000000000000000000815260040160405180910390fd5b6002600081905550565b6001600081905550565b600080fd5b600080fd5b6000819050919050565b611b0181611aee565b8114611b0c57600080fd5b50565b600081359050611b1e81611af8565b92915050565b600060208284031215611b3a57611b39611ae4565b5b6000611b4884828501611b0f565b91505092915050565b611b5a81611aee565b82525050565b600073ffffffffffffffffffffffffffffffffffffffff82169050919050565b6000611b8b82611b60565b9050919050565b611b9b81611b80565b82525050565b600081519050919050565b600082825260208201905092915050565b60005b83811015611bdb578082015181840152602081019050611bc0565b60008484015250505050565b6000601f19601f8301169050919050565b6000611c0382611ba1565b611c0d8185611bac565b9350611c1d818560208601611bbd565b611c2681611be7565b840191505092915050565b7f4e487b7100000000000000000000000000000000000000000000000000000000600052602160045260246000fd5b60078110611c7157611c70611c31565b5b50565b6000819050611c8282611c60565b919050565b6000611c9282611c74565b9050919050565b611ca281611c87565b82525050565b600061012082019050611cbe600083018c611b51565b611ccb602083018b611b92565b611cd8604083018a611b92565b8181036060830152611cea8189611bf8565b90508181036080830152611cfe8188611bf8565b905081810360a0830152611d128187611bf8565b9050611d2160c0830186611b51565b611d2e60e0830185611b51565b611d3c610100830184611c99565b9a9950505050505050505050565b600080fd5b600080fd5b600080fd5b60008083601f840112611d6f57611d6e611d4a565b5b8235905067ffffffffffffffff811115611d8c57611d8b611d4f565b5b602083019150836001820283011115611da857611da7611d54565b5b9250929050565b600080600080600060608688031215611dcb57611dca611ae4565b5b600086013567ffffffffffffffff811115611de957611de8611ae9565b5b611df588828901611d59565b95509550506020611e0888828901611b0f565b935050604086013567ffffffffffffffff811115611e2957611e28611ae9565b5b611e3588828901611d59565b92509250509295509295909350565b611e4d81611b80565b8114611e5857600080fd5b50565b600081359050611e6a81611e44565b92915050565b60008060408385031215611e8757611e86611ae4565b5b6000611e9585828601611b0f565b9250506020611ea685828601611e5b565b9150509250929050565b6000602082019050611ec56000830184611b51565b92915050565b60008115159050919050565b611ee081611ecb565b8114611eeb57600080fd5b50565b600081359050611efd81611ed7565b92915050565b60008060408385031215611f1a57611f19611ae4565b5b6000611f2885828601611b0f565b9250506020611f3985828601611eee565b9150509250929050565b600060208284031215611f5957611f58611ae4565b5b6000611f6784828501611e5b565b91505092915050565b600081519050919050565b600082825260208201905092915050565b6000819050602082019050919050565b611fa581611aee565b82525050565b6000611fb78383611f9c565b60208301905092915050565b6000602082019050919050565b6000611fdb82611f70565b611fe58185611f7b565b9350611ff083611f8c565b8060005b838110156120215781516120088882611fab565b975061201383611fc3565b925050600181019050611ff4565b5085935050505092915050565b600060208201905081810360008301526120488184611fd0565b905092915050565b60006020820190506120656000830184611b92565b92915050565b600081519050919050565b600082825260208201905092915050565b6000819050602082019050919050565b6120a081611b80565b82525050565b6040820160008201516120bc6000850182612097565b5060208201516120cf6020850182611f9c565b50505050565b60006120e183836120a6565b60408301905092915050565b6000602082019050919050565b60006121058261206b565b61210f8185612076565b935061211a83612087565b8060005b8381101561214b57815161213288826120d5565b975061213d836120ed565b92505060018101905061211e565b5085935050505092915050565b6000602082019050818103600083015261217281846120fa565b905092915050565b60008060006040848603121561219357612192611ae4565b5b60006121a186828701611b0f565b935050602084013567ffffffffffffffff8111156121c2576121c1611ae9565b5b6121ce86828701611d59565b92509250509250925092565b7f4e487b7100000000000000000000000000000000000000000000000000000000600052602260045260246000fd5b6000600282049050600182168061222157607f821691505b602082108103612234576122336121da565b5b50919050565b7f427564676574206d757374206265203e20300000000000000000000000000000600082015250565b6000612270601283611bac565b915061227b8261223a565b602082019050919050565b6000602082019050818103600083015261229f81612263565b9050919050565b7f4e487b7100000000000000000000000000000000000000000000000000000000600052601160045260246000fd5b60006122e082611aee565b91507fffffffffffffffffffffffffffffffffffffffffffffffffffffffffffffffff8203612312576123116122a6565b5b600182019050919050565b600082905092915050565b7f4e487b7100000000000000000000000000000000000000000000000000000000600052604160045260246000fd5b60008190508160005260206000209050919050565b60006020601f8301049050919050565b600082821b905092915050565b6000600883026123b97fffffffffffffffffffffffffffffffffffffffffffffffffffffffffffffffff8261237c565b6123c3868361237c565b95508019841693508086168417925050509392505050565b6000819050919050565b60006124006123fb6123f684611aee565b6123db565b611aee565b9050919050565b6000819050919050565b61241a836123e5565b61242e61242682612407565b848454612389565b825550505050565b600090565b612443612436565b61244e818484612411565b505050565b5b818110156124725761246760008261243b565b600181019050612454565b5050565b601f8211156124b75761248881612357565b6124918461236c565b810160208510156124a0578190505b6124b46124ac8561236c565b830182612453565b50505b505050565b600082821c905092915050565b60006124da600019846008026124bc565b1980831691505092915050565b60006124f383836124c9565b9150826002028217905092915050565b61250d838361231d565b67ffffffffffffffff81111561252657612525612328565b5b6125308254612209565b61253b828285612476565b6000601f83116001811461256a5760008415612558578287013590505b61256285826124e7565b8655506125ca565b601f19841661257886612357565b60005b828110156125a05784890135825560018201915060208501945060208101905061257b565b868310156125bd57848901356125b9601f8916826124c9565b8355505b6001600288020188555050505b50505050505050565b7f4e6f74206a6f62206f776e657200000000000000000000000000000000000000600082015250565b6000612609600d83611bac565b9150612614826125d3565b602082019050919050565b60006020820190508181036000830152612638816125fc565b9050919050565b7f4a6f6220616c726561647920696e2070726f6772657373000000000000000000600082015250565b6000612675601783611bac565b91506126808261263f565b602082019050919050565b600060208201905081810360008301526126a481612668565b9050919050565b7f4e487b7100000000000000000000000000000000000000000000000000000000600052603260045260246000fd5b600081905092915050565b50565b60006126f56000836126da565b9150612700826126e5565b600082019050919050565b6000612716826126e8565b9150819050919050565b7f42696420726566756e64206661696c6564000000000000000000000000000000600082015250565b6000612756601183611bac565b915061276182612720565b602082019050919050565b6000602082019050818103600083015261278581612749565b9050919050565b61279582611ba1565b67ffffffffffffffff8111156127ae576127ad612328565b5b6127b88254612209565b6127c3828285612476565b600060209050601f8311600181146127f657600084156127e4578287015190505b6127ee85826124e7565b865550612856565b601f19841661280486612357565b60005b8281101561282c57848901518255600182019150602085019450602081019050612807565b868310156128495784890151612845601f8916826124c9565b8355505b6001600288020188555050505b505050505050565b7f4a6f62206e6f74206f70656e0000000000000000000000000000000000000000600082015250565b6000612894600c83611bac565b915061289f8261285e565b602082019050919050565b600060208201905081810360008301526128c381612887565b9050919050565b7f53656e642066756c6c2062756467657400000000000000000000000000000000600082015250565b6000612900601083611bac565b915061290b826128ca565b602082019050919050565b6000602082019050818103600083015261292f816128f3565b9050919050565b7f42616420667265656c616e636572000000000000000000000000000000000000600082015250565b600061296c600e83611bac565b915061297782612936565b602082019050919050565b6000602082019050818103600083015261299b8161295f565b9050919050565b7f576f726b206e6f74207375626d69747465640000000000000000000000000000600082015250565b60006129d8601283611bac565b91506129e3826129a2565b602082019050919050565b60006020820190508181036000830152612a07816129cb565b9050919050565b7f5472616e73666572206661696c65640000000000000000000000000000000000600082015250565b6000612a44600f83611bac565b9150612a4f82612a0e565b602082019050919050565b60006020820190508181036000830152612a7381612a37565b9050919050565b7f4f6e6c7920636f6e7472616374206f776e6572202864656d6f29000000000000600082015250565b6000612ab0601a83611bac565b9150612abb82612a7a565b602082019050919050565b60006020820190508181036000830152612adf81612aa3565b9050919050565b7f4e6f206469737075746500000000000000000000000000000000000000000000600082015250565b6000612b1c600a83611bac565b9150612b2782612ae6565b602082019050919050565b60006020820190508181036000830152612b4b81612b0f565b9050919050565b7f526566756e64206661696c656400000000000000000000000000000000000000600082015250565b6000612b88600d83611bac565b9150612b9382612b52565b602082019050919050565b60006020820190508181036000830152612bb781612b7b565b9050919050565b612bc781611ecb565b82525050565b6000602082019050612be26000830184612bbe565b92915050565b7f4f6e6c7920696e766f6c76656420706172746965730000000000000000000000600082015250565b6000612c1e601583611bac565b9150612c2982612be8565b602082019050919050565b60006020820190508181036000830152612c4d81612c11565b9050919050565b7f43616e6e6f742064697370757465000000000000000000000000000000000000600082015250565b6000612c8a600e83611bac565b9150612c9582612c54565b602082019050919050565b60006020820190508181036000830152612cb981612c7d565b9050919050565b7f4e6f7420686972656420667265656c616e636572000000000000000000000000600082015250565b6000612cf6601483611bac565b9150612d0182612cc0565b602082019050919050565b60006020820190508181036000830152612d2581612ce9565b9050919050565b7f57726f6e67207374617475730000000000000000000000000000000000000000600082015250565b6000612d62600c83611bac565b9150612d6d82612d2c565b602082019050919050565b60006020820190508181036000830152612d9181612d55565b9050919050565b82818337600083830152505050565b6000612db38385611bac565b9350612dc0838584612d98565b612dc983611be7565b840190509392505050565b60006020820190508181036000830152612def818486612da7565b9050939250505056fea2646970667358221220def147b75c9f3e80c670ff336f94890ebcb257d6fd7463144aea002ddb20976b64736f6c634300081c0033",
  "linkReferences": {},
  "deployedLinkReferences": {}
}