{
  "_format": "hh-sol-artifact-1",
  "contractName": "FreelanceEscrow",
  "sourceName": "contracts/FreelanceEscrow.sol",
  "abi": [
    {
      "inputs": [],
      "stateMutability": "nonpayable",
      "type": "constructor"
    },
    {
      "inputs": [],
      "name": "ReentrancyGuardReentrantCall",
      "type": "error"
    },
    {
      "anonymous": false,
      "inputs": [
        {
          "indexed": true,
          "internalType": "uint256",
          "name": "id",
          "type": "uint256"
        },
        {
          "indexed": true,
          "internalType": "address",
          "name": "freelancer",
          "type": "address"
        },
        {
          "indexed": false,
          "internalType": "uint256",
          "name": "amount",
          "type": "uint256"
        }
      ],
      "name": "BidPlaced",
      "type": "event"
    },
    {
      "anonymous": false,
      "inputs": [
        {
          "indexed": true,
          "internalType": "uint256",
          "name": "id",
          "type": "uint256"
        }
      ],
      "name": "DisputeRaised",
      "type": "event"
    },
    {
      "anonymous": false,
      "inputs": [
        {
          "indexed": true,
          "internalType": "uint256",
          "name": "id",
          "type": "uint256"
        },
        {
          "indexed": false,
          "internalType": "bool",
          "name": "releasedToFreelancer",
          "type": "bool"
        }
      ],
      "name": "DisputeResolved",
      "type": "event"
    },
    {
      "anonymous": false,
      "inputs": [
        {
          "indexed": true,
          "internalType": "uint256",
          "name": "id",
          "type": "uint256"
        },
        {
          "indexed": true,
          "internalType": "address",
          "name": "freelancer",
          "type": "address"
        },
        {
          "indexed": false,
          "internalType": "uint256",
          "name": "escrow",
          "type": "uint256"
        }
      ],
      "name": "FreelancerSelected",
      "type": "event"
    },
    {
      "anonymous": false,
      "inputs": [
        {
          "indexed": true,
          "internalType": "uint256",
          "name": "id",
          "type": "uint256"
        },
        {
          "indexed": false,
          "internalType": "uint256",
          "name": "payout",
          "type": "uint256"
        }
      ],
      "name": "JobApproved",
      "type": "event"
    },
    {
      "anonymous": false,
      "inputs": [
        {
          "indexed": true,
          "internalType": "uint256",
          "name": "id",
          "type": "uint256"
        }
      ],
      "name": "JobCancelled",
      "type": "event"
    },
    {
      "anonymous": false,
      "inputs": [
        {
          "indexed": true,
          "internalType": "uint256",
          "name": "id",
          "type": "uint256"
        },
        {
          "indexed": true,
          "internalType": "address",
          "name": "client",
          "type": "address"
        },
        {
          "indexed": false,
          "internalType": "uint256",
          "name": "budget",
          "type": "uint256"
        }
      ],
      "name": "JobCreated",
      "type": "event"
    },
    {
      "anonymous": false,
      "inputs": [
        {
          "indexed": true,
          "internalType": "uint256",
          "name": "id",
          "type": "uint256"
        },
        {
          "indexed": false,
          "internalType": "string",
          "name": "submissionCID",
          "type": "string"
        }
      ],
      "name": "WorkSubmitted",
      "type": "event"
    },
    {
      "inputs": [
        {
          "internalType": "uint256",
          "name": "id",
          "type": "uint256"
        }
      ],
      "name": "approveWork",
      "outputs": [],
      "stateMutability": "nonpayable",
      "type": "function"
    },
    {
      "inputs": [
        {
          "internalType": "uint256",
          "name": "id",
          "type": "uint256"
        }
      ],
      "name": "cancelJob",
      "outputs": [],
      "stateMutability": "nonpayable",
      "type": "function"
    },
    {
      "inputs": [
        {
          "internalType": "string",
          "name": "_title",
          "type": "string"
        },
        {
          "internalType": "uint256",
          "name": "_budget",
          "type": "uint256"
        },
        {
          "internalType": "string",
          "name": "_specCID",
          "type": "string"
        }
      ],
      "name": "createJob",
      "outputs": [],
      "stateMutability": "nonpayable",
      "type": "function"
    },
    {
      "inputs": [],
      "name": "jobCount",
      "outputs": [
        {
          "internalType": "uint256",
          "name": "",
          "type": "uint256"
        }
      ],
      "stateMutability": "view",
      "type": "function"
    },
    {
      "inputs": [
        {
          "internalType": "uint256",
          "name": "",
          "type": "uint256"
        }
      ],
      "name": "jobs",
      "outputs": [
        {
          "internalType": "uint256",
          "name": "jobId",
          "type": "uint256"
        },
        {
          "internalType": "address",
          "name": "client",
          "type": "address"
        },
        {
          "internalType": "address",
          "name": "freelancer",
          "type": "address"
        },
        {
          "internalType": "string",
          "name": "title",
          "type": "string"
        },
        {
          "internalType": "string",
          "name": "specCID",
          "type": "string"
        },
        {
          "internalType": "string",
          "name": "submissionCID",
          "type": "string"
        },
        {
          "internalType": "uint256",
          "name": "budget",
          "type": "uint256"
        },
        {
          "internalType": "uint256",
          "name": "escrow",
          "type": "uint256"
        },
        {
          "internalType": "enum FreelanceEscrow.JobStatus",
          "name": "status",
          "type": "uint8"
        }
      ],
      "stateMutability": "view",
      "type": "function"
    },
    {
      "inputs": [
        {
          "internalType": "address",
          "name": "user",
          "type": "address"
        }
      ],
      "name": "jobsOf",
      "outputs": [
        {
          "internalType": "uint256[]",
          "name": "",
          "type": "uint256[]"
        }
      ],
      "stateMutability": "view",
      "type": "function"
    },
    {
      "inputs": [
        {
          "internalType": "uint256",
          "name": "id",
          "type": "uint256"
        }
      ],
      "name": "listBids",
      "outputs": [
        {
          "components": [
            {
              "internalType": "address",
              "name": "bidder",
              "type": "address"
            },
            {
              "internalType": "uint256",
              "name": "amount",
              "type": "uint256"
            }
          ],
          "internalType": "struct FreelanceEscrow.Bid[]",
          "name": "",
          "type": "tuple[]"
        }
      ],
      "stateMutability": "view",
      "type": "function"
    },
    {
      "inputs": [],
      "name": "listOpenJobs",
      "outputs": [
        {
          "components": [
            {
              "internalType": "uint256",
              "name": "jobId",
              "type": "uint256"
            },
            {
              "internalType": "address",
              "name": "client",
              "type": "address"
            },
            {
              "internalType": "address",
              "name": "freelancer",
              "type": "address"
            },
            {
              "internalType": "string",
              "name": "title",
              "type": "string"
            },
            {
              "internalType": "string",
              "name": "specCID",
              "type": "string"
            },
            {
              "internalType": "string",
              "name": "submissionCID",
              "type": "string"
            },
            {
              "internalType": "uint256",
              "name": "budget",
              "type": "uint256"
            },
            {
              "internalType": "uint256",
              "name": "escrow",
              "type": "uint256"
            },
            {
              "internalType": "enum FreelanceEscrow.JobStatus",
              "name": "status",
              "type": "uint8"
            }
          ],
          "internalType": "struct FreelanceEscrow.Job[]",
          "name": "",
          "type": "tuple[]"
        }
      ],
      "stateMutability": "view",
      "type": "function"
    },
    {
      "inputs": [],
      "name": "owner",
      "outputs": [
        {
          "internalType": "address",
          "name": "",
          "type": "address"
        }
      ],
      "stateMutability": "view",
      "type": "function"
    },
    {
      "inputs": [
        {
          "internalType": "uint256",
          "name": "id",
          "type": "uint256"
        },
        {
          "internalType": "bool",
          "name": "releaseToFreelancer",
          "type": "bool"
        }
      ],
      "name": "ownerResolveDispute",
      "outputs": [],
      "stateMutability": "nonpayable",
      "type": "function"
    },
    {
      "inputs": [
        {
          "internalType": "uint256",
          "name": "id",
          "type": "uint256"
        }
      ],
      "name": "placeBid",
      "outputs": [],
      "stateMutability": "payable",
      "type": "function"
    },
    {
      "inputs": [
        {
          "internalType": "uint256",
          "name": "id",
          "type": "uint256"
        }
      ],
      "name": "raiseDispute",
      "outputs": [],
      "stateMutability": "nonpayable",
      "type": "function"
    },
    {
      "inputs": [
        {
          "internalType": "uint256",
          "name": "id",
          "type": "uint256"
        },
        {
          "internalType": "address",
          "name": "_freelancer",
          "type": "address"
        }
      ],
      "name": "selectFreelancer",
      "outputs": [],
      "stateMutability": "payable",
      "type": "function"
    },
    {
      "inputs": [
        {
          "internalType": "uint256",
          "name": "id",
          "type": "uint256"
        },
        {
          "internalType": "string",
          "name": "_submissionCID",
          "type": "string"
        }
      ],
      "name": "submitWork",
      "outputs": [],
      "stateMutability": "nonpayable",
      "type": "function"
    }
  ],
  "bytecode": "0x60a0604052348015600f57600080fd5b5060016000819055503373ffffffffffffffffffffffffffffffffffffffff1660808173ffffffffffffffffffffffffffffffffffffffff1681525050600060018190555060805161356f61007660003960008181611083015261146b015261356f6000f3fe6080604052600436106100dd5760003560e01c80636373d2ea1161007f578063a5c1674e11610059578063a5c1674e14610296578063b193aee0146102bf578063b29fed27146102fc578063da8accf914610327576100dd565b80636373d2ea146102125780638da5cb5b1461024f5780639979ef451461027a576100dd565b8063380deabc116100bb578063380deabc146101795780633d01e0fa146101955780634c5d8a0f146101be57806360ec218d146101e9576100dd565b8063180aedf3146100e257806319eb5ae4146101275780631dffa3dc14610150575b600080fd5b3480156100ee57600080fd5b5061010960048036038101906101049190612055565b610350565b60405161011e999897969594939291906121d9565b60405180910390f35b34801561013357600080fd5b5061014e600480360381019061014991906122e0565b610583565b005b34801561015c57600080fd5b5061017760048036038101906101729190612055565b610762565b005b610193600480360381019061018e91906123a1565b610aec565b005b3480156101a157600080fd5b506101bc60048036038101906101b79190612055565b610db3565b005b3480156101ca57600080fd5b506101d3611073565b6040516101e091906123e1565b60405180910390f35b3480156101f557600080fd5b50610210600480360381019061020b9190612434565b611079565b005b34801561021e57600080fd5b5061023960048036038101906102349190612474565b6113d2565b604051610246919061255f565b60405180910390f35b34801561025b57600080fd5b50610264611469565b6040516102719190612581565b60405180910390f35b610294600480360381019061028f9190612055565b61148d565b005b3480156102a257600080fd5b506102bd60048036038101906102b89190612055565b611639565b005b3480156102cb57600080fd5b506102e660048036038101906102e19190612055565b611852565b6040516102f39190612689565b60405180910390f35b34801561030857600080fd5b50610311611924565b60405161031e9190612899565b60405180910390f35b34801561033357600080fd5b5061034e600480360381019061034991906128bb565b611d85565b005b60026020528060005260406000206000915090508060000154908060010160009054906101000a900473ffffffffffffffffffffffffffffffffffffffff16908060020160009054906101000a900473ffffffffffffffffffffffffffffffffffffffff16908060030180546103c59061294a565b80601f01602080910402602001604051908101604052809291908181526020018280546103f19061294a565b801561043e5780601f106104135761010080835404028352916020019161043e565b820191906000526020600020905b81548152906001019060200180831161042157829003601f168201915b5050505050908060040180546104539061294a565b80601f016020809104026020016040519081016040528092919081815260200182805461047f9061294a565b80156104cc5780601f106104a1576101008083540402835291602001916104cc565b820191906000526020600020905b8154815290600101906020018083116104af57829003601f168201915b5050505050908060050180546104e19061294a565b80601f016020809104026020016040519081016040528092919081815260200182805461050d9061294a565b801561055a5780601f1061052f5761010080835404028352916020019161055a565b820191906000526020600020905b81548152906001019060200180831161053d57829003601f168201915b5050505050908060060154908060070154908060080160009054906101000a900460ff16905089565b600083116105c6576040517f08c379a00000000000000000000000000000000000000000000000000000000081526004016105bd906129c7565b60405180910390fd5b6001600081546105d590612a16565b91905081905550600060026000600154815260200190815260200160002090506001548160000181905550338160010160006101000a81548173ffffffffffffffffffffffffffffffffffffffff021916908373ffffffffffffffffffffffffffffffffffffffff1602179055508585826003019182610656929190612c44565b50828282600401918261066a929190612c44565b5083816006018190555060008160080160006101000a81548160ff0219169083600681111561069c5761069b612162565b5b0217905550600460003373ffffffffffffffffffffffffffffffffffffffff1673ffffffffffffffffffffffffffffffffffffffff16815260200190815260200160002060015490806001815401808255809150506001900390600052602060002001600090919091909150553373ffffffffffffffffffffffffffffffffffffffff166001547f8678ba2d99dba901dafc51009f8d402d37a5a0275752cf0e263b827aeca906f28660405161075291906123e1565b60405180910390a3505050505050565b806002600082815260200190815260200160002060010160009054906101000a900473ffffffffffffffffffffffffffffffffffffffff1673ffffffffffffffffffffffffffffffffffffffff163373ffffffffffffffffffffffffffffffffffffffff1614610807576040517f08c379a00000000000000000000000000000000000000000000000000000000081526004016107fe90612d60565b60405180910390fd5b61080f611f3b565b60006002600084815260200190815260200160002090506000600681111561083a57610839612162565b5b8160080160009054906101000a900460ff16600681111561085e5761085d612162565b5b1461089e576040517f08c379a000000000000000000000000000000000000000000000000000000000815260040161089590612dcc565b60405180910390fd5b600060036000858152602001908152602001600020905060005b8180549050811015610a145760008282815481106108d9576108d8612dec565b5b9060005260206000209060020201600101541115610a0757600082828154811061090657610905612dec565b5b906000526020600020906002020160000160009054906101000a900473ffffffffffffffffffffffffffffffffffffffff1673ffffffffffffffffffffffffffffffffffffffff1683838154811061096157610960612dec565b5b90600052602060002090600202016001015460405161097f90612e4c565b60006040518083038185875af1925050503d80600081146109bc576040519150601f19603f3d011682016040523d82523d6000602084013e6109c1565b606091505b5050905080610a05576040517f08c379a00000000000000000000000000000000000000000000000000000000081526004016109fc90612ead565b60405180910390fd5b505b80806001019150506108b8565b5060068260080160006101000a81548160ff02191690836006811115610a3d57610a3c612162565b5b021790555060008260020160006101000a81548173ffffffffffffffffffffffffffffffffffffffff021916908373ffffffffffffffffffffffffffffffffffffffff1602179055506000826007018190555060405180602001604052806000815250826005019081610ab09190612ecd565b50837f58243f872c550ad02802199ade99eb4250f6bb19e9abbf2d3de7b969c0eb5e4f60405160405180910390a25050610ae8611f81565b5050565b816002600082815260200190815260200160002060010160009054906101000a900473ffffffffffffffffffffffffffffffffffffffff1673ffffffffffffffffffffffffffffffffffffffff163373ffffffffffffffffffffffffffffffffffffffff1614610b91576040517f08c379a0000000000000000000000000000000000000000000000000000000008152600401610b8890612d60565b60405180910390fd5b610b99611f3b565b600060026000858152602001908152602001600020905060006006811115610bc457610bc3612162565b5b8160080160009054906101000a900460ff166006811115610be857610be7612162565b5b14610c28576040517f08c379a0000000000000000000000000000000000000000000000000000000008152600401610c1f90612feb565b60405180910390fd5b80600601543414610c6e576040517f08c379a0000000000000000000000000000000000000000000000000000000008152600401610c6590613057565b60405180910390fd5b600073ffffffffffffffffffffffffffffffffffffffff168373ffffffffffffffffffffffffffffffffffffffff1603610cdd576040517f08c379a0000000000000000000000000000000000000000000000000000000008152600401610cd4906130c3565b60405180910390fd5b828160020160006101000a81548173ffffffffffffffffffffffffffffffffffffffff021916908373ffffffffffffffffffffffffffffffffffffffff16021790555034816007018190555060018160080160006101000a81548160ff02191690836006811115610d5157610d50612162565b5b02179055508273ffffffffffffffffffffffffffffffffffffffff16847fba05c38d28e2e6022a8f924642d334448e5d8af223b5ae9585baad3d0ce776ec34604051610d9d91906123e1565b60405180910390a350610dae611f81565b505050565b806002600082815260200190815260200160002060010160009054906101000a900473ffffffffffffffffffffffffffffffffffffffff1673ffffffffffffffffffffffffffffffffffffffff163373ffffffffffffffffffffffffffffffffffffffff1614610e58576040517f08c379a0000000000000000000000000000000000000000000000000000000008152600401610e4f90612d60565b60405180910390fd5b610e60611f3b565b600060026000848152602001908152602001600020905060026006811115610e8b57610e8a612162565b5b8160080160009054906101000a900460ff166006811115610eaf57610eae612162565b5b14610eef576040517f08c379a0000000000000000000000000000000000000000000000000000000008152600401610ee69061312f565b60405180910390fd5b6000816007015490506000826007018190555060038260080160006101000a81548160ff02191690836006811115610f2a57610f29612162565b5b021790555060008260020160009054906101000a900473ffffffffffffffffffffffffffffffffffffffff1673ffffffffffffffffffffffffffffffffffffffff1682604051610f7990612e4c565b60006040518083038185875af1925050503d8060008114610fb6576040519150601f19603f3d011682016040523d82523d6000602084013e610fbb565b606091505b5050905080610fff576040517f08c379a0000000000000000000000000000000000000000000000000000000008152600401610ff69061319b565b60405180910390fd5b60058360080160006101000a81548160ff0219169083600681111561102757611026612162565b5b0217905550847f72a8659d664e8c3afdc18cf46adfba3acd130a459e0658ed768a45b08c0836208360405161105c91906123e1565b60405180910390a250505061106f611f81565b5050565b60015481565b611081611f3b565b7f000000000000000000000000000000000000000000000000000000000000000073ffffffffffffffffffffffffffffffffffffffff163373ffffffffffffffffffffffffffffffffffffffff161461110f576040517f08c379a000000000000000000000000000000000000000000000000000000000815260040161110690613207565b60405180910390fd5b60006002600084815260200190815260200160002090506004600681111561113a57611139612162565b5b8160080160009054906101000a900460ff16600681111561115e5761115d612162565b5b1461119e576040517f08c379a000000000000000000000000000000000000000000000000000000000815260040161119590613273565b60405180910390fd5b60008160070154905060008260070181905550821561128d5760008260020160009054906101000a900473ffffffffffffffffffffffffffffffffffffffff1673ffffffffffffffffffffffffffffffffffffffff168260405161120190612e4c565b60006040518083038185875af1925050503d806000811461123e576040519150601f19603f3d011682016040523d82523d6000602084013e611243565b606091505b5050905080611287576040517f08c379a000000000000000000000000000000000000000000000000000000000815260040161127e9061319b565b60405180910390fd5b5061135f565b60008260010160009054906101000a900473ffffffffffffffffffffffffffffffffffffffff1673ffffffffffffffffffffffffffffffffffffffff16826040516112d790612e4c565b60006040518083038185875af1925050503d8060008114611314576040519150601f19603f3d011682016040523d82523d6000602084013e611319565b606091505b505090508061135d576040517f08c379a0000000000000000000000000000000000000000000000000000000008152600401611354906132df565b60405180910390fd5b505b60058260080160006101000a81548160ff0219169083600681111561138757611386612162565b5b0217905550837f5a87909bff68caaaaf0b3fd9c74eeccc928832f879315e5c6fb7a73612f26c0c846040516113bc919061330e565b60405180910390a250506113ce611f81565b5050565b6060600460008373ffffffffffffffffffffffffffffffffffffffff1673ffffffffffffffffffffffffffffffffffffffff16815260200190815260200160002080548060200260200160405190810160405280929190818152602001828054801561145d57602002820191906000526020600020905b815481526020019060010190808311611449575b50505050509050919050565b7f000000000000000000000000000000000000000000000000000000000000000081565b611495611f3b565b6000600260008381526020019081526020016000209050600060068111156114c0576114bf612162565b5b8160080160009054906101000a900460ff1660068111156114e4576114e3612162565b5b14611524576040517f08c379a000000000000000000000000000000000000000000000000000000000815260040161151b90612feb565b60405180910390fd5b6003600083815260200190815260200160002060405180604001604052803373ffffffffffffffffffffffffffffffffffffffff16815260200134815250908060018154018082558091505060019003906000526020600020906002020160009091909190915060008201518160000160006101000a81548173ffffffffffffffffffffffffffffffffffffffff021916908373ffffffffffffffffffffffffffffffffffffffff1602179055506020820151816001015550503373ffffffffffffffffffffffffffffffffffffffff16827f0e54eff26401bf69b81b26f60bd85ef47f5d85275c1d268d84f68d6897431c473460405161162591906123e1565b60405180910390a350611636611f81565b50565b60006002600083815260200190815260200160002090508060010160009054906101000a900473ffffffffffffffffffffffffffffffffffffffff1673ffffffffffffffffffffffffffffffffffffffff163373ffffffffffffffffffffffffffffffffffffffff1614806116fd57508060020160009054906101000a900473ffffffffffffffffffffffffffffffffffffffff1673ffffffffffffffffffffffffffffffffffffffff163373ffffffffffffffffffffffffffffffffffffffff16145b61173c576040517f08c379a000000000000000000000000000000000000000000000000000000000815260040161173390613375565b60405180910390fd5b600260068111156117505761174f612162565b5b8160080160009054906101000a900460ff16600681111561177457611773612162565b5b14806117b557506001600681111561178f5761178e612162565b5b8160080160009054906101000a900460ff1660068111156117b3576117b2612162565b5b145b6117f4576040517f08c379a00000000000000000000000000000000000000000000000000000000081526004016117eb906133e1565b60405180910390fd5b60048160080160006101000a81548160ff0219169083600681111561181c5761181b612162565b5b0217905550817f04901f83201c8724eadf084436db8aa391820bae6d11f9f78a17edb6f2eef3cf60405160405180910390a25050565b606060036000838152602001908152602001600020805480602002602001604051908101604052809291908181526020016000905b8282101561191957838290600052602060002090600202016040518060400160405290816000820160009054906101000a900473ffffffffffffffffffffffffffffffffffffffff1673ffffffffffffffffffffffffffffffffffffffff1673ffffffffffffffffffffffffffffffffffffffff16815260200160018201548152505081526020019060010190611887565b505050509050919050565b6060600080600190505b60015481116119a8576000600681111561194b5761194a612162565b5b6002600083815260200190815260200160002060080160009054906101000a900460ff16600681111561198157611980612162565b5b0361199557818061199190612a16565b9250505b80806119a090612a16565b91505061192e565b5060008167ffffffffffffffff8111156119c5576119c4612a69565b5b6040519080825280602002602001820160405280156119fe57816020015b6119eb611f8b565b8152602001906001900390816119e35790505b509050600080600190505b6001548111611d7b5760006006811115611a2657611a25612162565b5b6002600083815260200190815260200160002060080160009054906101000a900460ff166006811115611a5c57611a5b612162565b5b03611d68576002600082815260200190815260200160002060405180610120016040529081600082015481526020016001820160009054906101000a900473ffffffffffffffffffffffffffffffffffffffff1673ffffffffffffffffffffffffffffffffffffffff1673ffffffffffffffffffffffffffffffffffffffff1681526020016002820160009054906101000a900473ffffffffffffffffffffffffffffffffffffffff1673ffffffffffffffffffffffffffffffffffffffff1673ffffffffffffffffffffffffffffffffffffffff168152602001600382018054611b469061294a565b80601f0160208091040260200160405190810160405280929190818152602001828054611b729061294a565b8015611bbf5780601f10611b9457610100808354040283529160200191611bbf565b820191906000526020600020905b815481529060010190602001808311611ba257829003601f168201915b50505050508152602001600482018054611bd89061294a565b80601f0160208091040260200160405190810160405280929190818152602001828054611c049061294a565b8015611c515780601f10611c2657610100808354040283529160200191611c51565b820191906000526020600020905b815481529060010190602001808311611c3457829003601f168201915b50505050508152602001600582018054611c6a9061294a565b80601f0160208091040260200160405190810160405280929190818152602001828054611c969061294a565b8015611ce35780601f10611cb857610100808354040283529160200191611ce3565b820191906000526020600020905b815481529060010190602001808311611cc657829003601f168201915b5050505050815260200160068201548152602001600782015481526020016008820160009054906101000a900460ff166006811115611d2557611d24612162565b5b6006811115611d3757611d36612162565b5b81525050838381518110611d4e57611d4d612dec565b5b60200260200101819052508180611d6490612a16565b9250505b8080611d7390612a16565b915050611a09565b5081935050505090565b826002600082815260200190815260200160002060020160009054906101000a900473ffffffffffffffffffffffffffffffffffffffff1673ffffffffffffffffffffffffffffffffffffffff163373ffffffffffffffffffffffffffffffffffffffff1614611e2a576040517f08c379a0000000000000000000000000000000000000000000000000000000008152600401611e219061344d565b60405180910390fd5b600060026000868152602001908152602001600020905060016006811115611e5557611e54612162565b5b8160080160009054906101000a900460ff166006811115611e7957611e78612162565b5b14611eb9576040517f08c379a0000000000000000000000000000000000000000000000000000000008152600401611eb0906134b9565b60405180910390fd5b8383826005019182611ecc929190612c44565b5060028160080160006101000a81548160ff02191690836006811115611ef557611ef4612162565b5b0217905550847f3822c71b106c7c1dabf7f076e68c9bd98c45d0cd0d073f4dcdaf422a0fe558478585604051611f2c929190613515565b60405180910390a25050505050565b600260005403611f77576040517f3ee5aeb500000000000000000000000000000000000000000000000000000000815260040160405180910390fd5b6002600081905550565b6001600081905550565b60405180610120016040528060008152602001600073ffffffffffffffffffffffffffffffffffffffff168152602001600073ffffffffffffffffffffffffffffffffffffffff16815260200160608152602001606081526020016060815260200160008152602001600081526020016000600681111561200f5761200e612162565b5b81525090565b600080fd5b600080fd5b6000819050919050565b6120328161201f565b811461203d57600080fd5b50565b60008135905061204f81612029565b92915050565b60006020828403121561206b5761206a612015565b5b600061207984828501612040565b91505092915050565b61208b8161201f565b82525050565b600073ffffffffffffffffffffffffffffffffffffffff82169050919050565b60006120bc82612091565b9050919050565b6120cc816120b1565b82525050565b600081519050919050565b600082825260208201905092915050565b60005b8381101561210c5780820151818401526020810190506120f1565b60008484015250505050565b6000601f19601f8301169050919050565b6000612134826120d2565b61213e81856120dd565b935061214e8185602086016120ee565b61215781612118565b840191505092915050565b7f4e487b7100000000000000000000000000000000000000000000000000000000600052602160045260246000fd5b600781106121a2576121a1612162565b5b50565b60008190506121b382612191565b919050565b60006121c3826121a5565b9050919050565b6121d3816121b8565b82525050565b6000610120820190506121ef600083018c612082565b6121fc602083018b6120c3565b612209604083018a6120c3565b818103606083015261221b8189612129565b9050818103608083015261222f8188612129565b905081810360a08301526122438187612129565b905061225260c0830186612082565b61225f60e0830185612082565b61226d6101008301846121ca565b9a9950505050505050505050565b600080fd5b600080fd5b600080fd5b60008083601f8401126122a05761229f61227b565b5b8235905067ffffffffffffffff8111156122bd576122bc612280565b5b6020830191508360018202830111156122d9576122d8612285565b5b9250929050565b6000806000806000606086880312156122fc576122fb612015565b5b600086013567ffffffffffffffff81111561231a5761231961201a565b5b6123268882890161228a565b9550955050602061233988828901612040565b935050604086013567ffffffffffffffff81111561235a5761235961201a565b5b6123668882890161228a565b92509250509295509295909350565b61237e816120b1565b811461238957600080fd5b50565b60008135905061239b81612375565b92915050565b600080604083850312156123b8576123b7612015565b5b60006123c685828601612040565b92505060206123d78582860161238c565b9150509250929050565b60006020820190506123f66000830184612082565b92915050565b60008115159050919050565b612411816123fc565b811461241c57600080fd5b50565b60008135905061242e81612408565b92915050565b6000806040838503121561244b5761244a612015565b5b600061245985828601612040565b925050602061246a8582860161241f565b9150509250929050565b60006020828403121561248a57612489612015565b5b60006124988482850161238c565b91505092915050565b600081519050919050565b600082825260208201905092915050565b6000819050602082019050919050565b6124d68161201f565b82525050565b60006124e883836124cd565b60208301905092915050565b6000602082019050919050565b600061250c826124a1565b61251681856124ac565b9350612521836124bd565b8060005b8381101561255257815161253988826124dc565b9750612544836124f4565b925050600181019050612525565b5085935050505092915050565b600060208201905081810360008301526125798184612501565b905092915050565b600060208201905061259660008301846120c3565b92915050565b600081519050919050565b600082825260208201905092915050565b6000819050602082019050919050565b6125d1816120b1565b82525050565b6040820160008201516125ed60008501826125c8565b50602082015161260060208501826124cd565b50505050565b600061261283836125d7565b60408301905092915050565b6000602082019050919050565b60006126368261259c565b61264081856125a7565b935061264b836125b8565b8060005b8381101561267c5781516126638882612606565b975061266e8361261e565b92505060018101905061264f565b5085935050505092915050565b600060208201905081810360008301526126a3818461262b565b905092915050565b600081519050919050565b600082825260208201905092915050565b6000819050602082019050919050565b600082825260208201905092915050565b60006126f3826120d2565b6126fd81856126d7565b935061270d8185602086016120ee565b61271681612118565b840191505092915050565b61272a816121b8565b82525050565b60006101208301600083015161274960008601826124cd565b50602083015161275c60208601826125c8565b50604083015161276f60408601826125c8565b506060830151848203606086015261278782826126e8565b915050608083015184820360808601526127a182826126e8565b91505060a083015184820360a08601526127bb82826126e8565b91505060c08301516127d060c08601826124cd565b5060e08301516127e360e08601826124cd565b506101008301516127f8610100860182612721565b508091505092915050565b600061280f8383612730565b905092915050565b6000602082019050919050565b600061282f826126ab565b61283981856126b6565b93508360208202850161284b856126c7565b8060005b8581101561288757848403895281516128688582612803565b945061287383612817565b925060208a0199505060018101905061284f565b50829750879550505050505092915050565b600060208201905081810360008301526128b38184612824565b905092915050565b6000806000604084860312156128d4576128d3612015565b5b60006128e286828701612040565b935050602084013567ffffffffffffffff8111156129035761290261201a565b5b61290f8682870161228a565b92509250509250925092565b7f4e487b7100000000000000000000000000000000000000000000000000000000600052602260045260246000fd5b6000600282049050600182168061296257607f821691505b6020821081036129755761297461291b565b5b50919050565b7f427564676574206d757374206265203e20300000000000000000000000000000600082015250565b60006129b16012836120dd565b91506129bc8261297b565b602082019050919050565b600060208201905081810360008301526129e0816129a4565b9050919050565b7f4e487b7100000000000000000000000000000000000000000000000000000000600052601160045260246000fd5b6000612a218261201f565b91507fffffffffffffffffffffffffffffffffffffffffffffffffffffffffffffffff8203612a5357612a526129e7565b5b600182019050919050565b600082905092915050565b7f4e487b7100000000000000000000000000000000000000000000000000000000600052604160045260246000fd5b60008190508160005260206000209050919050565b60006020601f8301049050919050565b600082821b905092915050565b600060088302612afa7fffffffffffffffffffffffffffffffffffffffffffffffffffffffffffffffff82612abd565b612b048683612abd565b95508019841693508086168417925050509392505050565b6000819050919050565b6000612b41612b3c612b378461201f565b612b1c565b61201f565b9050919050565b6000819050919050565b612b5b83612b26565b612b6f612b6782612b48565b848454612aca565b825550505050565b600090565b612b84612b77565b612b8f818484612b52565b505050565b5b81811015612bb357612ba8600082612b7c565b600181019050612b95565b5050565b601f821115612bf857612bc981612a98565b612bd284612aad565b81016020851015612be1578190505b612bf5612bed85612aad565b830182612b94565b50505b505050565b600082821c905092915050565b6000612c1b60001984600802612bfd565b1980831691505092915050565b6000612c348383612c0a565b9150826002028217905092915050565b612c4e8383612a5e565b67ffffffffffffffff811115612c6757612c66612a69565b5b612c71825461294a565b612c7c828285612bb7565b6000601f831160018114612cab5760008415612c99578287013590505b612ca38582612c28565b865550612d0b565b601f198416612cb986612a98565b60005b82811015612ce157848901358255600182019150602085019450602081019050612cbc565b86831015612cfe5784890135612cfa601f891682612c0a565b8355505b6001600288020188555050505b50505050505050565b7f4e6f74206a6f62206f776e657200000000000000000000000000000000000000600082015250565b6000612d4a600d836120dd565b9150612d5582612d14565b602082019050919050565b60006020820190508181036000830152612d7981612d3d565b9050919050565b7f4a6f6220616c726561647920696e2070726f6772657373000000000000000000600082015250565b6000612db66017836120dd565b9150612dc182612d80565b602082019050919050565b60006020820190508181036000830152612de581612da9565b9050919050565b7f4e487b7100000000000000000000000000000000000000000000000000000000600052603260045260246000fd5b600081905092915050565b50565b6000612e36600083612e1b565b9150612e4182612e26565b600082019050919050565b6000612e5782612e29565b9150819050919050565b7f42696420726566756e64206661696c6564000000000000000000000000000000600082015250565b6000612e976011836120dd565b9150612ea282612e61565b602082019050919050565b60006020820190508181036000830152612ec681612e8a565b9050919050565b612ed6826120d2565b67ffffffffffffffff811115612eef57612eee612a69565b5b612ef9825461294a565b612f04828285612bb7565b600060209050601f831160018114612f375760008415612f25578287015190505b612f2f8582612c28565b865550612f97565b601f198416612f4586612a98565b60005b82811015612f6d57848901518255600182019150602085019450602081019050612f48565b86831015612f8a5784890151612f86601f891682612c0a565b8355505b6001600288020188555050505b505050505050565b7f4a6f62206e6f74206f70656e0000000000000000000000000000000000000000600082015250565b6000612fd5600c836120dd565b9150612fe082612f9f565b602082019050919050565b6000602082019050818103600083015261300481612fc8565b9050919050565b7f53656e642066756c6c2062756467657400000000000000000000000000000000600082015250565b60006130416010836120dd565b915061304c8261300b565b602082019050919050565b6000602082019050818103600083015261307081613034565b9050919050565b7f42616420667265656c616e636572000000000000000000000000000000000000600082015250565b60006130ad600e836120dd565b91506130b882613077565b602082019050919050565b600060208201905081810360008301526130dc816130a0565b9050919050565b7f576f726b206e6f74207375626d69747465640000000000000000000000000000600082015250565b60006131196012836120dd565b9150613124826130e3565b602082019050919050565b600060208201905081810360008301526131488161310c565b9050919050565b7f5472616e73666572206661696c65640000000000000000000000000000000000600082015250565b6000613185600f836120dd565b91506131908261314f565b602082019050919050565b600060208201905081810360008301526131b481613178565b9050919050565b7f4f6e6c7920636f6e7472616374206f776e6572202864656d6f29000000000000600082015250565b60006131f1601a836120dd565b91506131fc826131bb565b602082019050919050565b60006020820190508181036000830152613220816131e4565b9050919050565b7f4e6f206469737075746500000000000000000000000000000000000000000000600082015250565b600061325d600a836120dd565b915061326882613227565b602082019050919050565b6000602082019050818103600083015261328c81613250565b9050919050565b7f526566756e64206661696c656400000000000000000000000000000000000000600082015250565b60006132c9600d836120dd565b91506132d482613293565b602082019050919050565b600060208201905081810360008301526132f8816132bc565b9050919050565b613308816123fc565b82525050565b600060208201905061332360008301846132ff565b92915050565b7f4f6e6c7920696e766f6c76656420706172746965730000000000000000000000600082015250565b600061335f6015836120dd565b915061336a82613329565b602082019050919050565b6000602082019050818103600083015261338e81613352565b9050919050565b7f43616e6e6f742064697370757465000000000000000000000000000000000000600082015250565b60006133cb600e836120dd565b91506133d682613395565b602082019050919050565b600060208201905081810360008301526133fa816133be565b9050919050565b7f4e6f7420686972656420667265656c616e636572000000000000000000000000600082015250565b60006134376014836120dd565b915061344282613401565b602082019050919050565b600060208201905081810360008301526134668161342a565b9050919050565b7f57726f6e67207374617475730000000000000000000000000000000000000000600082015250565b60006134a3600c836120dd565b91506134ae8261346d565b602082019050919050565b600060208201905081810360008301526134d281613496565b9050919050565b82818337600083830152505050565b60006134f483856120dd565b93506135018385846134d9565b61350a83612118565b840190509392505050565b600060208201905081810360008301526135308184866134e8565b9050939250505056fea264697066735822122051e788138bbd534cba465075a1f4f52e8877b375750a9d8914112a07acccca6764736f6c634300081c0033",
  "linkReferences": {},
  "deployedLinkReferences": {}
}