{
  "_format": "hh-sol-artifact-1",
  "contractName": "FreelanceEscrow",
  "sourceName": "contracts/FreelanceEscrow.sol",
  "abi": [
    {
      "inputs": [],
      "stateMutability": "nonpayable",
      "type": "constructor"
    },
    {
      "inputs": [],
      "name": "ReentrancyGuardReentrantCall",
      "type": "error"
    },
    {
      "anonymous": false,
      "inputs": [
        {
          "indexed": true,
          "internalType": "uint256",
          "name": "id",
          "type": "uint256"
        },
        {
          "indexed": true,
          "internalType": "address",
          "name": "freelancer",
          "type": "address"
        },
        {
          "indexed": false,
          "internalType": "uint256",
          "name": "amount",
          "type": "uint256"
        }
      ],
      "name": "BidPlaced",
      "type": "event"
    },
    {
      "anonymous": false,
      "inputs": [
        {
          "indexed": true,
          "internalType": "uint256",
          "name": "jobId",
          "type": "uint256"
        },
        {
          "indexed": true,
          "internalType": "address",
          "name": "bidder",
          "type": "address"
        },
        {
          "indexed": false,
          "internalType": "uint256",
          "name": "amount",
          "type": "uint256"
        }
      ],
      "name": "BidRefunded",
      "type": "event"
    },
    {
      "anonymous": false,
      "inputs": [
        {
          "indexed": true,
          "internalType": "uint256",
          "name": "id",
          "type": "uint256"
        }
      ],
      "name": "DisputeRaised",
      "type": "event"
    },
    {
      "anonymous": false,
      "inputs": [
        {
          "indexed": true,
          "internalType": "uint256",
          "name": "id",
          "type": "uint256"
        },
        {
          "indexed": false,
          "internalType": "bool",
          "name": "releasedToFreelancer",
          "type": "bool"
        }
      ],
      "name": "DisputeResolved",
      "type": "event"
    },
    {
      "anonymous": false,
      "inputs": [
        {
          "indexed": true,
          "internalType": "uint256",
          "name": "id",
          "type": "uint256"
        },
        {
          "indexed": true,
          "internalType": "address",
          "name": "freelancer",
          "type": "address"
        },
        {
          "indexed": false,
          "internalType": "uint256",
          "name": "escrow",
          "type": "uint256"
        }
      ],
      "name": "FreelancerSelected",
      "type": "event"
    },
    {
      "anonymous": false,
      "inputs": [
        {
          "indexed": true,
          "internalType": "uint256",
          "name": "id",
          "type": "uint256"
        },
        {
          "indexed": false,
          "internalType": "uint256",
          "name": "payout",
          "type": "uint256"
        }
      ],
      "name": "JobApproved",
      "type": "event"
    },
    {
      "anonymous": false,
      "inputs": [
        {
          "indexed": true,
          "internalType": "uint256",
          "name": "id",
          "type": "uint256"
        }
      ],
      "name": "JobCancelled",
      "type": "event"
    },
    {
      "anonymous": false,
      "inputs": [
        {
          "indexed": true,
          "internalType": "uint256",
          "name": "id",
          "type": "uint256"
        },
        {
          "indexed": true,
          "internalType": "address",
          "name": "client",
          "type": "address"
        },
        {
          "indexed": false,
          "internalType": "uint256",
          "name": "budget",
          "type": "uint256"
        }
      ],
      "name": "JobCreated",
      "type": "event"
    },
    {
      "anonymous": false,
      "inputs": [
        {
          "indexed": true,
          "internalType": "address",
          "name": "user",
          "type": "address"
        }
      ],
      "name": "UserRegistered",
      "type": "event"
    },
    {
      "anonymous": false,
      "inputs": [
        {
          "indexed": true,
          "internalType": "uint256",
          "name": "id",
          "type": "uint256"
        },
        {
          "indexed": false,
          "internalType": "string",
          "name": "submissionCID",
          "type": "string"
        }
      ],
      "name": "WorkSubmitted",
      "type": "event"
    },
    {
      "inputs": [
        {
          "internalType": "uint256",
          "name": "id",
          "type": "uint256"
        }
      ],
      "name": "approveWork",
      "outputs": [],
      "stateMutability": "nonpayable",
      "type": "function"
    },
    {
      "inputs": [
        {
          "internalType": "uint256",
          "name": "",
          "type": "uint256"
        },
        {
          "internalType": "address",
          "name": "",
          "type": "address"
        }
      ],
      "name": "bidAmounts",
      "outputs": [
        {
          "internalType": "uint256",
          "name": "",
          "type": "uint256"
        }
      ],
      "stateMutability": "view",
      "type": "function"
    },
    {
      "inputs": [
        {
          "internalType": "uint256",
          "name": "id",
          "type": "uint256"
        }
      ],
      "name": "cancelJob",
      "outputs": [],
      "stateMutability": "nonpayable",
      "type": "function"
    },
    {
      "inputs": [
        {
          "internalType": "string",
          "name": "_title",
          "type": "string"
        },
        {
          "internalType": "uint256",
          "name": "_budget",
          "type": "uint256"
        },
        {
          "internalType": "string",
          "name": "_specCID",
          "type": "string"
        }
      ],
      "name": "createJob",
      "outputs": [],
      "stateMutability": "nonpayable",
      "type": "function"
    },
    {
      "inputs": [
        {
          "internalType": "address",
          "name": "user",
          "type": "address"
        }
      ],
      "name": "getFullUserProfile",
      "outputs": [
        {
          "internalType": "string",
          "name": "profileCID",
          "type": "string"
        },
        {
          "internalType": "uint256",
          "name": "totalSpent",
          "type": "uint256"
        },
        {
          "internalType": "uint256",
          "name": "totalEarned",
          "type": "uint256"
        },
        {
          "internalType": "uint256[]",
          "name": "jobsPosted",
          "type": "uint256[]"
        },
        {
          "internalType": "uint256[]",
          "name": "jobsCompleted",
          "type": "uint256[]"
        },
        {
          "internalType": "uint256[]",
          "name": "jobsBidOn",
          "type": "uint256[]"
        }
      ],
      "stateMutability": "view",
      "type": "function"
    },
    {
      "inputs": [
        {
          "internalType": "uint256[]",
          "name": "ids",
          "type": "uint256[]"
        }
      ],
      "name": "getJobsByIds",
      "outputs": [
        {
          "components": [
            {
              "internalType": "uint256",
              "name": "jobId",
              "type": "uint256"
            },
            {
              "internalType": "address",
              "name": "client",
              "type": "address"
            },
            {
              "internalType": "address",
              "name": "freelancer",
              "type": "address"
            },
            {
              "internalType": "string",
              "name": "title",
              "type": "string"
            },
            {
              "internalType": "string",
              "name": "specCID",
              "type": "string"
            },
            {
              "internalType": "string",
              "name": "submissionCID",
              "type": "string"
            },
            {
              "internalType": "uint256",
              "name": "budget",
              "type": "uint256"
            },
            {
              "internalType": "uint256",
              "name": "escrow",
              "type": "uint256"
            },
            {
              "internalType": "enum FreelanceEscrow.JobStatus",
              "name": "status",
              "type": "uint8"
            }
          ],
          "internalType": "struct FreelanceEscrow.Job[]",
          "name": "",
          "type": "tuple[]"
        }
      ],
      "stateMutability": "view",
      "type": "function"
    },
    {
      "inputs": [
        {
          "internalType": "uint256",
          "name": "",
          "type": "uint256"
        },
        {
          "internalType": "address",
          "name": "",
          "type": "address"
        }
      ],
      "name": "hasBid",
      "outputs": [
        {
          "internalType": "bool",
          "name": "",
          "type": "bool"
        }
      ],
      "stateMutability": "view",
      "type": "function"
    },
    {
      "inputs": [
        {
          "internalType": "address",
          "name": "user",
          "type": "address"
        }
      ],
      "name": "isUserRegistered",
      "outputs": [
        {
          "internalType": "bool",
          "name": "",
          "type": "bool"
        }
      ],
      "stateMutability": "view",
      "type": "function"
    },
    {
      "inputs": [],
      "name": "jobCount",
      "outputs": [
        {
          "internalType": "uint256",
          "name": "",
          "type": "uint256"
        }
      ],
      "stateMutability": "view",
      "type": "function"
    },
    {
      "inputs": [
        {
          "internalType": "uint256",
          "name": "",
          "type": "uint256"
        }
      ],
      "name": "jobs",
      "outputs": [
        {
          "internalType": "uint256",
          "name": "jobId",
          "type": "uint256"
        },
        {
          "internalType": "address",
          "name": "client",
          "type": "address"
        },
        {
          "internalType": "address",
          "name": "freelancer",
          "type": "address"
        },
        {
          "internalType": "string",
          "name": "title",
          "type": "string"
        },
        {
          "internalType": "string",
          "name": "specCID",
          "type": "string"
        },
        {
          "internalType": "string",
          "name": "submissionCID",
          "type": "string"
        },
        {
          "internalType": "uint256",
          "name": "budget",
          "type": "uint256"
        },
        {
          "internalType": "uint256",
          "name": "escrow",
          "type": "uint256"
        },
        {
          "internalType": "enum FreelanceEscrow.JobStatus",
          "name": "status",
          "type": "uint8"
        }
      ],
      "stateMutability": "view",
      "type": "function"
    },
    {
      "inputs": [
        {
          "internalType": "address",
          "name": "user",
          "type": "address"
        }
      ],
      "name": "jobsOf",
      "outputs": [
        {
          "internalType": "uint256[]",
          "name": "",
          "type": "uint256[]"
        }
      ],
      "stateMutability": "view",
      "type": "function"
    },
    {
      "inputs": [
        {
          "internalType": "uint256",
          "name": "id",
          "type": "uint256"
        }
      ],
      "name": "listBids",
      "outputs": [
        {
          "components": [
            {
              "internalType": "address",
              "name": "bidder",
              "type": "address"
            },
            {
              "internalType": "uint256",
              "name": "amount",
              "type": "uint256"
            }
          ],
          "internalType": "struct FreelanceEscrow.Bid[]",
          "name": "",
          "type": "tuple[]"
        }
      ],
      "stateMutability": "view",
      "type": "function"
    },
    {
      "inputs": [],
      "name": "listDisputedJobs",
      "outputs": [
        {
          "components": [
            {
              "internalType": "uint256",
              "name": "jobId",
              "type": "uint256"
            },
            {
              "internalType": "address",
              "name": "client",
              "type": "address"
            },
            {
              "internalType": "address",
              "name": "freelancer",
              "type": "address"
            },
            {
              "internalType": "string",
              "name": "title",
              "type": "string"
            },
            {
              "internalType": "string",
              "name": "specCID",
              "type": "string"
            },
            {
              "internalType": "string",
              "name": "submissionCID",
              "type": "string"
            },
            {
              "internalType": "uint256",
              "name": "budget",
              "type": "uint256"
            },
            {
              "internalType": "uint256",
              "name": "escrow",
              "type": "uint256"
            },
            {
              "internalType": "enum FreelanceEscrow.JobStatus",
              "name": "status",
              "type": "uint8"
            }
          ],
          "internalType": "struct FreelanceEscrow.Job[]",
          "name": "",
          "type": "tuple[]"
        }
      ],
      "stateMutability": "view",
      "type": "function"
    },
    {
      "inputs": [],
      "name": "listOpenJobs",
      "outputs": [
        {
          "components": [
            {
              "internalType": "uint256",
              "name": "jobId",
              "type": "uint256"
            },
            {
              "internalType": "address",
              "name": "client",
              "type": "address"
            },
            {
              "internalType": "address",
              "name": "freelancer",
              "type": "address"
            },
            {
              "internalType": "string",
              "name": "title",
              "type": "string"
            },
            {
              "internalType": "string",
              "name": "specCID",
              "type": "string"
            },
            {
              "internalType": "string",
              "name": "submissionCID",
              "type": "string"
            },
            {
              "internalType": "uint256",
              "name": "budget",
              "type": "uint256"
            },
            {
              "internalType": "uint256",
              "name": "escrow",
              "type": "uint256"
            },
            {
              "internalType": "enum FreelanceEscrow.JobStatus",
              "name": "status",
              "type": "uint8"
            }
          ],
          "internalType": "struct FreelanceEscrow.Job[]",
          "name": "",
          "type": "tuple[]"
        }
      ],
      "stateMutability": "view",
      "type": "function"
    },
    {
      "inputs": [],
      "name": "owner",
      "outputs": [
        {
          "internalType": "address",
          "name": "",
          "type": "address"
        }
      ],
      "stateMutability": "view",
      "type": "function"
    },
    {
      "inputs": [
        {
          "internalType": "uint256",
          "name": "id",
          "type": "uint256"
        },
        {
          "internalType": "bool",
          "name": "releaseToFreelancer",
          "type": "bool"
        }
      ],
      "name": "ownerResolveDispute",
      "outputs": [],
      "stateMutability": "nonpayable",
      "type": "function"
    },
    {
      "inputs": [
        {
          "internalType": "uint256",
          "name": "jobId",
          "type": "uint256"
        }
      ],
      "name": "placeBid",
      "outputs": [],
      "stateMutability": "payable",
      "type": "function"
    },
    {
      "inputs": [
        {
          "internalType": "uint256",
          "name": "id",
          "type": "uint256"
        }
      ],
      "name": "raiseDispute",
      "outputs": [],
      "stateMutability": "nonpayable",
      "type": "function"
    },
    {
      "inputs": [
        {
          "internalType": "uint256",
          "name": "jobId",
          "type": "uint256"
        }
      ],
      "name": "refundBid",
      "outputs": [],
      "stateMutability": "nonpayable",
      "type": "function"
    },
    {
      "inputs": [],
      "name": "registerUser",
      "outputs": [],
      "stateMutability": "nonpayable",
      "type": "function"
    },
    {
      "inputs": [
        {
          "internalType": "uint256",
          "name": "id",
          "type": "uint256"
        },
        {
          "internalType": "address",
          "name": "_freelancer",
          "type": "address"
        }
      ],
      "name": "selectFreelancer",
      "outputs": [],
      "stateMutability": "payable",
      "type": "function"
    },
    {
      "inputs": [
        {
          "internalType": "uint256",
          "name": "id",
          "type": "uint256"
        },
        {
          "internalType": "string",
          "name": "_submissionCID",
          "type": "string"
        }
      ],
      "name": "submitWork",
      "outputs": [],
      "stateMutability": "nonpayable",
      "type": "function"
    },
    {
      "inputs": [
        {
          "internalType": "string",
          "name": "_profileCID",
          "type": "string"
        }
      ],
      "name": "updateProfileCID",
      "outputs": [],
      "stateMutability": "nonpayable",
      "type": "function"
    },
    {
      "inputs": [
        {
          "internalType": "address",
          "name": "",
          "type": "address"
        }
      ],
      "name": "userProfiles",
      "outputs": [
        {
          "internalType": "bool",
          "name": "isRegistered",
          "type": "bool"
        },
        {
          "internalType": "string",
          "name": "profileCID",
          "type": "string"
        },
        {
          "internalType": "uint256",
          "name": "totalSpent",
          "type": "uint256"
        },
        {
          "internalType": "uint256",
          "name": "totalEarned",
          "type": "uint256"
        }
      ],
      "stateMutability": "view",
      "type": "function"
    }
  ],
  "bytecode": "0x60a0604052348015600f57600080fd5b5060016000819055503373ffffffffffffffffffffffffffffffffffffffff1660808173ffffffffffffffffffffffffffffffffffffffff168152505060006001819055506080516158a96100766000396000818161212a01526127a201526158a96000f3fe60806040526004361061014b5760003560e01c80634c5d8a0f116100b6578063a51f743d1161006f578063a51f743d146104a6578063a5c1674e146104d1578063af405bfe146104fa578063b193aee014610537578063b29fed2714610574578063da8accf91461059f5761014b565b80634c5d8a0f146103b75780634d3820eb146103e257806360ec218d146103f95780636373d2ea146104225780638da5cb5b1461045f5780639979ef451461048a5761014b565b8063332d56d711610108578063332d56d71461028a578063380deabc146102ca5780633d01e0fa146102e6578063428da9121461030f578063449e88121461033857806346cf7c56146103755761014b565b806304abfae614610150578063163f75221461018d578063180aedf3146101ca57806319eb5ae41461020f5780631dffa3dc1461023857806326d29ce014610261575b600080fd5b34801561015c57600080fd5b5061017760048036038101906101729190613e57565b6105c8565b6040516101849190613ea6565b60405180910390f35b34801561019957600080fd5b506101b460048036038101906101af9190613ec1565b6105ed565b6040516101c19190613f09565b60405180910390f35b3480156101d657600080fd5b506101f160048036038101906101ec9190613f24565b610646565b60405161020699989796959493929190614067565b60405180910390f35b34801561021b57600080fd5b506102366004803603810190610231919061416e565b610879565b005b34801561024457600080fd5b5061025f600480360381019061025a9190613f24565b610ac3565b005b34801561026d57600080fd5b5061028860048036038101906102839190613f24565b610e4d565b005b34801561029657600080fd5b506102b160048036038101906102ac9190613ec1565b6111d0565b6040516102c19493929190614203565b60405180910390f35b6102e460048036038101906102df9190613e57565b611295565b005b3480156102f257600080fd5b5061030d60048036038101906103089190613f24565b61155c565b005b34801561031b57600080fd5b506103366004803603810190610331919061424f565b611b2d565b005b34801561034457600080fd5b5061035f600480360381019061035a9190613e57565b611c12565b60405161036c9190613f09565b60405180910390f35b34801561038157600080fd5b5061039c60048036038101906103979190613ec1565b611c41565b6040516103ae9695949392919061435a565b60405180910390f35b3480156103c357600080fd5b506103cc611e40565b6040516103d99190613ea6565b60405180910390f35b3480156103ee57600080fd5b506103f7611e46565b005b34801561040557600080fd5b50610420600480360381019061041b9190614403565b612120565b005b34801561042e57600080fd5b5061044960048036038101906104449190613ec1565b612709565b6040516104569190614443565b60405180910390f35b34801561046b57600080fd5b506104746127a0565b6040516104819190614465565b60405180910390f35b6104a4600480360381019061049f9190613f24565b6127c4565b005b3480156104b257600080fd5b506104bb612b78565b6040516104c8919061467d565b60405180910390f35b3480156104dd57600080fd5b506104f860048036038101906104f39190613f24565b612fd9565b005b34801561050657600080fd5b50610521600480360381019061051c91906147dd565b6131f2565b60405161052e919061467d565b60405180910390f35b34801561054357600080fd5b5061055e60048036038101906105599190613f24565b613582565b60405161056b9190614904565b60405180910390f35b34801561058057600080fd5b50610589613654565b604051610596919061467d565b60405180910390f35b3480156105ab57600080fd5b506105c660048036038101906105c19190614926565b613ab5565b005b6006602052816000526040600020602052806000526040600020600091509150505481565b6000600560008373ffffffffffffffffffffffffffffffffffffffff1673ffffffffffffffffffffffffffffffffffffffff16815260200190815260200160002060000160009054906101000a900460ff169050919050565b60026020528060005260406000206000915090508060000154908060010160009054906101000a900473ffffffffffffffffffffffffffffffffffffffff16908060020160009054906101000a900473ffffffffffffffffffffffffffffffffffffffff16908060030180546106bb906149b5565b80601f01602080910402602001604051908101604052809291908181526020018280546106e7906149b5565b80156107345780601f1061070957610100808354040283529160200191610734565b820191906000526020600020905b81548152906001019060200180831161071757829003601f168201915b505050505090806004018054610749906149b5565b80601f0160208091040260200160405190810160405280929190818152602001828054610775906149b5565b80156107c25780601f10610797576101008083540402835291602001916107c2565b820191906000526020600020905b8154815290600101906020018083116107a557829003601f168201915b5050505050908060050180546107d7906149b5565b80601f0160208091040260200160405190810160405280929190818152602001828054610803906149b5565b80156108505780601f1061082557610100808354040283529160200191610850565b820191906000526020600020905b81548152906001019060200180831161083357829003601f168201915b5050505050908060060154908060070154908060080160009054906101000a900460ff16905089565b600083116108bc576040517f08c379a00000000000000000000000000000000000000000000000000000000081526004016108b390614a32565b60405180910390fd5b6001600081546108cb90614a81565b91905081905550600060026000600154815260200190815260200160002090506001548160000181905550338160010160006101000a81548173ffffffffffffffffffffffffffffffffffffffff021916908373ffffffffffffffffffffffffffffffffffffffff160217905550858582600301918261094c929190614c80565b508282826004019182610960929190614c80565b5083816006018190555060008160080160006101000a81548160ff0219169083600681111561099257610991613ff0565b5b0217905550600560003373ffffffffffffffffffffffffffffffffffffffff1673ffffffffffffffffffffffffffffffffffffffff1681526020019081526020016000206002016001549080600181540180825580915050600190039060005260206000200160009091909190915055600460003373ffffffffffffffffffffffffffffffffffffffff1673ffffffffffffffffffffffffffffffffffffffff16815260200190815260200160002060015490806001815401808255809150506001900390600052602060002001600090919091909150553373ffffffffffffffffffffffffffffffffffffffff166001547f8678ba2d99dba901dafc51009f8d402d37a5a0275752cf0e263b827aeca906f286604051610ab39190613ea6565b60405180910390a3505050505050565b806002600082815260200190815260200160002060010160009054906101000a900473ffffffffffffffffffffffffffffffffffffffff1673ffffffffffffffffffffffffffffffffffffffff163373ffffffffffffffffffffffffffffffffffffffff1614610b68576040517f08c379a0000000000000000000000000000000000000000000000000000000008152600401610b5f90614d9c565b60405180910390fd5b610b70613c6b565b600060026000848152602001908152602001600020905060006006811115610b9b57610b9a613ff0565b5b8160080160009054906101000a900460ff166006811115610bbf57610bbe613ff0565b5b14610bff576040517f08c379a0000000000000000000000000000000000000000000000000000000008152600401610bf690614e08565b60405180910390fd5b600060036000858152602001908152602001600020905060005b8180549050811015610d75576000828281548110610c3a57610c39614e28565b5b9060005260206000209060020201600101541115610d68576000828281548110610c6757610c66614e28565b5b906000526020600020906002020160000160009054906101000a900473ffffffffffffffffffffffffffffffffffffffff1673ffffffffffffffffffffffffffffffffffffffff16838381548110610cc257610cc1614e28565b5b906000526020600020906002020160010154604051610ce090614e88565b60006040518083038185875af1925050503d8060008114610d1d576040519150601f19603f3d011682016040523d82523d6000602084013e610d22565b606091505b5050905080610d66576040517f08c379a0000000000000000000000000000000000000000000000000000000008152600401610d5d90614ee9565b60405180910390fd5b505b8080600101915050610c19565b5060068260080160006101000a81548160ff02191690836006811115610d9e57610d9d613ff0565b5b021790555060008260020160006101000a81548173ffffffffffffffffffffffffffffffffffffffff021916908373ffffffffffffffffffffffffffffffffffffffff1602179055506000826007018190555060405180602001604052806000815250826005019081610e119190614f09565b50837f58243f872c550ad02802199ade99eb4250f6bb19e9abbf2d3de7b969c0eb5e4f60405160405180910390a25050610e49613cb1565b5050565b610e55613c6b565b6007600082815260200190815260200160002060003373ffffffffffffffffffffffffffffffffffffffff1673ffffffffffffffffffffffffffffffffffffffff16815260200190815260200160002060009054906101000a900460ff16610ef2576040517f08c379a0000000000000000000000000000000000000000000000000000000008152600401610ee990615027565b60405180910390fd5b3373ffffffffffffffffffffffffffffffffffffffff166002600083815260200190815260200160002060020160009054906101000a900473ffffffffffffffffffffffffffffffffffffffff1673ffffffffffffffffffffffffffffffffffffffff1603610f96576040517f08c379a0000000000000000000000000000000000000000000000000000000008152600401610f8d90615093565b60405180910390fd5b60006006600083815260200190815260200160002060003373ffffffffffffffffffffffffffffffffffffffff1673ffffffffffffffffffffffffffffffffffffffff1681526020019081526020016000205490506000811161102e576040517f08c379a0000000000000000000000000000000000000000000000000000000008152600401611025906150ff565b60405180910390fd5b60005b6003600084815260200190815260200160002080549050811015611126573373ffffffffffffffffffffffffffffffffffffffff1660036000858152602001908152602001600020828154811061108b5761108a614e28565b5b906000526020600020906002020160000160009054906101000a900473ffffffffffffffffffffffffffffffffffffffff1673ffffffffffffffffffffffffffffffffffffffff16036111195760006003600085815260200190815260200160002082815481106110ff576110fe614e28565b5b906000526020600020906002020160010181905550611126565b8080600101915050611031565b5060006006600084815260200190815260200160002060003373ffffffffffffffffffffffffffffffffffffffff1673ffffffffffffffffffffffffffffffffffffffff168152602001908152602001600020819055503373ffffffffffffffffffffffffffffffffffffffff166108fc829081150290604051600060405180830381858888f193505050501580156111c3573d6000803e3d6000fd5b50506111cd613cb1565b50565b60056020528060005260406000206000915090508060000160009054906101000a900460ff1690806001018054611206906149b5565b80601f0160208091040260200160405190810160405280929190818152602001828054611232906149b5565b801561127f5780601f106112545761010080835404028352916020019161127f565b820191906000526020600020905b81548152906001019060200180831161126257829003601f168201915b5050505050908060040154908060050154905084565b816002600082815260200190815260200160002060010160009054906101000a900473ffffffffffffffffffffffffffffffffffffffff1673ffffffffffffffffffffffffffffffffffffffff163373ffffffffffffffffffffffffffffffffffffffff161461133a576040517f08c379a000000000000000000000000000000000000000000000000000000000815260040161133190614d9c565b60405180910390fd5b611342613c6b565b60006002600085815260200190815260200160002090506000600681111561136d5761136c613ff0565b5b8160080160009054906101000a900460ff16600681111561139157611390613ff0565b5b146113d1576040517f08c379a00000000000000000000000000000000000000000000000000000000081526004016113c89061516b565b60405180910390fd5b80600601543414611417576040517f08c379a000000000000000000000000000000000000000000000000000000000815260040161140e906151d7565b60405180910390fd5b600073ffffffffffffffffffffffffffffffffffffffff168373ffffffffffffffffffffffffffffffffffffffff1603611486576040517f08c379a000000000000000000000000000000000000000000000000000000000815260040161147d90615243565b60405180910390fd5b828160020160006101000a81548173ffffffffffffffffffffffffffffffffffffffff021916908373ffffffffffffffffffffffffffffffffffffffff16021790555034816007018190555060018160080160006101000a81548160ff021916908360068111156114fa576114f9613ff0565b5b02179055508273ffffffffffffffffffffffffffffffffffffffff16847fba05c38d28e2e6022a8f924642d334448e5d8af223b5ae9585baad3d0ce776ec346040516115469190613ea6565b60405180910390a350611557613cb1565b505050565b806002600082815260200190815260200160002060010160009054906101000a900473ffffffffffffffffffffffffffffffffffffffff1673ffffffffffffffffffffffffffffffffffffffff163373ffffffffffffffffffffffffffffffffffffffff1614611601576040517f08c379a00000000000000000000000000000000000000000000000000000000081526004016115f890614d9c565b60405180910390fd5b611609613c6b565b60006002600084815260200190815260200160002090506002600681111561163457611633613ff0565b5b8160080160009054906101000a900460ff16600681111561165857611657613ff0565b5b14611698576040517f08c379a000000000000000000000000000000000000000000000000000000000815260040161168f906152af565b60405180910390fd5b60008160070154905060006006600086815260200190815260200160002060008460020160009054906101000a900473ffffffffffffffffffffffffffffffffffffffff1673ffffffffffffffffffffffffffffffffffffffff1673ffffffffffffffffffffffffffffffffffffffff1681526020019081526020016000205490506000818361172891906152cf565b90506000846007018190555060006006600088815260200190815260200160002060008660020160009054906101000a900473ffffffffffffffffffffffffffffffffffffffff1673ffffffffffffffffffffffffffffffffffffffff1673ffffffffffffffffffffffffffffffffffffffff1681526020019081526020016000208190555060038460080160006101000a81548160ff021916908360068111156117d6576117d5613ff0565b5b021790555060008460020160009054906101000a900473ffffffffffffffffffffffffffffffffffffffff1673ffffffffffffffffffffffffffffffffffffffff168260405161182590614e88565b60006040518083038185875af1925050503d8060008114611862576040519150601f19603f3d011682016040523d82523d6000602084013e611867565b606091505b50509050806118ab576040517f08c379a00000000000000000000000000000000000000000000000000000000081526004016118a29061534f565b60405180910390fd5b8460060154600560008760010160009054906101000a900473ffffffffffffffffffffffffffffffffffffffff1673ffffffffffffffffffffffffffffffffffffffff1673ffffffffffffffffffffffffffffffffffffffff168152602001908152602001600020600401600082825461192591906152cf565b925050819055508460060154600560008760020160009054906101000a900473ffffffffffffffffffffffffffffffffffffffff1673ffffffffffffffffffffffffffffffffffffffff1673ffffffffffffffffffffffffffffffffffffffff16815260200190815260200160002060050160008282546119a691906152cf565b92505081905550600560008660020160009054906101000a900473ffffffffffffffffffffffffffffffffffffffff1673ffffffffffffffffffffffffffffffffffffffff1673ffffffffffffffffffffffffffffffffffffffff16815260200190815260200160002060030187908060018154018082558091505060019003906000526020600020016000909190919091505560058560080160006101000a81548160ff02191690836006811115611a6257611a61613ff0565b5b0217905550867f72a8659d664e8c3afdc18cf46adfba3acd130a459e0658ed768a45b08c08362085604051611a979190613ea6565b60405180910390a26000831115611b1c578460020160009054906101000a900473ffffffffffffffffffffffffffffffffffffffff1673ffffffffffffffffffffffffffffffffffffffff16877fa59312996dc68b7f0224b341fed75d5afeb3bb20624107d37942d14f5942815685604051611b139190613ea6565b60405180910390a35b5050505050611b29613cb1565b5050565b600560003373ffffffffffffffffffffffffffffffffffffffff1673ffffffffffffffffffffffffffffffffffffffff16815260200190815260200160002060000160009054906101000a900460ff16611bbc576040517f08c379a0000000000000000000000000000000000000000000000000000000008152600401611bb3906153bb565b60405180910390fd5b8181600560003373ffffffffffffffffffffffffffffffffffffffff1673ffffffffffffffffffffffffffffffffffffffff1681526020019081526020016000206001019182611c0d929190614c80565b505050565b60076020528160005260406000206020528060005260406000206000915091509054906101000a900460ff1681565b606060008060608060606000600560008973ffffffffffffffffffffffffffffffffffffffff1673ffffffffffffffffffffffffffffffffffffffff16815260200190815260200160002090508060010181600401548260050154836002018460030185600601858054611cb4906149b5565b80601f0160208091040260200160405190810160405280929190818152602001828054611ce0906149b5565b8015611d2d5780601f10611d0257610100808354040283529160200191611d2d565b820191906000526020600020905b815481529060010190602001808311611d1057829003601f168201915b5050505050955082805480602002602001604051908101604052809291908181526020018280548015611d7f57602002820191906000526020600020905b815481526020019060010190808311611d6b575b5050505050925081805480602002602001604051908101604052809291908181526020018280548015611dd157602002820191906000526020600020905b815481526020019060010190808311611dbd575b5050505050915080805480602002602001604051908101604052809291908181526020018280548015611e2357602002820191906000526020600020905b815481526020019060010190808311611e0f575b505050505090509650965096509650965096505091939550919395565b60015481565b600560003373ffffffffffffffffffffffffffffffffffffffff1673ffffffffffffffffffffffffffffffffffffffff16815260200190815260200160002060000160009054906101000a900460ff1615611ed6576040517f08c379a0000000000000000000000000000000000000000000000000000000008152600401611ecd90615427565b60405180910390fd5b6040518060e00160405280600115158152602001604051806020016040528060008152508152602001600067ffffffffffffffff811115611f1a57611f1961469f565b5b604051908082528060200260200182016040528015611f485781602001602082028036833780820191505090505b508152602001600067ffffffffffffffff811115611f6957611f6861469f565b5b604051908082528060200260200182016040528015611f975781602001602082028036833780820191505090505b5081526020016000815260200160008152602001600067ffffffffffffffff811115611fc657611fc561469f565b5b604051908082528060200260200182016040528015611ff45781602001602082028036833780820191505090505b50815250600560003373ffffffffffffffffffffffffffffffffffffffff1673ffffffffffffffffffffffffffffffffffffffff16815260200190815260200160002060008201518160000160006101000a81548160ff021916908315150217905550602082015181600101908161206c9190614f09565b506040820151816002019080519060200190612089929190613cbb565b5060608201518160030190805190602001906120a6929190613cbb565b506080820151816004015560a0820151816005015560c08201518160060190805190602001906120d7929190613cbb565b509050503373ffffffffffffffffffffffffffffffffffffffff167f54db7a5cb4735e1aac1f53db512d3390390bb6637bd30ad4bf9fc98667d9b9b960405160405180910390a2565b612128613c6b565b7f000000000000000000000000000000000000000000000000000000000000000073ffffffffffffffffffffffffffffffffffffffff163373ffffffffffffffffffffffffffffffffffffffff16146121b6576040517f08c379a00000000000000000000000000000000000000000000000000000000081526004016121ad90615493565b60405180910390fd5b6000600260008481526020019081526020016000209050600460068111156121e1576121e0613ff0565b5b8160080160009054906101000a900460ff16600681111561220557612204613ff0565b5b14612245576040517f08c379a000000000000000000000000000000000000000000000000000000000815260040161223c906154ff565b60405180910390fd5b6000816007015490506000826007018190555082156125c45760006006600086815260200190815260200160002060008460020160009054906101000a900473ffffffffffffffffffffffffffffffffffffffff1673ffffffffffffffffffffffffffffffffffffffff1673ffffffffffffffffffffffffffffffffffffffff168152602001908152602001600020549050600081836122e591906152cf565b905060006006600088815260200190815260200160002060008660020160009054906101000a900473ffffffffffffffffffffffffffffffffffffffff1673ffffffffffffffffffffffffffffffffffffffff1673ffffffffffffffffffffffffffffffffffffffff1681526020019081526020016000208190555060008460020160009054906101000a900473ffffffffffffffffffffffffffffffffffffffff1673ffffffffffffffffffffffffffffffffffffffff16826040516123ab90614e88565b60006040518083038185875af1925050503d80600081146123e8576040519150601f19603f3d011682016040523d82523d6000602084013e6123ed565b606091505b5050905080612431576040517f08c379a00000000000000000000000000000000000000000000000000000000081526004016124289061534f565b60405180910390fd5b8460060154600560008760020160009054906101000a900473ffffffffffffffffffffffffffffffffffffffff1673ffffffffffffffffffffffffffffffffffffffff1673ffffffffffffffffffffffffffffffffffffffff16815260200190815260200160002060050160008282546124ab91906152cf565b92505081905550600560008660020160009054906101000a900473ffffffffffffffffffffffffffffffffffffffff1673ffffffffffffffffffffffffffffffffffffffff1673ffffffffffffffffffffffffffffffffffffffff16815260200190815260200160002060030187908060018154018082558091505060019003906000526020600020016000909190919091505560008311156125bc578460020160009054906101000a900473ffffffffffffffffffffffffffffffffffffffff1673ffffffffffffffffffffffffffffffffffffffff16877fa59312996dc68b7f0224b341fed75d5afeb3bb20624107d37942d14f59428156856040516125b39190613ea6565b60405180910390a35b505050612696565b60008260010160009054906101000a900473ffffffffffffffffffffffffffffffffffffffff1673ffffffffffffffffffffffffffffffffffffffff168260405161260e90614e88565b60006040518083038185875af1925050503d806000811461264b576040519150601f19603f3d011682016040523d82523d6000602084013e612650565b606091505b5050905080612694576040517f08c379a000000000000000000000000000000000000000000000000000000000815260040161268b9061556b565b60405180910390fd5b505b60058260080160006101000a81548160ff021916908360068111156126be576126bd613ff0565b5b0217905550837f5a87909bff68caaaaf0b3fd9c74eeccc928832f879315e5c6fb7a73612f26c0c846040516126f39190613f09565b60405180910390a25050612705613cb1565b5050565b6060600460008373ffffffffffffffffffffffffffffffffffffffff1673ffffffffffffffffffffffffffffffffffffffff16815260200190815260200160002080548060200260200160405190810160405280929190818152602001828054801561279457602002820191906000526020600020905b815481526020019060010190808311612780575b50505050509050919050565b7f000000000000000000000000000000000000000000000000000000000000000081565b6127cc613c6b565b6000600260008381526020019081526020016000209050600060068111156127f7576127f6613ff0565b5b8160080160009054906101000a900460ff16600681111561281b5761281a613ff0565b5b1461285b576040517f08c379a00000000000000000000000000000000000000000000000000000000081526004016128529061516b565b60405180910390fd5b6007600083815260200190815260200160002060003373ffffffffffffffffffffffffffffffffffffffff1673ffffffffffffffffffffffffffffffffffffffff16815260200190815260200160002060009054906101000a900460ff16156128f9576040517f08c379a00000000000000000000000000000000000000000000000000000000081526004016128f0906155d7565b60405180910390fd5b6000341161293c576040517f08c379a000000000000000000000000000000000000000000000000000000000815260040161293390615643565b60405180910390fd5b6003600083815260200190815260200160002060405180604001604052803373ffffffffffffffffffffffffffffffffffffffff16815260200134815250908060018154018082558091505060019003906000526020600020906002020160009091909190915060008201518160000160006101000a81548173ffffffffffffffffffffffffffffffffffffffff021916908373ffffffffffffffffffffffffffffffffffffffff16021790555060208201518160010155505060016007600084815260200190815260200160002060003373ffffffffffffffffffffffffffffffffffffffff1673ffffffffffffffffffffffffffffffffffffffff16815260200190815260200160002060006101000a81548160ff021916908315150217905550346006600084815260200190815260200160002060003373ffffffffffffffffffffffffffffffffffffffff1673ffffffffffffffffffffffffffffffffffffffff16815260200190815260200160002081905550600560003373ffffffffffffffffffffffffffffffffffffffff1673ffffffffffffffffffffffffffffffffffffffff1681526020019081526020016000206006018290806001815401808255809150506001900390600052602060002001600090919091909150553373ffffffffffffffffffffffffffffffffffffffff16827f0e54eff26401bf69b81b26f60bd85ef47f5d85275c1d268d84f68d6897431c4734604051612b649190613ea6565b60405180910390a350612b75613cb1565b50565b6060600080600190505b6001548111612bfc5760046006811115612b9f57612b9e613ff0565b5b6002600083815260200190815260200160002060080160009054906101000a900460ff166006811115612bd557612bd4613ff0565b5b03612be9578180612be590614a81565b9250505b8080612bf490614a81565b915050612b82565b5060008167ffffffffffffffff811115612c1957612c1861469f565b5b604051908082528060200260200182016040528015612c5257816020015b612c3f613d08565b815260200190600190039081612c375790505b509050600080600190505b6001548111612fcf5760046006811115612c7a57612c79613ff0565b5b6002600083815260200190815260200160002060080160009054906101000a900460ff166006811115612cb057612caf613ff0565b5b03612fbc576002600082815260200190815260200160002060405180610120016040529081600082015481526020016001820160009054906101000a900473ffffffffffffffffffffffffffffffffffffffff1673ffffffffffffffffffffffffffffffffffffffff1673ffffffffffffffffffffffffffffffffffffffff1681526020016002820160009054906101000a900473ffffffffffffffffffffffffffffffffffffffff1673ffffffffffffffffffffffffffffffffffffffff1673ffffffffffffffffffffffffffffffffffffffff168152602001600382018054612d9a906149b5565b80601f0160208091040260200160405190810160405280929190818152602001828054612dc6906149b5565b8015612e135780601f10612de857610100808354040283529160200191612e13565b820191906000526020600020905b815481529060010190602001808311612df657829003601f168201915b50505050508152602001600482018054612e2c906149b5565b80601f0160208091040260200160405190810160405280929190818152602001828054612e58906149b5565b8015612ea55780601f10612e7a57610100808354040283529160200191612ea5565b820191906000526020600020905b815481529060010190602001808311612e8857829003601f168201915b50505050508152602001600582018054612ebe906149b5565b80601f0160208091040260200160405190810160405280929190818152602001828054612eea906149b5565b8015612f375780601f10612f0c57610100808354040283529160200191612f37565b820191906000526020600020905b815481529060010190602001808311612f1a57829003601f168201915b5050505050815260200160068201548152602001600782015481526020016008820160009054906101000a900460ff166006811115612f7957612f78613ff0565b5b6006811115612f8b57612f8a613ff0565b5b81525050838381518110612fa257612fa1614e28565b5b60200260200101819052508180612fb890614a81565b9250505b8080612fc790614a81565b915050612c5d565b5081935050505090565b60006002600083815260200190815260200160002090508060010160009054906101000a900473ffffffffffffffffffffffffffffffffffffffff1673ffffffffffffffffffffffffffffffffffffffff163373ffffffffffffffffffffffffffffffffffffffff16148061309d57508060020160009054906101000a900473ffffffffffffffffffffffffffffffffffffffff1673ffffffffffffffffffffffffffffffffffffffff163373ffffffffffffffffffffffffffffffffffffffff16145b6130dc576040517f08c379a00000000000000000000000000000000000000000000000000000000081526004016130d3906156af565b60405180910390fd5b600260068111156130f0576130ef613ff0565b5b8160080160009054906101000a900460ff16600681111561311457613113613ff0565b5b148061315557506001600681111561312f5761312e613ff0565b5b8160080160009054906101000a900460ff16600681111561315357613152613ff0565b5b145b613194576040517f08c379a000000000000000000000000000000000000000000000000000000000815260040161318b9061571b565b60405180910390fd5b60048160080160006101000a81548160ff021916908360068111156131bc576131bb613ff0565b5b0217905550817f04901f83201c8724eadf084436db8aa391820bae6d11f9f78a17edb6f2eef3cf60405160405180910390a25050565b60606000825167ffffffffffffffff8111156132115761321061469f565b5b60405190808252806020026020018201604052801561324a57816020015b613237613d08565b81526020019060019003908161322f5790505b50905060005b835181101561357857600260008583815181106132705761326f614e28565b5b6020026020010151815260200190815260200160002060405180610120016040529081600082015481526020016001820160009054906101000a900473ffffffffffffffffffffffffffffffffffffffff1673ffffffffffffffffffffffffffffffffffffffff1673ffffffffffffffffffffffffffffffffffffffff1681526020016002820160009054906101000a900473ffffffffffffffffffffffffffffffffffffffff1673ffffffffffffffffffffffffffffffffffffffff1673ffffffffffffffffffffffffffffffffffffffff168152602001600382018054613358906149b5565b80601f0160208091040260200160405190810160405280929190818152602001828054613384906149b5565b80156133d15780601f106133a6576101008083540402835291602001916133d1565b820191906000526020600020905b8154815290600101906020018083116133b457829003601f168201915b505050505081526020016004820180546133ea906149b5565b80601f0160208091040260200160405190810160405280929190818152602001828054613416906149b5565b80156134635780601f1061343857610100808354040283529160200191613463565b820191906000526020600020905b81548152906001019060200180831161344657829003601f168201915b5050505050815260200160058201805461347c906149b5565b80601f01602080910402602001604051908101604052809291908181526020018280546134a8906149b5565b80156134f55780601f106134ca576101008083540402835291602001916134f5565b820191906000526020600020905b8154815290600101906020018083116134d857829003601f168201915b5050505050815260200160068201548152602001600782015481526020016008820160009054906101000a900460ff16600681111561353757613536613ff0565b5b600681111561354957613548613ff0565b5b815250508282815181106135605761355f614e28565b5b60200260200101819052508080600101915050613250565b5080915050919050565b606060036000838152602001908152602001600020805480602002602001604051908101604052809291908181526020016000905b8282101561364957838290600052602060002090600202016040518060400160405290816000820160009054906101000a900473ffffffffffffffffffffffffffffffffffffffff1673ffffffffffffffffffffffffffffffffffffffff1673ffffffffffffffffffffffffffffffffffffffff168152602001600182015481525050815260200190600101906135b7565b505050509050919050565b6060600080600190505b60015481116136d8576000600681111561367b5761367a613ff0565b5b6002600083815260200190815260200160002060080160009054906101000a900460ff1660068111156136b1576136b0613ff0565b5b036136c55781806136c190614a81565b9250505b80806136d090614a81565b91505061365e565b5060008167ffffffffffffffff8111156136f5576136f461469f565b5b60405190808252806020026020018201604052801561372e57816020015b61371b613d08565b8152602001906001900390816137135790505b509050600080600190505b6001548111613aab576000600681111561375657613755613ff0565b5b6002600083815260200190815260200160002060080160009054906101000a900460ff16600681111561378c5761378b613ff0565b5b03613a98576002600082815260200190815260200160002060405180610120016040529081600082015481526020016001820160009054906101000a900473ffffffffffffffffffffffffffffffffffffffff1673ffffffffffffffffffffffffffffffffffffffff1673ffffffffffffffffffffffffffffffffffffffff1681526020016002820160009054906101000a900473ffffffffffffffffffffffffffffffffffffffff1673ffffffffffffffffffffffffffffffffffffffff1673ffffffffffffffffffffffffffffffffffffffff168152602001600382018054613876906149b5565b80601f01602080910402602001604051908101604052809291908181526020018280546138a2906149b5565b80156138ef5780601f106138c4576101008083540402835291602001916138ef565b820191906000526020600020905b8154815290600101906020018083116138d257829003601f168201915b50505050508152602001600482018054613908906149b5565b80601f0160208091040260200160405190810160405280929190818152602001828054613934906149b5565b80156139815780601f1061395657610100808354040283529160200191613981565b820191906000526020600020905b81548152906001019060200180831161396457829003601f168201915b5050505050815260200160058201805461399a906149b5565b80601f01602080910402602001604051908101604052809291908181526020018280546139c6906149b5565b8015613a135780601f106139e857610100808354040283529160200191613a13565b820191906000526020600020905b8154815290600101906020018083116139f657829003601f168201915b5050505050815260200160068201548152602001600782015481526020016008820160009054906101000a900460ff166006811115613a5557613a54613ff0565b5b6006811115613a6757613a66613ff0565b5b81525050838381518110613a7e57613a7d614e28565b5b60200260200101819052508180613a9490614a81565b9250505b8080613aa390614a81565b915050613739565b5081935050505090565b826002600082815260200190815260200160002060020160009054906101000a900473ffffffffffffffffffffffffffffffffffffffff1673ffffffffffffffffffffffffffffffffffffffff163373ffffffffffffffffffffffffffffffffffffffff1614613b5a576040517f08c379a0000000000000000000000000000000000000000000000000000000008152600401613b5190615787565b60405180910390fd5b600060026000868152602001908152602001600020905060016006811115613b8557613b84613ff0565b5b8160080160009054906101000a900460ff166006811115613ba957613ba8613ff0565b5b14613be9576040517f08c379a0000000000000000000000000000000000000000000000000000000008152600401613be0906157f3565b60405180910390fd5b8383826005019182613bfc929190614c80565b5060028160080160006101000a81548160ff02191690836006811115613c2557613c24613ff0565b5b0217905550847f3822c71b106c7c1dabf7f076e68c9bd98c45d0cd0d073f4dcdaf422a0fe558478585604051613c5c92919061584f565b60405180910390a25050505050565b600260005403613ca7576040517f3ee5aeb500000000000000000000000000000000000000000000000000000000815260040160405180910390fd5b6002600081905550565b6001600081905550565b828054828255906000526020600020908101928215613cf7579160200282015b82811115613cf6578251825591602001919060010190613cdb565b5b509050613d049190613d92565b5090565b60405180610120016040528060008152602001600073ffffffffffffffffffffffffffffffffffffffff168152602001600073ffffffffffffffffffffffffffffffffffffffff168152602001606081526020016060815260200160608152602001600081526020016000815260200160006006811115613d8c57613d8b613ff0565b5b81525090565b5b80821115613dab576000816000905550600101613d93565b5090565b6000604051905090565b600080fd5b600080fd5b6000819050919050565b613dd681613dc3565b8114613de157600080fd5b50565b600081359050613df381613dcd565b92915050565b600073ffffffffffffffffffffffffffffffffffffffff82169050919050565b6000613e2482613df9565b9050919050565b613e3481613e19565b8114613e3f57600080fd5b50565b600081359050613e5181613e2b565b92915050565b60008060408385031215613e6e57613e6d613db9565b5b6000613e7c85828601613de4565b9250506020613e8d85828601613e42565b9150509250929050565b613ea081613dc3565b82525050565b6000602082019050613ebb6000830184613e97565b92915050565b600060208284031215613ed757613ed6613db9565b5b6000613ee584828501613e42565b91505092915050565b60008115159050919050565b613f0381613eee565b82525050565b6000602082019050613f1e6000830184613efa565b92915050565b600060208284031215613f3a57613f39613db9565b5b6000613f4884828501613de4565b91505092915050565b613f5a81613e19565b82525050565b600081519050919050565b600082825260208201905092915050565b60005b83811015613f9a578082015181840152602081019050613f7f565b60008484015250505050565b6000601f19601f8301169050919050565b6000613fc282613f60565b613fcc8185613f6b565b9350613fdc818560208601613f7c565b613fe581613fa6565b840191505092915050565b7f4e487b7100000000000000000000000000000000000000000000000000000000600052602160045260246000fd5b600781106140305761402f613ff0565b5b50565b60008190506140418261401f565b919050565b600061405182614033565b9050919050565b61406181614046565b82525050565b60006101208201905061407d600083018c613e97565b61408a602083018b613f51565b614097604083018a613f51565b81810360608301526140a98189613fb7565b905081810360808301526140bd8188613fb7565b905081810360a08301526140d18187613fb7565b90506140e060c0830186613e97565b6140ed60e0830185613e97565b6140fb610100830184614058565b9a9950505050505050505050565b600080fd5b600080fd5b600080fd5b60008083601f84011261412e5761412d614109565b5b8235905067ffffffffffffffff81111561414b5761414a61410e565b5b60208301915083600182028301111561416757614166614113565b5b9250929050565b60008060008060006060868803121561418a57614189613db9565b5b600086013567ffffffffffffffff8111156141a8576141a7613dbe565b5b6141b488828901614118565b955095505060206141c788828901613de4565b935050604086013567ffffffffffffffff8111156141e8576141e7613dbe565b5b6141f488828901614118565b92509250509295509295909350565b60006080820190506142186000830187613efa565b818103602083015261422a8186613fb7565b90506142396040830185613e97565b6142466060830184613e97565b95945050505050565b6000806020838503121561426657614265613db9565b5b600083013567ffffffffffffffff81111561428457614283613dbe565b5b61429085828601614118565b92509250509250929050565b600081519050919050565b600082825260208201905092915050565b6000819050602082019050919050565b6142d181613dc3565b82525050565b60006142e383836142c8565b60208301905092915050565b6000602082019050919050565b60006143078261429c565b61431181856142a7565b935061431c836142b8565b8060005b8381101561434d57815161433488826142d7565b975061433f836142ef565b925050600181019050614320565b5085935050505092915050565b600060c08201905081810360008301526143748189613fb7565b90506143836020830188613e97565b6143906040830187613e97565b81810360608301526143a281866142fc565b905081810360808301526143b681856142fc565b905081810360a08301526143ca81846142fc565b9050979650505050505050565b6143e081613eee565b81146143eb57600080fd5b50565b6000813590506143fd816143d7565b92915050565b6000806040838503121561441a57614419613db9565b5b600061442885828601613de4565b9250506020614439858286016143ee565b9150509250929050565b6000602082019050818103600083015261445d81846142fc565b905092915050565b600060208201905061447a6000830184613f51565b92915050565b600081519050919050565b600082825260208201905092915050565b6000819050602082019050919050565b6144b581613e19565b82525050565b600082825260208201905092915050565b60006144d782613f60565b6144e181856144bb565b93506144f1818560208601613f7c565b6144fa81613fa6565b840191505092915050565b61450e81614046565b82525050565b60006101208301600083015161452d60008601826142c8565b50602083015161454060208601826144ac565b50604083015161455360408601826144ac565b506060830151848203606086015261456b82826144cc565b9150506080830151848203608086015261458582826144cc565b91505060a083015184820360a086015261459f82826144cc565b91505060c08301516145b460c08601826142c8565b5060e08301516145c760e08601826142c8565b506101008301516145dc610100860182614505565b508091505092915050565b60006145f38383614514565b905092915050565b6000602082019050919050565b600061461382614480565b61461d818561448b565b93508360208202850161462f8561449c565b8060005b8581101561466b578484038952815161464c85826145e7565b9450614657836145fb565b925060208a01995050600181019050614633565b50829750879550505050505092915050565b600060208201905081810360008301526146978184614608565b905092915050565b7f4e487b7100000000000000000000000000000000000000000000000000000000600052604160045260246000fd5b6146d782613fa6565b810181811067ffffffffffffffff821117156146f6576146f561469f565b5b80604052505050565b6000614709613daf565b905061471582826146ce565b919050565b600067ffffffffffffffff8211156147355761473461469f565b5b602082029050602081019050919050565b60006147596147548461471a565b6146ff565b9050808382526020820190506020840283018581111561477c5761477b614113565b5b835b818110156147a557806147918882613de4565b84526020840193505060208101905061477e565b5050509392505050565b600082601f8301126147c4576147c3614109565b5b81356147d4848260208601614746565b91505092915050565b6000602082840312156147f3576147f2613db9565b5b600082013567ffffffffffffffff81111561481157614810613dbe565b5b61481d848285016147af565b91505092915050565b600081519050919050565b600082825260208201905092915050565b6000819050602082019050919050565b60408201600082015161486860008501826144ac565b50602082015161487b60208501826142c8565b50505050565b600061488d8383614852565b60408301905092915050565b6000602082019050919050565b60006148b182614826565b6148bb8185614831565b93506148c683614842565b8060005b838110156148f75781516148de8882614881565b97506148e983614899565b9250506001810190506148ca565b5085935050505092915050565b6000602082019050818103600083015261491e81846148a6565b905092915050565b60008060006040848603121561493f5761493e613db9565b5b600061494d86828701613de4565b935050602084013567ffffffffffffffff81111561496e5761496d613dbe565b5b61497a86828701614118565b92509250509250925092565b7f4e487b7100000000000000000000000000000000000000000000000000000000600052602260045260246000fd5b600060028204905060018216806149cd57607f821691505b6020821081036149e0576149df614986565b5b50919050565b7f427564676574206d757374206265203e20300000000000000000000000000000600082015250565b6000614a1c601283613f6b565b9150614a27826149e6565b602082019050919050565b60006020820190508181036000830152614a4b81614a0f565b9050919050565b7f4e487b7100000000000000000000000000000000000000000000000000000000600052601160045260246000fd5b6000614a8c82613dc3565b91507fffffffffffffffffffffffffffffffffffffffffffffffffffffffffffffffff8203614abe57614abd614a52565b5b600182019050919050565b600082905092915050565b60008190508160005260206000209050919050565b60006020601f8301049050919050565b600082821b905092915050565b600060088302614b367fffffffffffffffffffffffffffffffffffffffffffffffffffffffffffffffff82614af9565b614b408683614af9565b95508019841693508086168417925050509392505050565b6000819050919050565b6000614b7d614b78614b7384613dc3565b614b58565b613dc3565b9050919050565b6000819050919050565b614b9783614b62565b614bab614ba382614b84565b848454614b06565b825550505050565b600090565b614bc0614bb3565b614bcb818484614b8e565b505050565b5b81811015614bef57614be4600082614bb8565b600181019050614bd1565b5050565b601f821115614c3457614c0581614ad4565b614c0e84614ae9565b81016020851015614c1d578190505b614c31614c2985614ae9565b830182614bd0565b50505b505050565b600082821c905092915050565b6000614c5760001984600802614c39565b1980831691505092915050565b6000614c708383614c46565b9150826002028217905092915050565b614c8a8383614ac9565b67ffffffffffffffff811115614ca357614ca261469f565b5b614cad82546149b5565b614cb8828285614bf3565b6000601f831160018114614ce75760008415614cd5578287013590505b614cdf8582614c64565b865550614d47565b601f198416614cf586614ad4565b60005b82811015614d1d57848901358255600182019150602085019450602081019050614cf8565b86831015614d3a5784890135614d36601f891682614c46565b8355505b6001600288020188555050505b50505050505050565b7f4e6f74206a6f62206f776e657200000000000000000000000000000000000000600082015250565b6000614d86600d83613f6b565b9150614d9182614d50565b602082019050919050565b60006020820190508181036000830152614db581614d79565b9050919050565b7f4a6f6220616c726561647920696e2070726f6772657373000000000000000000600082015250565b6000614df2601783613f6b565b9150614dfd82614dbc565b602082019050919050565b60006020820190508181036000830152614e2181614de5565b9050919050565b7f4e487b7100000000000000000000000000000000000000000000000000000000600052603260045260246000fd5b600081905092915050565b50565b6000614e72600083614e57565b9150614e7d82614e62565b600082019050919050565b6000614e9382614e65565b9150819050919050565b7f42696420726566756e64206661696c6564000000000000000000000000000000600082015250565b6000614ed3601183613f6b565b9150614ede82614e9d565b602082019050919050565b60006020820190508181036000830152614f0281614ec6565b9050919050565b614f1282613f60565b67ffffffffffffffff811115614f2b57614f2a61469f565b5b614f3582546149b5565b614f40828285614bf3565b600060209050601f831160018114614f735760008415614f61578287015190505b614f6b8582614c64565b865550614fd3565b601f198416614f8186614ad4565b60005b82811015614fa957848901518255600182019150602085019450602081019050614f84565b86831015614fc65784890151614fc2601f891682614c46565b8355505b6001600288020188555050505b505050505050565b7f596f7520646964206e6f7420626964206f6e2074686973206a6f620000000000600082015250565b6000615011601b83613f6b565b915061501c82614fdb565b602082019050919050565b6000602082019050818103600083015261504081615004565b9050919050565b7f57696e6e65722063616e6e6f7420776974686472617700000000000000000000600082015250565b600061507d601683613f6b565b915061508882615047565b602082019050919050565b600060208201905081810360008301526150ac81615070565b9050919050565b7f4e6f2066756e647320746f207769746864726177000000000000000000000000600082015250565b60006150e9601483613f6b565b91506150f4826150b3565b602082019050919050565b60006020820190508181036000830152615118816150dc565b9050919050565b7f4a6f62206e6f74206f70656e0000000000000000000000000000000000000000600082015250565b6000615155600c83613f6b565b91506151608261511f565b602082019050919050565b6000602082019050818103600083015261518481615148565b9050919050565b7f53656e642066756c6c2062756467657400000000000000000000000000000000600082015250565b60006151c1601083613f6b565b91506151cc8261518b565b602082019050919050565b600060208201905081810360008301526151f0816151b4565b9050919050565b7f42616420667265656c616e636572000000000000000000000000000000000000600082015250565b600061522d600e83613f6b565b9150615238826151f7565b602082019050919050565b6000602082019050818103600083015261525c81615220565b9050919050565b7f576f726b206e6f74207375626d69747465640000000000000000000000000000600082015250565b6000615299601283613f6b565b91506152a482615263565b602082019050919050565b600060208201905081810360008301526152c88161528c565b9050919050565b60006152da82613dc3565b91506152e583613dc3565b92508282019050808211156152fd576152fc614a52565b5b92915050565b7f5472616e73666572206661696c65640000000000000000000000000000000000600082015250565b6000615339600f83613f6b565b915061534482615303565b602082019050919050565b600060208201905081810360008301526153688161532c565b9050919050565b7f55736572206e6f74207265676973746572656400000000000000000000000000600082015250565b60006153a5601383613f6b565b91506153b08261536f565b602082019050919050565b600060208201905081810360008301526153d481615398565b9050919050565b7f416c726561647920726567697374657265640000000000000000000000000000600082015250565b6000615411601283613f6b565b915061541c826153db565b602082019050919050565b6000602082019050818103600083015261544081615404565b9050919050565b7f4f6e6c7920636f6e7472616374206f776e6572202864656d6f29000000000000600082015250565b600061547d601a83613f6b565b915061548882615447565b602082019050919050565b600060208201905081810360008301526154ac81615470565b9050919050565b7f4e6f206469737075746500000000000000000000000000000000000000000000600082015250565b60006154e9600a83613f6b565b91506154f4826154b3565b602082019050919050565b60006020820190508181036000830152615518816154dc565b9050919050565b7f526566756e64206661696c656400000000000000000000000000000000000000600082015250565b6000615555600d83613f6b565b91506155608261551f565b602082019050919050565b6000602082019050818103600083015261558481615548565b9050919050565b7f416c726561647920706c61636564206120626964000000000000000000000000600082015250565b60006155c1601483613f6b565b91506155cc8261558b565b602082019050919050565b600060208201905081810360008301526155f0816155b4565b9050919050565b7f426964206d7573742062652067726561746572207468616e2030000000000000600082015250565b600061562d601a83613f6b565b9150615638826155f7565b602082019050919050565b6000602082019050818103600083015261565c81615620565b9050919050565b7f4f6e6c7920696e766f6c76656420706172746965730000000000000000000000600082015250565b6000615699601583613f6b565b91506156a482615663565b602082019050919050565b600060208201905081810360008301526156c88161568c565b9050919050565b7f43616e6e6f742064697370757465000000000000000000000000000000000000600082015250565b6000615705600e83613f6b565b9150615710826156cf565b602082019050919050565b60006020820190508181036000830152615734816156f8565b9050919050565b7f4e6f7420686972656420667265656c616e636572000000000000000000000000600082015250565b6000615771601483613f6b565b915061577c8261573b565b602082019050919050565b600060208201905081810360008301526157a081615764565b9050919050565b7f57726f6e67207374617475730000000000000000000000000000000000000000600082015250565b60006157dd600c83613f6b565b91506157e8826157a7565b602082019050919050565b6000602082019050818103600083015261580c816157d0565b9050919050565b82818337600083830152505050565b600061582e8385613f6b565b935061583b838584615813565b61584483613fa6565b840190509392505050565b6000602082019050818103600083015261586a818486615822565b9050939250505056fea26469706673582212207c920ab1d568d8b81934c2d6d8ec560ae9e6f18917d93f14fbcbc3c44fe8390464736f6c634300081c0033",
  "linkReferences": {},
  "deployedLinkReferences": {}
}